{
  "_format": "hh-sol-artifact-1",
  "contractName": "CopyrightToken",
  "sourceName": "contracts/CopyrightToken.sol",
  "abi": [
    {
      "inputs": [],
      "stateMutability": "nonpayable",
      "type": "constructor"
    },
    {
      "inputs": [
        {
          "internalType": "address",
          "name": "sender",
          "type": "address"
        },
        {
          "internalType": "uint256",
          "name": "tokenId",
          "type": "uint256"
        },
        {
          "internalType": "address",
          "name": "owner",
          "type": "address"
        }
      ],
      "name": "ERC721IncorrectOwner",
      "type": "error"
    },
    {
      "inputs": [
        {
          "internalType": "address",
          "name": "operator",
          "type": "address"
        },
        {
          "internalType": "uint256",
          "name": "tokenId",
          "type": "uint256"
        }
      ],
      "name": "ERC721InsufficientApproval",
      "type": "error"
    },
    {
      "inputs": [
        {
          "internalType": "address",
          "name": "approver",
          "type": "address"
        }
      ],
      "name": "ERC721InvalidApprover",
      "type": "error"
    },
    {
      "inputs": [
        {
          "internalType": "address",
          "name": "operator",
          "type": "address"
        }
      ],
      "name": "ERC721InvalidOperator",
      "type": "error"
    },
    {
      "inputs": [
        {
          "internalType": "address",
          "name": "owner",
          "type": "address"
        }
      ],
      "name": "ERC721InvalidOwner",
      "type": "error"
    },
    {
      "inputs": [
        {
          "internalType": "address",
          "name": "receiver",
          "type": "address"
        }
      ],
      "name": "ERC721InvalidReceiver",
      "type": "error"
    },
    {
      "inputs": [
        {
          "internalType": "address",
          "name": "sender",
          "type": "address"
        }
      ],
      "name": "ERC721InvalidSender",
      "type": "error"
    },
    {
      "inputs": [
        {
          "internalType": "uint256",
          "name": "tokenId",
          "type": "uint256"
        }
      ],
      "name": "ERC721NonexistentToken",
      "type": "error"
    },
    {
      "inputs": [
        {
          "internalType": "address",
          "name": "owner",
          "type": "address"
        }
      ],
      "name": "OwnableInvalidOwner",
      "type": "error"
    },
    {
      "inputs": [
        {
          "internalType": "address",
          "name": "account",
          "type": "address"
        }
      ],
      "name": "OwnableUnauthorizedAccount",
      "type": "error"
    },
    {
      "anonymous": false,
      "inputs": [
        {
          "indexed": true,
          "internalType": "address",
          "name": "owner",
          "type": "address"
        },
        {
          "indexed": true,
          "internalType": "address",
          "name": "approved",
          "type": "address"
        },
        {
          "indexed": true,
          "internalType": "uint256",
          "name": "tokenId",
          "type": "uint256"
        }
      ],
      "name": "Approval",
      "type": "event"
    },
    {
      "anonymous": false,
      "inputs": [
        {
          "indexed": true,
          "internalType": "address",
          "name": "owner",
          "type": "address"
        },
        {
          "indexed": true,
          "internalType": "address",
          "name": "operator",
          "type": "address"
        },
        {
          "indexed": false,
          "internalType": "bool",
          "name": "approved",
          "type": "bool"
        }
      ],
      "name": "ApprovalForAll",
      "type": "event"
    },
    {
      "anonymous": false,
      "inputs": [
        {
          "indexed": true,
          "internalType": "uint256",
          "name": "tokenId",
          "type": "uint256"
        },
        {
          "indexed": false,
          "internalType": "string",
          "name": "title",
          "type": "string"
        },
        {
          "indexed": false,
          "internalType": "string",
          "name": "category",
          "type": "string"
        },
        {
          "indexed": false,
          "internalType": "address",
          "name": "owner",
          "type": "address"
        },
        {
          "indexed": false,
          "internalType": "string",
          "name": "ipfsHash",
          "type": "string"
        }
      ],
      "name": "CopyrightRegistered",
      "type": "event"
    },
    {
      "anonymous": false,
      "inputs": [
        {
          "indexed": true,
          "internalType": "uint256",
          "name": "tokenId",
          "type": "uint256"
        },
        {
          "indexed": false,
          "internalType": "enum CopyrightToken.CopyrightStatus",
          "name": "newStatus",
          "type": "uint8"
        }
      ],
      "name": "CopyrightStatusChanged",
      "type": "event"
    },
    {
      "anonymous": false,
      "inputs": [
        {
          "indexed": true,
          "internalType": "address",
          "name": "previousOwner",
          "type": "address"
        },
        {
          "indexed": true,
          "internalType": "address",
          "name": "newOwner",
          "type": "address"
        }
      ],
      "name": "OwnershipTransferred",
      "type": "event"
    },
    {
      "anonymous": false,
      "inputs": [
        {
          "indexed": true,
          "internalType": "address",
          "name": "from",
          "type": "address"
        },
        {
          "indexed": true,
          "internalType": "address",
          "name": "to",
          "type": "address"
        },
        {
          "indexed": true,
          "internalType": "uint256",
          "name": "tokenId",
          "type": "uint256"
        }
      ],
      "name": "Transfer",
      "type": "event"
    },
    {
      "inputs": [
        {
          "internalType": "address",
          "name": "to",
          "type": "address"
        },
        {
          "internalType": "uint256",
          "name": "tokenId",
          "type": "uint256"
        }
      ],
      "name": "approve",
      "outputs": [],
      "stateMutability": "nonpayable",
      "type": "function"
    },
    {
      "inputs": [
        {
          "internalType": "address",
          "name": "owner",
          "type": "address"
        }
      ],
      "name": "balanceOf",
      "outputs": [
        {
          "internalType": "uint256",
          "name": "",
          "type": "uint256"
        }
      ],
      "stateMutability": "view",
      "type": "function"
    },
    {
      "inputs": [
        {
          "internalType": "uint256",
          "name": "tokenId",
          "type": "uint256"
        }
      ],
      "name": "getApproved",
      "outputs": [
        {
          "internalType": "address",
          "name": "",
          "type": "address"
        }
      ],
      "stateMutability": "view",
      "type": "function"
    },
    {
      "inputs": [
        {
          "internalType": "uint256",
          "name": "tokenId",
          "type": "uint256"
        }
      ],
      "name": "getCopyrightInfo",
      "outputs": [
        {
          "internalType": "string",
          "name": "title",
          "type": "string"
        },
        {
          "internalType": "string",
          "name": "description",
          "type": "string"
        },
        {
          "internalType": "string",
          "name": "imageUrl",
          "type": "string"
        },
        {
          "internalType": "string",
          "name": "category",
          "type": "string"
        },
        {
          "internalType": "uint256",
          "name": "registrationDate",
          "type": "uint256"
        },
        {
          "internalType": "enum CopyrightToken.CopyrightStatus",
          "name": "status",
          "type": "uint8"
        },
        {
          "internalType": "string",
          "name": "ipfsHash",
          "type": "string"
        }
      ],
      "stateMutability": "view",
      "type": "function"
    },
    {
      "inputs": [
        {
          "internalType": "address",
          "name": "user",
          "type": "address"
        }
      ],
      "name": "getUserCopyrights",
      "outputs": [
        {
          "internalType": "uint256[]",
          "name": "",
          "type": "uint256[]"
        }
      ],
      "stateMutability": "view",
      "type": "function"
    },
    {
      "inputs": [
        {
          "internalType": "address",
          "name": "owner",
          "type": "address"
        },
        {
          "internalType": "address",
          "name": "operator",
          "type": "address"
        }
      ],
      "name": "isApprovedForAll",
      "outputs": [
        {
          "internalType": "bool",
          "name": "",
          "type": "bool"
        }
      ],
      "stateMutability": "view",
      "type": "function"
    },
    {
      "inputs": [],
      "name": "name",
      "outputs": [
        {
          "internalType": "string",
          "name": "",
          "type": "string"
        }
      ],
      "stateMutability": "view",
      "type": "function"
    },
    {
      "inputs": [],
      "name": "owner",
      "outputs": [
        {
          "internalType": "address",
          "name": "",
          "type": "address"
        }
      ],
      "stateMutability": "view",
      "type": "function"
    },
    {
      "inputs": [
        {
          "internalType": "uint256",
          "name": "tokenId",
          "type": "uint256"
        }
      ],
      "name": "ownerOf",
      "outputs": [
        {
          "internalType": "address",
          "name": "",
          "type": "address"
        }
      ],
      "stateMutability": "view",
      "type": "function"
    },
    {
      "inputs": [
        {
          "internalType": "string",
          "name": "title",
          "type": "string"
        },
        {
          "internalType": "string",
          "name": "description",
          "type": "string"
        },
        {
          "internalType": "string",
          "name": "imageUrl",
          "type": "string"
        },
        {
          "internalType": "string",
          "name": "category",
          "type": "string"
        },
        {
          "internalType": "string",
          "name": "ipfsHash",
          "type": "string"
        }
      ],
      "name": "registerCopyright",
      "outputs": [
        {
          "internalType": "uint256",
          "name": "",
          "type": "uint256"
        }
      ],
      "stateMutability": "nonpayable",
      "type": "function"
    },
    {
      "inputs": [],
      "name": "renounceOwnership",
      "outputs": [],
      "stateMutability": "nonpayable",
      "type": "function"
    },
    {
      "inputs": [
        {
          "internalType": "address",
          "name": "from",
          "type": "address"
        },
        {
          "internalType": "address",
          "name": "to",
          "type": "address"
        },
        {
          "internalType": "uint256",
          "name": "tokenId",
          "type": "uint256"
        }
      ],
      "name": "safeTransferFrom",
      "outputs": [],
      "stateMutability": "nonpayable",
      "type": "function"
    },
    {
      "inputs": [
        {
          "internalType": "address",
          "name": "from",
          "type": "address"
        },
        {
          "internalType": "address",
          "name": "to",
          "type": "address"
        },
        {
          "internalType": "uint256",
          "name": "tokenId",
          "type": "uint256"
        },
        {
          "internalType": "bytes",
          "name": "data",
          "type": "bytes"
        }
      ],
      "name": "safeTransferFrom",
      "outputs": [],
      "stateMutability": "nonpayable",
      "type": "function"
    },
    {
      "inputs": [
        {
          "internalType": "address",
          "name": "operator",
          "type": "address"
        },
        {
          "internalType": "bool",
          "name": "approved",
          "type": "bool"
        }
      ],
      "name": "setApprovalForAll",
      "outputs": [],
      "stateMutability": "nonpayable",
      "type": "function"
    },
    {
      "inputs": [
        {
          "internalType": "bytes4",
          "name": "interfaceId",
          "type": "bytes4"
        }
      ],
      "name": "supportsInterface",
      "outputs": [
        {
          "internalType": "bool",
          "name": "",
          "type": "bool"
        }
      ],
      "stateMutability": "view",
      "type": "function"
    },
    {
      "inputs": [],
      "name": "symbol",
      "outputs": [
        {
          "internalType": "string",
          "name": "",
          "type": "string"
        }
      ],
      "stateMutability": "view",
      "type": "function"
    },
    {
      "inputs": [
        {
          "internalType": "uint256",
          "name": "tokenId",
          "type": "uint256"
        }
      ],
      "name": "tokenURI",
      "outputs": [
        {
          "internalType": "string",
          "name": "",
          "type": "string"
        }
      ],
      "stateMutability": "view",
      "type": "function"
    },
    {
      "inputs": [
        {
          "internalType": "address",
          "name": "from",
          "type": "address"
        },
        {
          "internalType": "address",
          "name": "to",
          "type": "address"
        },
        {
          "internalType": "uint256",
          "name": "tokenId",
          "type": "uint256"
        }
      ],
      "name": "transferFrom",
      "outputs": [],
      "stateMutability": "nonpayable",
      "type": "function"
    },
    {
      "inputs": [
        {
          "internalType": "address",
          "name": "newOwner",
          "type": "address"
        }
      ],
      "name": "transferOwnership",
      "outputs": [],
      "stateMutability": "nonpayable",
      "type": "function"
    },
    {
      "inputs": [
        {
          "internalType": "uint256",
          "name": "tokenId",
          "type": "uint256"
        },
        {
          "internalType": "enum CopyrightToken.CopyrightStatus",
          "name": "newStatus",
          "type": "uint8"
        }
      ],
      "name": "updateCopyrightStatus",
      "outputs": [],
      "stateMutability": "nonpayable",
      "type": "function"
    }
  ],
  "bytecode": "0x60806040523480156200001157600080fd5b50336040518060400160405280600e81526020016d21b7b83cb934b3b43a2a37b5b2b760911b8152506040518060400160405280600381526020016210d41560ea1b8152508160009081620000679190620001b6565b506001620000768282620001b6565b5050506001600160a01b038116620000a857604051631e4fbdf760e01b81526000600482015260240160405180910390fd5b620000b381620000bf565b50600060075562000282565b600680546001600160a01b038381166001600160a01b0319831681179093556040519116919082907f8be0079c531659141344cd1fd0a4f28419497f9722a3daafe3b4186f6b6457e090600090a35050565b634e487b7160e01b600052604160045260246000fd5b600181811c908216806200013c57607f821691505b6020821081036200015d57634e487b7160e01b600052602260045260246000fd5b50919050565b601f821115620001b157600081815260208120601f850160051c810160208610156200018c5750805b601f850160051c820191505b81811015620001ad5782815560010162000198565b5050505b505050565b81516001600160401b03811115620001d257620001d262000111565b620001ea81620001e3845462000127565b8462000163565b602080601f831160018114620002225760008415620002095750858301515b600019600386901b1c1916600185901b178555620001ad565b600085815260208120601f198616915b82811015620002535788860151825594840194600190910190840162000232565b5085821015620002725787850151600019600388901b60f8161c191681555b5050505050600190811b01905550565b611f2380620002926000396000f3fe608060405234801561001057600080fd5b506004361061012c5760003560e01c806392c1cb0e116100ad578063b88d4fde11610071578063b88d4fde14610295578063c87b56dd146102a8578063e9292d7a146102bb578063e985e9c5146102ce578063f2fde38b146102e157600080fd5b806392c1cb0e1461022157806395d89b4114610234578063a22cb4651461023c578063a5113b701461024f578063b2edd7961461026f57600080fd5b806342842e0e116100f457806342842e0e146101c15780636352211e146101d457806370a08231146101e7578063715018a6146102085780638da5cb5b1461021057600080fd5b806301ffc9a71461013157806306fdde0314610159578063081812fc1461016e578063095ea7b31461019957806323b872dd146101ae575b600080fd5b61014461013f3660046117ae565b6102f4565b60405190151581526020015b60405180910390f35b610161610346565b6040516101509190611818565b61018161017c36600461182b565b6103d8565b6040516001600160a01b039091168152602001610150565b6101ac6101a7366004611860565b610401565b005b6101ac6101bc36600461188a565b610410565b6101ac6101cf36600461188a565b61051a565b6101816101e236600461182b565b61053a565b6101fa6101f53660046118c6565b610545565b604051908152602001610150565b6101ac610592565b6006546001600160a01b0316610181565b6101fa61022f36600461198d565b6105a6565b6101616108b8565b6101ac61024a366004611a5f565b6108c7565b61026261025d3660046118c6565b6108d2565b6040516101509190611a9b565b61028261027d36600461182b565b61093e565b6040516101509796959493929190611b17565b6101ac6102a3366004611b99565b610d21565b6101616102b636600461182b565b610e2d565b6101ac6102c9366004611c15565b610f42565b6101446102dc366004611c3e565b611014565b6101ac6102ef3660046118c6565b611042565b60006001600160e01b031982166380ac58cd60e01b148061032557506001600160e01b03198216635b5e139f60e01b145b8061034057506301ffc9a760e01b6001600160e01b03198316145b92915050565b60606000805461035590611c71565b80601f016020809104026020016040519081016040528092919081815260200182805461038190611c71565b80156103ce5780601f106103a3576101008083540402835291602001916103ce565b820191906000526020600020905b8154815290600101906020018083116103b157829003601f168201915b5050505050905090565b60006103e382611080565b506000828152600460205260409020546001600160a01b0316610340565b61040c8282336110b9565b5050565b61041b8383836110c6565b6001600160a01b0383166000908152600960205260408120905b8154811015610513578282828154811061045157610451611cab565b906000526020600020015403610501578154829061047190600190611cd7565b8154811061048157610481611cab565b906000526020600020015482828154811061049e5761049e611cab565b9060005260206000200181905550818054806104bc576104bc611cea565b6000828152602080822083016000199081018390559092019092556001600160a01b038616825260098152604082208054600181018255908352912001839055610513565b8061050b81611d00565b915050610435565b5050505050565b61053583838360405180602001604052806000815250610d21565b505050565b600061034082611080565b60006001600160a01b038216610576576040516322718ad960e21b8152600060048201526024015b60405180910390fd5b506001600160a01b031660009081526003602052604090205490565b61059a611151565b6105a4600061117e565b565b6000808651116105f05760405162461bcd60e51b81526020600482015260156024820152745469746c652063616e6e6f7420626520656d70747960581b604482015260640161056d565b60008551116106415760405162461bcd60e51b815260206004820152601b60248201527f4465736372697074696f6e2063616e6e6f7420626520656d7074790000000000604482015260640161056d565b60008451116106925760405162461bcd60e51b815260206004820152601960248201527f496d6167652055524c2063616e6e6f7420626520656d70747900000000000000604482015260640161056d565b60008351116106e35760405162461bcd60e51b815260206004820152601860248201527f43617465676f72792063616e6e6f7420626520656d7074790000000000000000604482015260640161056d565b60008251116107345760405162461bcd60e51b815260206004820152601960248201527f4950465320686173682063616e6e6f7420626520656d70747900000000000000604482015260640161056d565b600780549060019060006107488385611d19565b90915550610758905033826111d0565b61076281846111ea565b6040518060e001604052808881526020018781526020018681526020018581526020014281526020016000600281111561079e5761079e611adf565b815260209081018590526000838152600890915260409020815181906107c49082611d72565b50602082015160018201906107d99082611d72565b50604082015160028201906107ee9082611d72565b50606082015160038201906108039082611d72565b506080820151600482015560a082015160058201805460ff1916600183600281111561083157610831611adf565b021790555060c0820151600682019061084a9082611d72565b505033600081815260096020908152604080832080546001810182559084529190922001849055518392507fe50e574b4ec58e265a4fe20628f2c29f2bbab2a12e4cf833cfe2f73b2e88770d916108a6918b9189918990611e32565b60405180910390a29695505050505050565b60606001805461035590611c71565b61040c33838361127d565b6001600160a01b03811660009081526009602090815260409182902080548351818402810184019094528084526060939283018282801561093257602002820191906000526020600020905b81548152602001906001019080831161091e575b50505050509050919050565b60608080806000808281610967896000908152600260205260409020546001600160a01b031690565b6001600160a01b0316036109b45760405162461bcd60e51b8152602060048201526014602482015273151bdad95b88191bd95cc81b9bdd08195e1a5cdd60621b604482015260640161056d565b600088815260086020526040808220815160e081019092528054829082906109db90611c71565b80601f0160208091040260200160405190810160405280929190818152602001828054610a0790611c71565b8015610a545780601f10610a2957610100808354040283529160200191610a54565b820191906000526020600020905b815481529060010190602001808311610a3757829003601f168201915b50505050508152602001600182018054610a6d90611c71565b80601f0160208091040260200160405190810160405280929190818152602001828054610a9990611c71565b8015610ae65780601f10610abb57610100808354040283529160200191610ae6565b820191906000526020600020905b815481529060010190602001808311610ac957829003601f168201915b50505050508152602001600282018054610aff90611c71565b80601f0160208091040260200160405190810160405280929190818152602001828054610b2b90611c71565b8015610b785780601f10610b4d57610100808354040283529160200191610b78565b820191906000526020600020905b815481529060010190602001808311610b5b57829003601f168201915b50505050508152602001600382018054610b9190611c71565b80601f0160208091040260200160405190810160405280929190818152602001828054610bbd90611c71565b8015610c0a5780601f10610bdf57610100808354040283529160200191610c0a565b820191906000526020600020905b815481529060010190602001808311610bed57829003601f168201915b505050918352505060048201546020820152600582015460409091019060ff166002811115610c3b57610c3b611adf565b6002811115610c4c57610c4c611adf565b8152602001600682018054610c6090611c71565b80601f0160208091040260200160405190810160405280929190818152602001828054610c8c90611c71565b8015610cd95780601f10610cae57610100808354040283529160200191610cd9565b820191906000526020600020905b815481529060010190602001808311610cbc57829003601f168201915b5050505050815250509050806000015181602001518260400151836060015184608001518560a001518660c00151975097509750975097509750975050919395979092949650565b610d2d8484848461131c565b6001600160a01b0384166000908152600960205260408120905b8154811015610e255783828281548110610d6357610d63611cab565b906000526020600020015403610e135781548290610d8390600190611cd7565b81548110610d9357610d93611cab565b9060005260206000200154828281548110610db057610db0611cab565b906000526020600020018190555081805480610dce57610dce611cea565b6000828152602080822083016000199081018390559092019092556001600160a01b038716825260098152604082208054600181018255908352912001849055610e25565b80610e1d81611d00565b915050610d47565b505050505050565b6000818152600260205260409020546060906001600160a01b0316610eae5760405162461bcd60e51b815260206004820152603160248201527f45524337323155524953746f726167653a2055524920717565727920666f72206044820152703737b732bc34b9ba32b73a103a37b5b2b760791b606482015260840161056d565b6000828152600a602052604090208054610ec790611c71565b80601f0160208091040260200160405190810160405280929190818152602001828054610ef390611c71565b80156109325780601f10610f1557610100808354040283529160200191610932565b820191906000526020600020905b815481529060010190602001808311610f235750939695505050505050565b610f4a611151565b6000828152600260205260409020546001600160a01b0316610fa55760405162461bcd60e51b8152602060048201526014602482015273151bdad95b88191bd95cc81b9bdd08195e1a5cdd60621b604482015260640161056d565b6000828152600860205260409020600501805482919060ff19166001836002811115610fd357610fd3611adf565b0217905550817f37a8a287e1cfa91b67dce4ce5c6ead4112e0d1bda4b04cab2bc5efe1e0925b1a826040516110089190611e85565b60405180910390a25050565b6001600160a01b03918216600090815260056020908152604080832093909416825291909152205460ff1690565b61104a611151565b6001600160a01b03811661107457604051631e4fbdf760e01b81526000600482015260240161056d565b61107d8161117e565b50565b6000818152600260205260408120546001600160a01b03168061034057604051637e27328960e01b81526004810184905260240161056d565b6105358383836001611334565b6001600160a01b0382166110f057604051633250574960e11b81526000600482015260240161056d565b60006110fd83833361143a565b9050836001600160a01b0316816001600160a01b03161461114b576040516364283d7b60e01b81526001600160a01b038086166004830152602482018490528216604482015260640161056d565b50505050565b6006546001600160a01b031633146105a45760405163118cdaa760e01b815233600482015260240161056d565b600680546001600160a01b038381166001600160a01b0319831681179093556040519116919082907f8be0079c531659141344cd1fd0a4f28419497f9722a3daafe3b4186f6b6457e090600090a35050565b61040c828260405180602001604052806000815250611533565b6000828152600260205260409020546001600160a01b03166112655760405162461bcd60e51b815260206004820152602e60248201527f45524337323155524953746f726167653a2055524920736574206f66206e6f6e60448201526d32bc34b9ba32b73a103a37b5b2b760911b606482015260840161056d565b6000828152600a602052604090206105358282611d72565b6001600160a01b0382166112af57604051630b61174360e31b81526001600160a01b038316600482015260240161056d565b6001600160a01b03838116600081815260056020908152604080832094871680845294825291829020805460ff191686151590811790915591519182527f17307eab39ab6107e8899845ad3d59bd9653f200f220920489ca2b5937696c31910160405180910390a3505050565b611327848484610410565b61114b3385858585611547565b808061134857506001600160a01b03821615155b1561140a57600061135884611080565b90506001600160a01b038316158015906113845750826001600160a01b0316816001600160a01b031614155b801561139757506113958184611014565b155b156113c05760405163a9fbf51f60e01b81526001600160a01b038416600482015260240161056d565b81156114085783856001600160a01b0316826001600160a01b03167f8c5be1e5ebec7d5bd14f71427d1e84f3dd0314c0f7b2291e5b200ac8c7c3b92560405160405180910390a45b505b5050600090815260046020526040902080546001600160a01b0319166001600160a01b0392909216919091179055565b6000828152600260205260408120546001600160a01b039081169083161561146757611467818486611669565b6001600160a01b038116156114a557611484600085600080611334565b6001600160a01b038116600090815260036020526040902080546000190190555b6001600160a01b038516156114d4576001600160a01b0385166000908152600360205260409020805460010190555b60008481526002602052604080822080546001600160a01b0319166001600160a01b0389811691821790925591518793918516917fddf252ad1be2c89b69c2b068fc378daa952ba7f163c4a11628f55a4df523b3ef91a4949350505050565b61153d83836116cd565b6105353360008585855b6001600160a01b0383163b1561051357604051630a85bd0160e11b81526001600160a01b0384169063150b7a0290611589908890889087908790600401611e93565b6020604051808303816000875af19250505080156115c4575060408051601f3d908101601f191682019092526115c191810190611ed0565b60015b61162d573d8080156115f2576040519150601f19603f3d011682016040523d82523d6000602084013e6115f7565b606091505b50805160000361162557604051633250574960e11b81526001600160a01b038516600482015260240161056d565b805181602001fd5b6001600160e01b03198116630a85bd0160e11b14610e2557604051633250574960e11b81526001600160a01b038516600482015260240161056d565b611674838383611732565b610535576001600160a01b0383166116a257604051637e27328960e01b81526004810182905260240161056d565b60405163177e802f60e01b81526001600160a01b03831660048201526024810182905260440161056d565b6001600160a01b0382166116f757604051633250574960e11b81526000600482015260240161056d565b60006117058383600061143a565b90506001600160a01b03811615610535576040516339e3563760e11b81526000600482015260240161056d565b60006001600160a01b038316158015906117905750826001600160a01b0316846001600160a01b0316148061176c575061176c8484611014565b8061179057506000828152600460205260409020546001600160a01b038481169116145b949350505050565b6001600160e01b03198116811461107d57600080fd5b6000602082840312156117c057600080fd5b81356117cb81611798565b9392505050565b6000815180845260005b818110156117f8576020818501810151868301820152016117dc565b506000602082860101526020601f19601f83011685010191505092915050565b6020815260006117cb60208301846117d2565b60006020828403121561183d57600080fd5b5035919050565b80356001600160a01b038116811461185b57600080fd5b919050565b6000806040838503121561187357600080fd5b61187c83611844565b946020939093013593505050565b60008060006060848603121561189f57600080fd5b6118a884611844565b92506118b660208501611844565b9150604084013590509250925092565b6000602082840312156118d857600080fd5b6117cb82611844565b634e487b7160e01b600052604160045260246000fd5b600067ffffffffffffffff80841115611912576119126118e1565b604051601f8501601f19908116603f0116810190828211818310171561193a5761193a6118e1565b8160405280935085815286868601111561195357600080fd5b858560208301376000602087830101525050509392505050565b600082601f83011261197e57600080fd5b6117cb838335602085016118f7565b600080600080600060a086880312156119a557600080fd5b853567ffffffffffffffff808211156119bd57600080fd5b6119c989838a0161196d565b965060208801359150808211156119df57600080fd5b6119eb89838a0161196d565b95506040880135915080821115611a0157600080fd5b611a0d89838a0161196d565b94506060880135915080821115611a2357600080fd5b611a2f89838a0161196d565b93506080880135915080821115611a4557600080fd5b50611a528882890161196d565b9150509295509295909350565b60008060408385031215611a7257600080fd5b611a7b83611844565b915060208301358015158114611a9057600080fd5b809150509250929050565b6020808252825182820181905260009190848201906040850190845b81811015611ad357835183529284019291840191600101611ab7565b50909695505050505050565b634e487b7160e01b600052602160045260246000fd5b60038110611b1357634e487b7160e01b600052602160045260246000fd5b9052565b60e081526000611b2a60e083018a6117d2565b8281036020840152611b3c818a6117d2565b90508281036040840152611b5081896117d2565b90508281036060840152611b6481886117d2565b9050856080840152611b7960a0840186611af5565b82810360c0840152611b8b81856117d2565b9a9950505050505050505050565b60008060008060808587031215611baf57600080fd5b611bb885611844565b9350611bc660208601611844565b925060408501359150606085013567ffffffffffffffff811115611be957600080fd5b8501601f81018713611bfa57600080fd5b611c09878235602084016118f7565b91505092959194509250565b60008060408385031215611c2857600080fd5b82359150602083013560038110611a9057600080fd5b60008060408385031215611c5157600080fd5b611c5a83611844565b9150611c6860208401611844565b90509250929050565b600181811c90821680611c8557607f821691505b602082108103611ca557634e487b7160e01b600052602260045260246000fd5b50919050565b634e487b7160e01b600052603260045260246000fd5b634e487b7160e01b600052601160045260246000fd5b8181038181111561034057610340611cc1565b634e487b7160e01b600052603160045260246000fd5b600060018201611d1257611d12611cc1565b5060010190565b8082018082111561034057610340611cc1565b601f82111561053557600081815260208120601f850160051c81016020861015611d535750805b601f850160051c820191505b81811015610e2557828155600101611d5f565b815167ffffffffffffffff811115611d8c57611d8c6118e1565b611da081611d9a8454611c71565b84611d2c565b602080601f831160018114611dd55760008415611dbd5750858301515b600019600386901b1c1916600185901b178555610e25565b600085815260208120601f198616915b82811015611e0457888601518255948401946001909101908401611de5565b5085821015611e225787850151600019600388901b60f8161c191681555b5050505050600190811b01905550565b608081526000611e4560808301876117d2565b8281036020840152611e5781876117d2565b6001600160a01b038616604085015283810360608501529050611e7a81856117d2565b979650505050505050565b602081016103408284611af5565b6001600160a01b0385811682528416602082015260408101839052608060608201819052600090611ec6908301846117d2565b9695505050505050565b600060208284031215611ee257600080fd5b81516117cb8161179856fea26469706673582212203b8a4646021affe462943ccedef836963c17f38fcfa02b5d7c62298afb6cfde764736f6c63430008140033",
  "linkReferences": {},
  "deployedLinkReferences": {}
}