{
  "_format": "hh-sol-artifact-1",
  "contractName": "CopyrightMarketplace",
  "sourceName": "contracts/CopyrightMarketplace.sol",
  "abi": [
    {
      "inputs": [
        {
          "internalType": "address",
          "name": "copyrightTokenAddress",
          "type": "address"
        }
      ],
      "stateMutability": "nonpayable",
      "type": "constructor"
    },
    {
      "inputs": [
        {
          "internalType": "address",
          "name": "owner",
          "type": "address"
        }
      ],
      "name": "OwnableInvalidOwner",
      "type": "error"
    },
    {
      "inputs": [
        {
          "internalType": "address",
          "name": "account",
          "type": "address"
        }
      ],
      "name": "OwnableUnauthorizedAccount",
      "type": "error"
    },
    {
      "anonymous": false,
      "inputs": [
        {
          "indexed": true,
          "internalType": "uint256",
          "name": "tokenId",
          "type": "uint256"
        },
        {
          "indexed": true,
          "internalType": "address",
          "name": "seller",
          "type": "address"
        },
        {
          "indexed": false,
          "internalType": "uint256",
          "name": "price",
          "type": "uint256"
        }
      ],
      "name": "CopyrightListed",
      "type": "event"
    },
    {
      "anonymous": false,
      "inputs": [
        {
          "indexed": true,
          "internalType": "uint256",
          "name": "tokenId",
          "type": "uint256"
        },
        {
          "indexed": true,
          "internalType": "address",
          "name": "seller",
          "type": "address"
        },
        {
          "indexed": true,
          "internalType": "address",
          "name": "buyer",
          "type": "address"
        },
        {
          "indexed": false,
          "internalType": "uint256",
          "name": "price",
          "type": "uint256"
        }
      ],
      "name": "CopyrightSold",
      "type": "event"
    },
    {
      "anonymous": false,
      "inputs": [
        {
          "indexed": true,
          "internalType": "uint256",
          "name": "tokenId",
          "type": "uint256"
        }
      ],
      "name": "ListingCancelled",
      "type": "event"
    },
    {
      "anonymous": false,
      "inputs": [
        {
          "indexed": true,
          "internalType": "address",
          "name": "previousOwner",
          "type": "address"
        },
        {
          "indexed": true,
          "internalType": "address",
          "name": "newOwner",
          "type": "address"
        }
      ],
      "name": "OwnershipTransferred",
      "type": "event"
    },
    {
      "inputs": [
        {
          "internalType": "uint256",
          "name": "tokenId",
          "type": "uint256"
        }
      ],
      "name": "buyCopyright",
      "outputs": [],
      "stateMutability": "payable",
      "type": "function"
    },
    {
      "inputs": [
        {
          "internalType": "uint256",
          "name": "tokenId",
          "type": "uint256"
        }
      ],
      "name": "cancelListing",
      "outputs": [],
      "stateMutability": "nonpayable",
      "type": "function"
    },
    {
      "inputs": [],
      "name": "getActiveListings",
      "outputs": [
        {
          "internalType": "uint256[]",
          "name": "",
          "type": "uint256[]"
        }
      ],
      "stateMutability": "view",
      "type": "function"
    },
    {
      "inputs": [
        {
          "internalType": "uint256",
          "name": "tokenId",
          "type": "uint256"
        }
      ],
      "name": "getListing",
      "outputs": [
        {
          "internalType": "address",
          "name": "seller",
          "type": "address"
        },
        {
          "internalType": "uint256",
          "name": "price",
          "type": "uint256"
        },
        {
          "internalType": "bool",
          "name": "isActive",
          "type": "bool"
        }
      ],
      "stateMutability": "view",
      "type": "function"
    },
    {
      "inputs": [
        {
          "internalType": "uint256",
          "name": "tokenId",
          "type": "uint256"
        },
        {
          "internalType": "uint256",
          "name": "price",
          "type": "uint256"
        }
      ],
      "name": "listCopyright",
      "outputs": [],
      "stateMutability": "nonpayable",
      "type": "function"
    },
    {
      "inputs": [],
      "name": "owner",
      "outputs": [
        {
          "internalType": "address",
          "name": "",
          "type": "address"
        }
      ],
      "stateMutability": "view",
      "type": "function"
    },
    {
      "inputs": [],
      "name": "renounceOwnership",
      "outputs": [],
      "stateMutability": "nonpayable",
      "type": "function"
    },
    {
      "inputs": [
        {
          "internalType": "address",
          "name": "newOwner",
          "type": "address"
        }
      ],
      "name": "transferOwnership",
      "outputs": [],
      "stateMutability": "nonpayable",
      "type": "function"
    }
  ],
  "bytecode": "0x608060405234801561001057600080fd5b50604051610cd9380380610cd983398101604081905261002f916100d4565b338061005557604051631e4fbdf760e01b81526000600482015260240160405180910390fd5b61005e81610084565b50600180546001600160a01b0319166001600160a01b0392909216919091179055610104565b600080546001600160a01b038381166001600160a01b0319831681178455604051919092169283917f8be0079c531659141344cd1fd0a4f28419497f9722a3daafe3b4186f6b6457e09190a35050565b6000602082840312156100e657600080fd5b81516001600160a01b03811681146100fd57600080fd5b9392505050565b610bc6806101136000396000f3fe60806040526004361061007b5760003560e01c806387c35bc01161004e57806387c35bc0146101615780638da5cb5b14610183578063b2082783146101ab578063f2fde38b146101cb57600080fd5b8063107a274a14610080578063305a67a814610117578063715018a61461013957806372f17c841461014e575b600080fd5b34801561008c57600080fd5b506100eb61009b366004610a47565b60009081526002602081815260409283902083516080810185528154815260018201546001600160a01b0316928101839052928101549383018490526003015460ff161515606090920182905292565b604080516001600160a01b03909416845260208401929092521515908201526060015b60405180910390f35b34801561012357600080fd5b50610137610132366004610a47565b6101eb565b005b34801561014557600080fd5b506101376102e9565b61013761015c366004610a47565b6102fd565b34801561016d57600080fd5b50610176610624565b60405161010e9190610a60565b34801561018f57600080fd5b506000546040516001600160a01b03909116815260200161010e565b3480156101b757600080fd5b506101376101c6366004610aa4565b61067c565b3480156101d757600080fd5b506101376101e6366004610adb565b6108d0565b6000818152600260205260409020600381015460ff166102495760405162461bcd60e51b815260206004820152601460248201527310dbdc1e5c9a59da1d081b9bdd081b1a5cdd195960621b60448201526064015b60405180910390fd5b60018101546001600160a01b031633146102a55760405162461bcd60e51b815260206004820152601e60248201527f4f6e6c792073656c6c65722063616e2063616e63656c206c697374696e6700006044820152606401610240565b60038101805460ff191690556102ba8261090e565b60405182907f411aee90354c51b1b04cd563fcab2617142a9d50da19232d888547c8a1b7fd8a90600090a25050565b6102f16109ca565b6102fb60006109f7565b565b6000818152600260205260409020600381015460ff1661035f5760405162461bcd60e51b815260206004820152601d60248201527f436f70797269676874206e6f74206c697374656420666f722073616c650000006044820152606401610240565b80600201543410156103aa5760405162461bcd60e51b8152602060048201526014602482015273125b9cdd59999a58da595b9d081c185e5b595b9d60621b6044820152606401610240565b60018101546001600160a01b031633036104065760405162461bcd60e51b815260206004820152601d60248201527f43616e6e6f742062757920796f7572206f776e20636f707972696768740000006044820152606401610240565b600181810154600283015491546040516323b872dd60e01b81526001600160a01b0392831660048201819052336024830152604482018790529392909116906323b872dd90606401600060405180830381600087803b15801561046857600080fd5b505af115801561047c573d6000803e3d6000fd5b505050506000826001600160a01b03168260405160006040518083038185875af1925050503d80600081146104cd576040519150601f19603f3d011682016040523d82523d6000602084013e6104d2565b606091505b50509050806105235760405162461bcd60e51b815260206004820152601760248201527f5061796d656e74207472616e73666572206661696c65640000000000000000006044820152606401610240565b813411156105ba57336105368334610b15565b604051600081818185875af1925050503d8060008114610572576040519150601f19603f3d011682016040523d82523d6000602084013e610577565b606091505b505080915050806105ba5760405162461bcd60e51b815260206004820152600d60248201526c1499599d5b990819985a5b1959609a1b6044820152606401610240565b60038401805460ff191690556105cf8561090e565b336001600160a01b0316836001600160a01b0316867f617e64a1239cef452d6e34032c2c4f21f0e584d63d951349923c504e79fe39808560405161061591815260200190565b60405180910390a45050505050565b6060600380548060200260200160405190810160405280929190818152602001828054801561067257602002820191906000526020600020905b81548152602001906001019080831161065e575b5050505050905090565b6001546040516331a9108f60e11b81526004810184905233916001600160a01b031690636352211e90602401602060405180830381865afa1580156106c5573d6000803e3d6000fd5b505050506040513d601f19601f820116820180604052508101906106e99190610b2e565b6001600160a01b03161461073f5760405162461bcd60e51b815260206004820152601e60248201527f4e6f7420746865206f776e6572206f662074686520636f7079726967687400006044820152606401610240565b6000811161078f5760405162461bcd60e51b815260206004820152601c60248201527f5072696365206d7573742062652067726561746572207468616e2030000000006044820152606401610240565b60008281526002602052604090206003015460ff16156107f15760405162461bcd60e51b815260206004820152601860248201527f436f7079726967687420616c7265616479206c697374656400000000000000006044820152606401610240565b6040805160808101825283815233602080830182815283850186815260016060860181815260008a8152600280875289822098518955945188840180546001600160a01b0319166001600160a01b0390921691909117905592519387019390935591516003958601805460ff191691151591909117905584549182018555939093527fc2575a0e9e593c00f959f8c92f12db2869c3395a3b0502d05e2516446f71f85b909201859055915183815284917fc6e64a050933fb45db843201050639fb1e1ee3ff22c0f62b6d7a0bc0e8a56a25910160405180910390a35050565b6108d86109ca565b6001600160a01b03811661090257604051631e4fbdf760e01b815260006004820152602401610240565b61090b816109f7565b50565b60005b6003548110156109c657816003828154811061092f5761092f610b4b565b9060005260206000200154036109b4576003805461094f90600190610b15565b8154811061095f5761095f610b4b565b90600052602060002001546003828154811061097d5761097d610b4b565b600091825260209091200155600380548061099a5761099a610b61565b600190038181906000526020600020016000905590555050565b806109be81610b77565b915050610911565b5050565b6000546001600160a01b031633146102fb5760405163118cdaa760e01b8152336004820152602401610240565b600080546001600160a01b038381166001600160a01b0319831681178455604051919092169283917f8be0079c531659141344cd1fd0a4f28419497f9722a3daafe3b4186f6b6457e09190a35050565b600060208284031215610a5957600080fd5b5035919050565b6020808252825182820181905260009190848201906040850190845b81811015610a9857835183529284019291840191600101610a7c565b50909695505050505050565b60008060408385031215610ab757600080fd5b50508035926020909101359150565b6001600160a01b038116811461090b57600080fd5b600060208284031215610aed57600080fd5b8135610af881610ac6565b9392505050565b634e487b7160e01b600052601160045260246000fd5b81810381811115610b2857610b28610aff565b92915050565b600060208284031215610b4057600080fd5b8151610af881610ac6565b634e487b7160e01b600052603260045260246000fd5b634e487b7160e01b600052603160045260246000fd5b600060018201610b8957610b89610aff565b506001019056fea2646970667358221220b0cb26e0c977f86464d0e0552aef33817e67755ac98bd69ae163ca857b47383f64736f6c63430008140033",
  "linkReferences": {},
  "deployedLinkReferences": {}
}