{
  "contractName": "CopyrightMarketplace",
  "abi": [
    {
      "inputs": [
        {
          "internalType": "address",
          "name": "copyrightTokenAddress",
          "type": "address"
        }
      ],
      "stateMutability": "nonpayable",
      "type": "constructor"
    },
    {
      "inputs": [
        {
          "internalType": "address",
          "name": "owner",
          "type": "address"
        }
      ],
      "name": "OwnableInvalidOwner",
      "type": "error"
    },
    {
      "inputs": [
        {
          "internalType": "address",
          "name": "account",
          "type": "address"
        }
      ],
      "name": "OwnableUnauthorizedAccount",
      "type": "error"
    },
    {
      "anonymous": false,
      "inputs": [
        {
          "indexed": true,
          "internalType": "uint256",
          "name": "tokenId",
          "type": "uint256"
        },
        {
          "indexed": true,
          "internalType": "address",
          "name": "seller",
          "type": "address"
        },
        {
          "indexed": false,
          "internalType": "uint256",
          "name": "price",
          "type": "uint256"
        }
      ],
      "name": "CopyrightListed",
      "type": "event"
    },
    {
      "anonymous": false,
      "inputs": [
        {
          "indexed": true,
          "internalType": "uint256",
          "name": "tokenId",
          "type": "uint256"
        },
        {
          "indexed": true,
          "internalType": "address",
          "name": "seller",
          "type": "address"
        },
        {
          "indexed": true,
          "internalType": "address",
          "name": "buyer",
          "type": "address"
        },
        {
          "indexed": false,
          "internalType": "uint256",
          "name": "price",
          "type": "uint256"
        }
      ],
      "name": "CopyrightSold",
      "type": "event"
    },
    {
      "anonymous": false,
      "inputs": [
        {
          "indexed": true,
          "internalType": "uint256",
          "name": "tokenId",
          "type": "uint256"
        }
      ],
      "name": "ListingCancelled",
      "type": "event"
    },
    {
      "anonymous": false,
      "inputs": [
        {
          "indexed": true,
          "internalType": "address",
          "name": "previousOwner",
          "type": "address"
        },
        {
          "indexed": true,
          "internalType": "address",
          "name": "newOwner",
          "type": "address"
        }
      ],
      "name": "OwnershipTransferred",
      "type": "event"
    },
    {
      "inputs": [],
      "name": "owner",
      "outputs": [
        {
          "internalType": "address",
          "name": "",
          "type": "address"
        }
      ],
      "stateMutability": "view",
      "type": "function"
    },
    {
      "inputs": [],
      "name": "renounceOwnership",
      "outputs": [],
      "stateMutability": "nonpayable",
      "type": "function"
    },
    {
      "inputs": [
        {
          "internalType": "address",
          "name": "newOwner",
          "type": "address"
        }
      ],
      "name": "transferOwnership",
      "outputs": [],
      "stateMutability": "nonpayable",
      "type": "function"
    },
    {
      "inputs": [
        {
          "internalType": "uint256",
          "name": "tokenId",
          "type": "uint256"
        },
        {
          "internalType": "uint256",
          "name": "price",
          "type": "uint256"
        }
      ],
      "name": "listCopyright",
      "outputs": [],
      "stateMutability": "nonpayable",
      "type": "function"
    },
    {
      "inputs": [
        {
          "internalType": "uint256",
          "name": "tokenId",
          "type": "uint256"
        }
      ],
      "name": "buyCopyright",
      "outputs": [],
      "stateMutability": "payable",
      "type": "function"
    },
    {
      "inputs": [
        {
          "internalType": "uint256",
          "name": "tokenId",
          "type": "uint256"
        }
      ],
      "name": "cancelListing",
      "outputs": [],
      "stateMutability": "nonpayable",
      "type": "function"
    },
    {
      "inputs": [
        {
          "internalType": "uint256",
          "name": "tokenId",
          "type": "uint256"
        }
      ],
      "name": "getListing",
      "outputs": [
        {
          "internalType": "address",
          "name": "seller",
          "type": "address"
        },
        {
          "internalType": "uint256",
          "name": "price",
          "type": "uint256"
        },
        {
          "internalType": "bool",
          "name": "isActive",
          "type": "bool"
        }
      ],
      "stateMutability": "view",
      "type": "function"
    }
  ],
  "bytecode": "0x608060405234801561000f575f80fd5b50604051610a83380380610a8383398101604081905261002e916100d1565b338061005357604051631e4fbdf760e01b81525f600482015260240160405180910390fd5b61005c81610082565b50600180546001600160a01b0319166001600160a01b03929092169190911790556100fe565b5f80546001600160a01b038381166001600160a01b0319831681178455604051919092169283917f8be0079c531659141344cd1fd0a4f28419497f9722a3daafe3b4186f6b6457e09190a35050565b5f602082840312156100e1575f80fd5b81516001600160a01b03811681146100f7575f80fd5b9392505050565b6109788061010b5f395ff3fe60806040526004361061006e575f3560e01c806372f17c841161004c57806372f17c841461013c5780638da5cb5b1461014f578063b208278314610175578063f2fde38b14610194575f80fd5b8063107a274a14610072578063305a67a814610107578063715018a614610128575b5f80fd5b34801561007d575f80fd5b506100db61008c366004610895565b5f9081526002602081815260409283902083516080810185528154815260018201546001600160a01b0316928101839052928101549383018490526003015460ff161515606090920182905292565b604080516001600160a01b03909416845260208401929092521515908201526060015b60405180910390f35b348015610112575f80fd5b50610126610121366004610895565b6101b3565b005b348015610133575f80fd5b506101266102a6565b61012661014a366004610895565b6102b9565b34801561015a575f80fd5b505f546040516001600160a01b0390911681526020016100fe565b348015610180575f80fd5b5061012661018f3660046108ac565b6105be565b34801561019f575f80fd5b506101266101ae3660046108e0565b6107dd565b5f818152600260205260409020600381015460ff166102105760405162461bcd60e51b815260206004820152601460248201527310dbdc1e5c9a59da1d081b9bdd081b1a5cdd195960621b60448201526064015b60405180910390fd5b60018101546001600160a01b0316331461026c5760405162461bcd60e51b815260206004820152601e60248201527f4f6e6c792073656c6c65722063616e2063616e63656c206c697374696e6700006044820152606401610207565b60038101805460ff1916905560405182907f411aee90354c51b1b04cd563fcab2617142a9d50da19232d888547c8a1b7fd8a905f90a25050565b6102ae61081a565b6102b75f610846565b565b5f818152600260205260409020600381015460ff1661031a5760405162461bcd60e51b815260206004820152601d60248201527f436f70797269676874206e6f74206c697374656420666f722073616c650000006044820152606401610207565b80600201543410156103655760405162461bcd60e51b8152602060048201526014602482015273125b9cdd59999a58da595b9d081c185e5b595b9d60621b6044820152606401610207565b60018101546001600160a01b031633036103c15760405162461bcd60e51b815260206004820152601d60248201527f43616e6e6f742062757920796f7572206f776e20636f707972696768740000006044820152606401610207565b600181810154600283015491546040516323b872dd60e01b81526001600160a01b0392831660048201819052336024830152604482018790529392909116906323b872dd906064015f604051808303815f87803b158015610420575f80fd5b505af1158015610432573d5f803e3d5ffd5b505050505f826001600160a01b0316826040515f6040518083038185875af1925050503d805f811461047f576040519150601f19603f3d011682016040523d82523d5f602084013e610484565b606091505b50509050806104d55760405162461bcd60e51b815260206004820152601760248201527f5061796d656e74207472616e73666572206661696c65640000000000000000006044820152606401610207565b8134111561056957336104e88334610902565b6040515f81818185875af1925050503d805f8114610521576040519150601f19603f3d011682016040523d82523d5f602084013e610526565b606091505b505080915050806105695760405162461bcd60e51b815260206004820152600d60248201526c1499599d5b990819985a5b1959609a1b6044820152606401610207565b60038401805460ff1916905560405182815233906001600160a01b0385169087907f617e64a1239cef452d6e34032c2c4f21f0e584d63d951349923c504e79fe39809060200160405180910390a45050505050565b6001546040516331a9108f60e11b81526004810184905233916001600160a01b031690636352211e90602401602060405180830381865afa158015610605573d5f803e3d5ffd5b505050506040513d601f19601f820116820180604052508101906106299190610927565b6001600160a01b03161461067f5760405162461bcd60e51b815260206004820152601e60248201527f4e6f7420746865206f776e6572206f662074686520636f7079726967687400006044820152606401610207565b5f81116106ce5760405162461bcd60e51b815260206004820152601c60248201527f5072696365206d7573742062652067726561746572207468616e2030000000006044820152606401610207565b5f8281526002602052604090206003015460ff161561072f5760405162461bcd60e51b815260206004820152601860248201527f436f7079726967687420616c7265616479206c697374656400000000000000006044820152606401610207565b604080516080810182528381523360208083018281528385018681526001606086018181525f8a815260028087529089902097518855935191870180546001600160a01b0319166001600160a01b0390931692909217909155905191850191909155516003909301805460ff191693151593909317909255915183815284917fc6e64a050933fb45db843201050639fb1e1ee3ff22c0f62b6d7a0bc0e8a56a25910160405180910390a35050565b6107e561081a565b6001600160a01b03811661080e57604051631e4fbdf760e01b81525f6004820152602401610207565b61081781610846565b50565b5f546001600160a01b031633146102b75760405163118cdaa760e01b8152336004820152602401610207565b5f80546001600160a01b038381166001600160a01b0319831681178455604051919092169283917f8be0079c531659141344cd1fd0a4f28419497f9722a3daafe3b4186f6b6457e09190a35050565b5f602082840312156108a5575f80fd5b5035919050565b5f80604083850312156108bd575f80fd5b50508035926020909101359150565b6001600160a01b0381168114610817575f80fd5b5f602082840312156108f0575f80fd5b81356108fb816108cc565b9392505050565b8181038181111561092157634e487b7160e01b5f52601160045260245ffd5b92915050565b5f60208284031215610937575f80fd5b81516108fb816108cc56fea26469706673582212200d7451159d7d53cc70e68fad28184ad848c38fc9ee7fb2d3b74f7a8aa2dd4ead64736f6c63430008140033",
  "immutableReferences": {},
  "source": "// SPDX-License-Identifier: MIT\r\npragma solidity ^0.8.20;\r\n\r\nimport \"@openzeppelin/contracts/access/Ownable.sol\";\r\nimport \"./CopyrightToken.sol\";\r\n\r\ncontract CopyrightMarketplace is Ownable {\r\n  CopyrightToken private _copyrightToken;\r\n\r\n  struct Listing {\r\n    uint256 tokenId;\r\n    address seller;\r\n    uint256 price;\r\n    bool isActive;\r\n  }\r\n\r\n  mapping(uint256 => Listing) private _listings;\r\n\r\n  event CopyrightListed(\r\n    uint256 indexed tokenId,\r\n    address indexed seller,\r\n    uint256 price\r\n  );\r\n  event CopyrightSold(\r\n    uint256 indexed tokenId,\r\n    address indexed seller,\r\n    address indexed buyer,\r\n    uint256 price\r\n  );\r\n  event ListingCancelled(uint256 indexed tokenId);\r\n\r\n  constructor(address copyrightTokenAddress) Ownable(msg.sender) {\r\n    _copyrightToken = CopyrightToken(copyrightTokenAddress);\r\n  }\r\n\r\n  function listCopyright(uint256 tokenId, uint256 price) public {\r\n    require(\r\n      _copyrightToken.ownerOf(tokenId) == msg.sender,\r\n      \"Not the owner of the copyright\"\r\n    );\r\n    require(price > 0, \"Price must be greater than 0\");\r\n    require(!_listings[tokenId].isActive, \"Copyright already listed\");\r\n\r\n    _listings[tokenId] = Listing({\r\n      tokenId: tokenId,\r\n      seller: msg.sender,\r\n      price: price,\r\n      isActive: true\r\n    });\r\n\r\n    emit CopyrightListed(tokenId, msg.sender, price);\r\n  }\r\n\r\n  function buyCopyright(uint256 tokenId) public payable {\r\n    Listing storage listing = _listings[tokenId];\r\n    require(listing.isActive, \"Copyright not listed for sale\");\r\n    require(msg.value >= listing.price, \"Insufficient payment\");\r\n    require(msg.sender != listing.seller, \"Cannot buy your own copyright\");\r\n\r\n    address seller = listing.seller;\r\n    uint256 price = listing.price;\r\n\r\n    _copyrightToken.transferFrom(seller, msg.sender, tokenId);\r\n\r\n    (bool success, ) = seller.call{value: price}(\"\");\r\n    require(success, \"Payment transfer failed\");\r\n\r\n    if (msg.value > price) {\r\n      (success, ) = msg.sender.call{value: msg.value - price}(\"\");\r\n      require(success, \"Refund failed\");\r\n    }\r\n\r\n    listing.isActive = false;\r\n\r\n    emit CopyrightSold(tokenId, seller, msg.sender, price);\r\n  }\r\n\r\n  function cancelListing(uint256 tokenId) public {\r\n    Listing storage listing = _listings[tokenId];\r\n    require(listing.isActive, \"Copyright not listed\");\r\n    require(listing.seller == msg.sender, \"Only seller can cancel listing\");\r\n\r\n    listing.isActive = false;\r\n\r\n    emit ListingCancelled(tokenId);\r\n  }\r\n\r\n  function getListing(\r\n    uint256 tokenId\r\n  ) public view returns (address seller, uint256 price, bool isActive) {\r\n    Listing memory listing = _listings[tokenId];\r\n    return (listing.seller, listing.price, listing.isActive);\r\n  }\r\n}\r\n",
  "sourcePath": "E:\\newDevelop\\my\\vue-manager\\contracts\\CopyrightMarketplace.sol",
  "compiler": {
    "name": "solc",
    "version": "0.8.20+commit.a1b79de6.Emscripten.clang"
  },
  "schemaVersion": "3.4.14",
  "updatedAt": "2025-05-06T04:03:33.745Z",
  "devdoc": {
    "errors": {
      "OwnableInvalidOwner(address)": [
        {
          "details": "The owner is not a valid owner account. (eg. `address(0)`)"
        }
      ],
      "OwnableUnauthorizedAccount(address)": [
        {
          "details": "The caller account is not authorized to perform an operation."
        }
      ]
    },
    "kind": "dev",
    "methods": {
      "owner()": {
        "details": "Returns the address of the current owner."
      },
      "renounceOwnership()": {
        "details": "Leaves the contract without owner. It will not be possible to call `onlyOwner` functions. Can only be called by the current owner. NOTE: Renouncing ownership will leave the contract without an owner, thereby disabling any functionality that is only available to the owner."
      },
      "transferOwnership(address)": {
        "details": "Transfers ownership of the contract to a new account (`newOwner`). Can only be called by the current owner."
      }
    },
    "version": 1
  },
  "userdoc": {
    "kind": "user",
    "methods": {},
    "version": 1
  }
}