{
  "contractName": "CopyrightToken",
  "abi": [
    {
      "inputs": [],
      "stateMutability": "nonpayable",
      "type": "constructor"
    },
    {
      "inputs": [
        {
          "internalType": "address",
          "name": "sender",
          "type": "address"
        },
        {
          "internalType": "uint256",
          "name": "tokenId",
          "type": "uint256"
        },
        {
          "internalType": "address",
          "name": "owner",
          "type": "address"
        }
      ],
      "name": "ERC721IncorrectOwner",
      "type": "error"
    },
    {
      "inputs": [
        {
          "internalType": "address",
          "name": "operator",
          "type": "address"
        },
        {
          "internalType": "uint256",
          "name": "tokenId",
          "type": "uint256"
        }
      ],
      "name": "ERC721InsufficientApproval",
      "type": "error"
    },
    {
      "inputs": [
        {
          "internalType": "address",
          "name": "approver",
          "type": "address"
        }
      ],
      "name": "ERC721InvalidApprover",
      "type": "error"
    },
    {
      "inputs": [
        {
          "internalType": "address",
          "name": "operator",
          "type": "address"
        }
      ],
      "name": "ERC721InvalidOperator",
      "type": "error"
    },
    {
      "inputs": [
        {
          "internalType": "address",
          "name": "owner",
          "type": "address"
        }
      ],
      "name": "ERC721InvalidOwner",
      "type": "error"
    },
    {
      "inputs": [
        {
          "internalType": "address",
          "name": "receiver",
          "type": "address"
        }
      ],
      "name": "ERC721InvalidReceiver",
      "type": "error"
    },
    {
      "inputs": [
        {
          "internalType": "address",
          "name": "sender",
          "type": "address"
        }
      ],
      "name": "ERC721InvalidSender",
      "type": "error"
    },
    {
      "inputs": [
        {
          "internalType": "uint256",
          "name": "tokenId",
          "type": "uint256"
        }
      ],
      "name": "ERC721NonexistentToken",
      "type": "error"
    },
    {
      "inputs": [
        {
          "internalType": "address",
          "name": "owner",
          "type": "address"
        }
      ],
      "name": "OwnableInvalidOwner",
      "type": "error"
    },
    {
      "inputs": [
        {
          "internalType": "address",
          "name": "account",
          "type": "address"
        }
      ],
      "name": "OwnableUnauthorizedAccount",
      "type": "error"
    },
    {
      "anonymous": false,
      "inputs": [
        {
          "indexed": true,
          "internalType": "address",
          "name": "owner",
          "type": "address"
        },
        {
          "indexed": true,
          "internalType": "address",
          "name": "approved",
          "type": "address"
        },
        {
          "indexed": true,
          "internalType": "uint256",
          "name": "tokenId",
          "type": "uint256"
        }
      ],
      "name": "Approval",
      "type": "event"
    },
    {
      "anonymous": false,
      "inputs": [
        {
          "indexed": true,
          "internalType": "address",
          "name": "owner",
          "type": "address"
        },
        {
          "indexed": true,
          "internalType": "address",
          "name": "operator",
          "type": "address"
        },
        {
          "indexed": false,
          "internalType": "bool",
          "name": "approved",
          "type": "bool"
        }
      ],
      "name": "ApprovalForAll",
      "type": "event"
    },
    {
      "anonymous": false,
      "inputs": [
        {
          "indexed": true,
          "internalType": "uint256",
          "name": "tokenId",
          "type": "uint256"
        },
        {
          "indexed": false,
          "internalType": "string",
          "name": "title",
          "type": "string"
        },
        {
          "indexed": false,
          "internalType": "string",
          "name": "category",
          "type": "string"
        },
        {
          "indexed": false,
          "internalType": "address",
          "name": "owner",
          "type": "address"
        },
        {
          "indexed": false,
          "internalType": "string",
          "name": "ipfsHash",
          "type": "string"
        }
      ],
      "name": "CopyrightRegistered",
      "type": "event"
    },
    {
      "anonymous": false,
      "inputs": [
        {
          "indexed": true,
          "internalType": "address",
          "name": "previousOwner",
          "type": "address"
        },
        {
          "indexed": true,
          "internalType": "address",
          "name": "newOwner",
          "type": "address"
        }
      ],
      "name": "OwnershipTransferred",
      "type": "event"
    },
    {
      "anonymous": false,
      "inputs": [
        {
          "indexed": true,
          "internalType": "address",
          "name": "from",
          "type": "address"
        },
        {
          "indexed": true,
          "internalType": "address",
          "name": "to",
          "type": "address"
        },
        {
          "indexed": true,
          "internalType": "uint256",
          "name": "tokenId",
          "type": "uint256"
        }
      ],
      "name": "Transfer",
      "type": "event"
    },
    {
      "inputs": [
        {
          "internalType": "address",
          "name": "to",
          "type": "address"
        },
        {
          "internalType": "uint256",
          "name": "tokenId",
          "type": "uint256"
        }
      ],
      "name": "approve",
      "outputs": [],
      "stateMutability": "nonpayable",
      "type": "function"
    },
    {
      "inputs": [
        {
          "internalType": "address",
          "name": "owner",
          "type": "address"
        }
      ],
      "name": "balanceOf",
      "outputs": [
        {
          "internalType": "uint256",
          "name": "",
          "type": "uint256"
        }
      ],
      "stateMutability": "view",
      "type": "function"
    },
    {
      "inputs": [
        {
          "internalType": "uint256",
          "name": "tokenId",
          "type": "uint256"
        }
      ],
      "name": "getApproved",
      "outputs": [
        {
          "internalType": "address",
          "name": "",
          "type": "address"
        }
      ],
      "stateMutability": "view",
      "type": "function"
    },
    {
      "inputs": [
        {
          "internalType": "address",
          "name": "owner",
          "type": "address"
        },
        {
          "internalType": "address",
          "name": "operator",
          "type": "address"
        }
      ],
      "name": "isApprovedForAll",
      "outputs": [
        {
          "internalType": "bool",
          "name": "",
          "type": "bool"
        }
      ],
      "stateMutability": "view",
      "type": "function"
    },
    {
      "inputs": [],
      "name": "name",
      "outputs": [
        {
          "internalType": "string",
          "name": "",
          "type": "string"
        }
      ],
      "stateMutability": "view",
      "type": "function"
    },
    {
      "inputs": [],
      "name": "owner",
      "outputs": [
        {
          "internalType": "address",
          "name": "",
          "type": "address"
        }
      ],
      "stateMutability": "view",
      "type": "function"
    },
    {
      "inputs": [
        {
          "internalType": "uint256",
          "name": "tokenId",
          "type": "uint256"
        }
      ],
      "name": "ownerOf",
      "outputs": [
        {
          "internalType": "address",
          "name": "",
          "type": "address"
        }
      ],
      "stateMutability": "view",
      "type": "function"
    },
    {
      "inputs": [],
      "name": "renounceOwnership",
      "outputs": [],
      "stateMutability": "nonpayable",
      "type": "function"
    },
    {
      "inputs": [
        {
          "internalType": "address",
          "name": "from",
          "type": "address"
        },
        {
          "internalType": "address",
          "name": "to",
          "type": "address"
        },
        {
          "internalType": "uint256",
          "name": "tokenId",
          "type": "uint256"
        }
      ],
      "name": "safeTransferFrom",
      "outputs": [],
      "stateMutability": "nonpayable",
      "type": "function"
    },
    {
      "inputs": [
        {
          "internalType": "address",
          "name": "from",
          "type": "address"
        },
        {
          "internalType": "address",
          "name": "to",
          "type": "address"
        },
        {
          "internalType": "uint256",
          "name": "tokenId",
          "type": "uint256"
        },
        {
          "internalType": "bytes",
          "name": "data",
          "type": "bytes"
        }
      ],
      "name": "safeTransferFrom",
      "outputs": [],
      "stateMutability": "nonpayable",
      "type": "function"
    },
    {
      "inputs": [
        {
          "internalType": "address",
          "name": "operator",
          "type": "address"
        },
        {
          "internalType": "bool",
          "name": "approved",
          "type": "bool"
        }
      ],
      "name": "setApprovalForAll",
      "outputs": [],
      "stateMutability": "nonpayable",
      "type": "function"
    },
    {
      "inputs": [
        {
          "internalType": "bytes4",
          "name": "interfaceId",
          "type": "bytes4"
        }
      ],
      "name": "supportsInterface",
      "outputs": [
        {
          "internalType": "bool",
          "name": "",
          "type": "bool"
        }
      ],
      "stateMutability": "view",
      "type": "function"
    },
    {
      "inputs": [],
      "name": "symbol",
      "outputs": [
        {
          "internalType": "string",
          "name": "",
          "type": "string"
        }
      ],
      "stateMutability": "view",
      "type": "function"
    },
    {
      "inputs": [
        {
          "internalType": "address",
          "name": "from",
          "type": "address"
        },
        {
          "internalType": "address",
          "name": "to",
          "type": "address"
        },
        {
          "internalType": "uint256",
          "name": "tokenId",
          "type": "uint256"
        }
      ],
      "name": "transferFrom",
      "outputs": [],
      "stateMutability": "nonpayable",
      "type": "function"
    },
    {
      "inputs": [
        {
          "internalType": "address",
          "name": "newOwner",
          "type": "address"
        }
      ],
      "name": "transferOwnership",
      "outputs": [],
      "stateMutability": "nonpayable",
      "type": "function"
    },
    {
      "inputs": [
        {
          "internalType": "uint256",
          "name": "tokenId",
          "type": "uint256"
        }
      ],
      "name": "tokenURI",
      "outputs": [
        {
          "internalType": "string",
          "name": "",
          "type": "string"
        }
      ],
      "stateMutability": "view",
      "type": "function"
    },
    {
      "inputs": [
        {
          "internalType": "string",
          "name": "title",
          "type": "string"
        },
        {
          "internalType": "string",
          "name": "description",
          "type": "string"
        },
        {
          "internalType": "string",
          "name": "imageUrl",
          "type": "string"
        },
        {
          "internalType": "string",
          "name": "category",
          "type": "string"
        },
        {
          "internalType": "string",
          "name": "ipfsHash",
          "type": "string"
        }
      ],
      "name": "registerCopyright",
      "outputs": [
        {
          "internalType": "uint256",
          "name": "",
          "type": "uint256"
        }
      ],
      "stateMutability": "nonpayable",
      "type": "function"
    },
    {
      "inputs": [
        {
          "internalType": "uint256",
          "name": "tokenId",
          "type": "uint256"
        }
      ],
      "name": "getCopyrightInfo",
      "outputs": [
        {
          "internalType": "string",
          "name": "title",
          "type": "string"
        },
        {
          "internalType": "string",
          "name": "description",
          "type": "string"
        },
        {
          "internalType": "string",
          "name": "imageUrl",
          "type": "string"
        },
        {
          "internalType": "string",
          "name": "category",
          "type": "string"
        },
        {
          "internalType": "uint256",
          "name": "registrationDate",
          "type": "uint256"
        },
        {
          "internalType": "string",
          "name": "ipfsHash",
          "type": "string"
        }
      ],
      "stateMutability": "view",
      "type": "function"
    }
  ],
  "bytecode": "0x608060405234801562000010575f80fd5b50336040518060400160405280600e81526020016d21b7b83cb934b3b43a2a37b5b2b760911b8152506040518060400160405280600381526020016210d41560ea1b815250815f9081620000659190620001a8565b506001620000748282620001a8565b5050506001600160a01b038116620000a557604051631e4fbdf760e01b81525f600482015260240160405180910390fd5b620000b081620000b7565b5062000270565b600680546001600160a01b038381166001600160a01b0319831681179093556040519116919082907f8be0079c531659141344cd1fd0a4f28419497f9722a3daafe3b4186f6b6457e0905f90a35050565b634e487b7160e01b5f52604160045260245ffd5b600181811c908216806200013157607f821691505b6020821081036200015057634e487b7160e01b5f52602260045260245ffd5b50919050565b601f821115620001a3575f81815260208120601f850160051c810160208610156200017e5750805b601f850160051c820191505b818110156200019f578281556001016200018a565b5050505b505050565b81516001600160401b03811115620001c457620001c462000108565b620001dc81620001d584546200011c565b8462000156565b602080601f83116001811462000212575f8415620001fa5750858301515b5f19600386901b1c1916600185901b1785556200019f565b5f85815260208120601f198616915b82811015620002425788860151825594840194600190910190840162000221565b50858210156200026057878501515f19600388901b60f8161c191681555b5050505050600190811b01905550565b611944806200027e5f395ff3fe608060405234801561000f575f80fd5b5060043610610111575f3560e01c80638da5cb5b1161009e578063b2edd7961161006e578063b2edd79614610233578063b88d4fde14610258578063c87b56dd1461026b578063e985e9c51461027e578063f2fde38b14610291575f80fd5b80638da5cb5b146101f457806392c1cb0e1461020557806395d89b4114610218578063a22cb46514610220575f80fd5b806323b872dd116100e457806323b872dd1461019257806342842e0e146101a55780636352211e146101b857806370a08231146101cb578063715018a6146101ec575f80fd5b806301ffc9a71461011557806306fdde031461013d578063081812fc14610152578063095ea7b31461017d575b5f80fd5b61012861012336600461130f565b6102a4565b60405190151581526020015b60405180910390f35b6101456102f5565b6040516101349190611374565b610165610160366004611386565b610384565b6040516001600160a01b039091168152602001610134565b61019061018b3660046113b8565b6103ab565b005b6101906101a03660046113e0565b6103ba565b6101906101b33660046113e0565b610448565b6101656101c6366004611386565b610467565b6101de6101d9366004611419565b610471565b604051908152602001610134565b6101906104b6565b6006546001600160a01b0316610165565b6101de6102133660046114d7565b6104c9565b6101456107bc565b61019061022e3660046115a0565b6107cb565b610246610241366004611386565b6107d6565b604051610134969594939291906115d9565b61019061026636600461164c565b610b9f565b610145610279366004611386565b610bb7565b61012861028c3660046116c3565b610cb8565b61019061029f366004611419565b610ce5565b5f6001600160e01b031982166380ac58cd60e01b14806102d457506001600160e01b03198216635b5e139f60e01b145b806102ef57506301ffc9a760e01b6001600160e01b03198316145b92915050565b60605f8054610303906116f4565b80601f016020809104026020016040519081016040528092919081815260200182805461032f906116f4565b801561037a5780601f106103515761010080835404028352916020019161037a565b820191905f5260205f20905b81548152906001019060200180831161035d57829003601f168201915b5050505050905090565b5f61038e82610d22565b505f828152600460205260409020546001600160a01b03166102ef565b6103b6828233610d5a565b5050565b6001600160a01b0382166103e857604051633250574960e11b81525f60048201526024015b60405180910390fd5b5f6103f4838333610d67565b9050836001600160a01b0316816001600160a01b031614610442576040516364283d7b60e01b81526001600160a01b03808616600483015260248201849052821660448201526064016103df565b50505050565b61046283838360405180602001604052805f815250610b9f565b505050565b5f6102ef82610d22565b5f6001600160a01b03821661049b576040516322718ad960e21b81525f60048201526024016103df565b506001600160a01b03165f9081526003602052604090205490565b6104be610e59565b6104c75f610e86565b565b5f808651116105125760405162461bcd60e51b81526020600482015260156024820152745469746c652063616e6e6f7420626520656d70747960581b60448201526064016103df565b5f8551116105625760405162461bcd60e51b815260206004820152601b60248201527f4465736372697074696f6e2063616e6e6f7420626520656d707479000000000060448201526064016103df565b5f8451116105b25760405162461bcd60e51b815260206004820152601960248201527f496d6167652055524c2063616e6e6f7420626520656d7074790000000000000060448201526064016103df565b5f8351116106025760405162461bcd60e51b815260206004820152601860248201527f43617465676f72792063616e6e6f7420626520656d707479000000000000000060448201526064016103df565b5f8251116106525760405162461bcd60e51b815260206004820152601960248201527f4950465320686173682063616e6e6f7420626520656d7074790000000000000060448201526064016103df565b600780545f91826106628361172c565b9190505590506106723382610ed7565b5f818152600a602052604090206106898482611795565b506040518060e001604052808881526020018781526020018681526020018581526020014281526020015f60028111156106c5576106c5611851565b815260209081018590525f838152600890915260409020815181906106ea9082611795565b50602082015160018201906106ff9082611795565b50604082015160028201906107149082611795565b50606082015160038201906107299082611795565b506080820151600482015560a082015160058201805460ff1916600183600281111561075757610757611851565b021790555060c082015160068201906107709082611795565b50905050807fe50e574b4ec58e265a4fe20628f2c29f2bbab2a12e4cf833cfe2f73b2e88770d888633876040516107aa9493929190611865565b60405180910390a29695505050505050565b606060018054610303906116f4565b6103b6338383610ef0565b60608080805f81816107fc885f908152600260205260409020546001600160a01b031690565b6001600160a01b0316036108495760405162461bcd60e51b8152602060048201526014602482015273151bdad95b88191bd95cc81b9bdd08195e1a5cdd60621b60448201526064016103df565b5f87815260086020526040808220815160e0810190925280548290829061086f906116f4565b80601f016020809104026020016040519081016040528092919081815260200182805461089b906116f4565b80156108e65780601f106108bd576101008083540402835291602001916108e6565b820191905f5260205f20905b8154815290600101906020018083116108c957829003601f168201915b505050505081526020016001820180546108ff906116f4565b80601f016020809104026020016040519081016040528092919081815260200182805461092b906116f4565b80156109765780601f1061094d57610100808354040283529160200191610976565b820191905f5260205f20905b81548152906001019060200180831161095957829003601f168201915b5050505050815260200160028201805461098f906116f4565b80601f01602080910402602001604051908101604052809291908181526020018280546109bb906116f4565b8015610a065780601f106109dd57610100808354040283529160200191610a06565b820191905f5260205f20905b8154815290600101906020018083116109e957829003601f168201915b50505050508152602001600382018054610a1f906116f4565b80601f0160208091040260200160405190810160405280929190818152602001828054610a4b906116f4565b8015610a965780601f10610a6d57610100808354040283529160200191610a96565b820191905f5260205f20905b815481529060010190602001808311610a7957829003601f168201915b505050918352505060048201546020820152600582015460409091019060ff166002811115610ac757610ac7611851565b6002811115610ad857610ad8611851565b8152602001600682018054610aec906116f4565b80601f0160208091040260200160405190810160405280929190818152602001828054610b18906116f4565b8015610b635780601f10610b3a57610100808354040283529160200191610b63565b820191905f5260205f20905b815481529060010190602001808311610b4657829003601f168201915b5050509190925250508151602083015160408401516060850151608086015160c090960151939e929d50909b5099509297509550909350505050565b610baa8484846103ba565b6104423385858585610f8e565b5f818152600260205260409020546060906001600160a01b0316610c1d5760405162461bcd60e51b815260206004820152601f60248201527f55524920717565727920666f72206e6f6e6578697374656e7420746f6b656e0060448201526064016103df565b5f828152600a602052604090208054610c35906116f4565b80601f0160208091040260200160405190810160405280929190818152602001828054610c61906116f4565b8015610cac5780601f10610c8357610100808354040283529160200191610cac565b820191905f5260205f20905b815481529060010190602001808311610c8f57829003601f168201915b50505050509050919050565b6001600160a01b039182165f90815260056020908152604080832093909416825291909152205460ff1690565b610ced610e59565b6001600160a01b038116610d1657604051631e4fbdf760e01b81525f60048201526024016103df565b610d1f81610e86565b50565b5f818152600260205260408120546001600160a01b0316806102ef57604051637e27328960e01b8152600481018490526024016103df565b61046283838360016110b6565b5f828152600260205260408120546001600160a01b0390811690831615610d9357610d938184866111ba565b6001600160a01b03811615610dcd57610dae5f855f806110b6565b6001600160a01b0381165f90815260036020526040902080545f190190555b6001600160a01b03851615610dfb576001600160a01b0385165f908152600360205260409020805460010190555b5f8481526002602052604080822080546001600160a01b0319166001600160a01b0389811691821790925591518793918516917fddf252ad1be2c89b69c2b068fc378daa952ba7f163c4a11628f55a4df523b3ef91a4949350505050565b6006546001600160a01b031633146104c75760405163118cdaa760e01b81523360048201526024016103df565b600680546001600160a01b038381166001600160a01b0319831681179093556040519116919082907f8be0079c531659141344cd1fd0a4f28419497f9722a3daafe3b4186f6b6457e0905f90a35050565b6103b6828260405180602001604052805f81525061121e565b6001600160a01b038216610f2257604051630b61174360e31b81526001600160a01b03831660048201526024016103df565b6001600160a01b038381165f81815260056020908152604080832094871680845294825291829020805460ff191686151590811790915591519182527f17307eab39ab6107e8899845ad3d59bd9653f200f220920489ca2b5937696c31910160405180910390a3505050565b6001600160a01b0383163b156110af57604051630a85bd0160e11b81526001600160a01b0384169063150b7a0290610fd09088908890879087906004016118b7565b6020604051808303815f875af192505050801561100a575060408051601f3d908101601f19168201909252611007918101906118f3565b60015b611071573d808015611037576040519150601f19603f3d011682016040523d82523d5f602084013e61103c565b606091505b5080515f0361106957604051633250574960e11b81526001600160a01b03851660048201526024016103df565b805181602001fd5b6001600160e01b03198116630a85bd0160e11b146110ad57604051633250574960e11b81526001600160a01b03851660048201526024016103df565b505b5050505050565b80806110ca57506001600160a01b03821615155b1561118b575f6110d984610d22565b90506001600160a01b038316158015906111055750826001600160a01b0316816001600160a01b031614155b801561111857506111168184610cb8565b155b156111415760405163a9fbf51f60e01b81526001600160a01b03841660048201526024016103df565b81156111895783856001600160a01b0316826001600160a01b03167f8c5be1e5ebec7d5bd14f71427d1e84f3dd0314c0f7b2291e5b200ac8c7c3b92560405160405180910390a45b505b50505f90815260046020526040902080546001600160a01b0319166001600160a01b0392909216919091179055565b6111c5838383611235565b610462576001600160a01b0383166111f357604051637e27328960e01b8152600481018290526024016103df565b60405163177e802f60e01b81526001600160a01b0383166004820152602481018290526044016103df565b6112288383611299565b610462335f858585610f8e565b5f6001600160a01b038316158015906112915750826001600160a01b0316846001600160a01b0316148061126e575061126e8484610cb8565b8061129157505f828152600460205260409020546001600160a01b038481169116145b949350505050565b6001600160a01b0382166112c257604051633250574960e11b81525f60048201526024016103df565b5f6112ce83835f610d67565b90506001600160a01b03811615610462576040516339e3563760e11b81525f60048201526024016103df565b6001600160e01b031981168114610d1f575f80fd5b5f6020828403121561131f575f80fd5b813561132a816112fa565b9392505050565b5f81518084525f5b8181101561135557602081850181015186830182015201611339565b505f602082860101526020601f19601f83011685010191505092915050565b602081525f61132a6020830184611331565b5f60208284031215611396575f80fd5b5035919050565b80356001600160a01b03811681146113b3575f80fd5b919050565b5f80604083850312156113c9575f80fd5b6113d28361139d565b946020939093013593505050565b5f805f606084860312156113f2575f80fd5b6113fb8461139d565b92506114096020850161139d565b9150604084013590509250925092565b5f60208284031215611429575f80fd5b61132a8261139d565b634e487b7160e01b5f52604160045260245ffd5b5f67ffffffffffffffff8084111561146057611460611432565b604051601f8501601f19908116603f0116810190828211818310171561148857611488611432565b816040528093508581528686860111156114a0575f80fd5b858560208301375f602087830101525050509392505050565b5f82601f8301126114c8575f80fd5b61132a83833560208501611446565b5f805f805f60a086880312156114eb575f80fd5b853567ffffffffffffffff80821115611502575f80fd5b61150e89838a016114b9565b96506020880135915080821115611523575f80fd5b61152f89838a016114b9565b95506040880135915080821115611544575f80fd5b61155089838a016114b9565b94506060880135915080821115611565575f80fd5b61157189838a016114b9565b93506080880135915080821115611586575f80fd5b50611593888289016114b9565b9150509295509295909350565b5f80604083850312156115b1575f80fd5b6115ba8361139d565b9150602083013580151581146115ce575f80fd5b809150509250929050565b60c081525f6115eb60c0830189611331565b82810360208401526115fd8189611331565b905082810360408401526116118188611331565b905082810360608401526116258187611331565b905084608084015282810360a084015261163f8185611331565b9998505050505050505050565b5f805f806080858703121561165f575f80fd5b6116688561139d565b93506116766020860161139d565b925060408501359150606085013567ffffffffffffffff811115611698575f80fd5b8501601f810187136116a8575f80fd5b6116b787823560208401611446565b91505092959194509250565b5f80604083850312156116d4575f80fd5b6116dd8361139d565b91506116eb6020840161139d565b90509250929050565b600181811c9082168061170857607f821691505b60208210810361172657634e487b7160e01b5f52602260045260245ffd5b50919050565b5f6001820161174957634e487b7160e01b5f52601160045260245ffd5b5060010190565b601f821115610462575f81815260208120601f850160051c810160208610156117765750805b601f850160051c820191505b818110156110ad57828155600101611782565b815167ffffffffffffffff8111156117af576117af611432565b6117c3816117bd84546116f4565b84611750565b602080601f8311600181146117f6575f84156117df5750858301515b5f19600386901b1c1916600185901b1785556110ad565b5f85815260208120601f198616915b8281101561182457888601518255948401946001909101908401611805565b508582101561184157878501515f19600388901b60f8161c191681555b5050505050600190811b01905550565b634e487b7160e01b5f52602160045260245ffd5b608081525f6118776080830187611331565b82810360208401526118898187611331565b6001600160a01b0386166040850152838103606085015290506118ac8185611331565b979650505050505050565b6001600160a01b03858116825284166020820152604081018390526080606082018190525f906118e990830184611331565b9695505050505050565b5f60208284031215611903575f80fd5b815161132a816112fa56fea2646970667358221220b93949f50b26f55fd056eab5f2bac7fd884026fe79f8c5558542bdb8aabf149a64736f6c63430008140033",
  "immutableReferences": {},
  "source": "// SPDX-License-Identifier: MIT\r\npragma solidity ^0.8.20;\r\n\r\nimport \"@openzeppelin/contracts/token/ERC721/ERC721.sol\";\r\nimport \"@openzeppelin/contracts/access/Ownable.sol\";\r\n\r\ncontract CopyrightToken is ERC721, Ownable {\r\n  uint256 private _tokenIds;\r\n\r\n  enum CopyrightStatus {\r\n    Pending,\r\n    Approved,\r\n    Rejected\r\n  }\r\n\r\n  struct CopyrightInfo {\r\n    string title;\r\n    string description;\r\n    string imageUrl;\r\n    string category;\r\n    uint256 registrationDate;\r\n    CopyrightStatus status;\r\n    string ipfsHash;\r\n  }\r\n\r\n  mapping(uint256 => CopyrightInfo) private _copyrightInfo;\r\n  mapping(address => uint256[]) private _userCopyrights;\r\n  mapping(uint256 => string) private _tokenURIs;\r\n\r\n  event CopyrightRegistered(\r\n    uint256 indexed tokenId,\r\n    string title,\r\n    string category,\r\n    address owner,\r\n    string ipfsHash\r\n  );\r\n\r\n  constructor() ERC721(\"CopyrightToken\", \"CPT\") Ownable(msg.sender) {}\r\n\r\n  function tokenURI(\r\n    uint256 tokenId\r\n  ) public view virtual override returns (string memory) {\r\n    require(_ownerOf(tokenId) != address(0), \"URI query for nonexistent token\");\r\n    return _tokenURIs[tokenId];\r\n  }\r\n\r\n  function registerCopyright(\r\n    string memory title,\r\n    string memory description,\r\n    string memory imageUrl,\r\n    string memory category,\r\n    string memory ipfsHash\r\n  ) public returns (uint256) {\r\n    require(bytes(title).length > 0, \"Title cannot be empty\");\r\n    require(bytes(description).length > 0, \"Description cannot be empty\");\r\n    require(bytes(imageUrl).length > 0, \"Image URL cannot be empty\");\r\n    require(bytes(category).length > 0, \"Category cannot be empty\");\r\n    require(bytes(ipfsHash).length > 0, \"IPFS hash cannot be empty\");\r\n\r\n    uint256 newTokenId = _tokenIds++;\r\n\r\n    _safeMint(msg.sender, newTokenId);\r\n    _tokenURIs[newTokenId] = ipfsHash;\r\n\r\n    _copyrightInfo[newTokenId] = CopyrightInfo({\r\n      title: title,\r\n      description: description,\r\n      imageUrl: imageUrl,\r\n      category: category,\r\n      registrationDate: block.timestamp,\r\n      status: CopyrightStatus.Pending,\r\n      ipfsHash: ipfsHash\r\n    });\r\n\r\n    emit CopyrightRegistered(newTokenId, title, category, msg.sender, ipfsHash);\r\n    return newTokenId;\r\n  }\r\n\r\n  function getCopyrightInfo(\r\n    uint256 tokenId\r\n  )\r\n    public\r\n    view\r\n    returns (\r\n      string memory title,\r\n      string memory description,\r\n      string memory imageUrl,\r\n      string memory category,\r\n      uint256 registrationDate,\r\n      string memory ipfsHash\r\n    )\r\n  {\r\n    require(_ownerOf(tokenId) != address(0), \"Token does not exist\");\r\n    CopyrightInfo memory info = _copyrightInfo[tokenId];\r\n    return (\r\n      info.title,\r\n      info.description,\r\n      info.imageUrl,\r\n      info.category,\r\n      info.registrationDate,\r\n      info.ipfsHash\r\n    );\r\n  }\r\n}\r\n",
  "sourcePath": "E:\\newDevelop\\my\\vue-manager\\contracts\\CopyrightToken.sol",
  "compiler": {
    "name": "solc",
    "version": "0.8.20+commit.a1b79de6.Emscripten.clang"
  },
  "schemaVersion": "3.4.14",
  "updatedAt": "2025-05-06T04:03:33.756Z",
  "devdoc": {
    "errors": {
      "ERC721IncorrectOwner(address,uint256,address)": [
        {
          "details": "Indicates an error related to the ownership over a particular token. Used in transfers.",
          "params": {
            "owner": "Address of the current owner of a token.",
            "sender": "Address whose tokens are being transferred.",
            "tokenId": "Identifier number of a token."
          }
        }
      ],
      "ERC721InsufficientApproval(address,uint256)": [
        {
          "details": "Indicates a failure with the `operator`s approval. Used in transfers.",
          "params": {
            "operator": "Address that may be allowed to operate on tokens without being their owner.",
            "tokenId": "Identifier number of a token."
          }
        }
      ],
      "ERC721InvalidApprover(address)": [
        {
          "details": "Indicates a failure with the `approver` of a token to be approved. Used in approvals.",
          "params": {
            "approver": "Address initiating an approval operation."
          }
        }
      ],
      "ERC721InvalidOperator(address)": [
        {
          "details": "Indicates a failure with the `operator` to be approved. Used in approvals.",
          "params": {
            "operator": "Address that may be allowed to operate on tokens without being their owner."
          }
        }
      ],
      "ERC721InvalidOwner(address)": [
        {
          "details": "Indicates that an address can't be an owner. For example, `address(0)` is a forbidden owner in ERC-20. Used in balance queries.",
          "params": {
            "owner": "Address of the current owner of a token."
          }
        }
      ],
      "ERC721InvalidReceiver(address)": [
        {
          "details": "Indicates a failure with the token `receiver`. Used in transfers.",
          "params": {
            "receiver": "Address to which tokens are being transferred."
          }
        }
      ],
      "ERC721InvalidSender(address)": [
        {
          "details": "Indicates a failure with the token `sender`. Used in transfers.",
          "params": {
            "sender": "Address whose tokens are being transferred."
          }
        }
      ],
      "ERC721NonexistentToken(uint256)": [
        {
          "details": "Indicates a `tokenId` whose `owner` is the zero address.",
          "params": {
            "tokenId": "Identifier number of a token."
          }
        }
      ],
      "OwnableInvalidOwner(address)": [
        {
          "details": "The owner is not a valid owner account. (eg. `address(0)`)"
        }
      ],
      "OwnableUnauthorizedAccount(address)": [
        {
          "details": "The caller account is not authorized to perform an operation."
        }
      ]
    },
    "events": {
      "Approval(address,address,uint256)": {
        "details": "Emitted when `owner` enables `approved` to manage the `tokenId` token."
      },
      "ApprovalForAll(address,address,bool)": {
        "details": "Emitted when `owner` enables or disables (`approved`) `operator` to manage all of its assets."
      },
      "Transfer(address,address,uint256)": {
        "details": "Emitted when `tokenId` token is transferred from `from` to `to`."
      }
    },
    "kind": "dev",
    "methods": {
      "approve(address,uint256)": {
        "details": "See {IERC721-approve}."
      },
      "balanceOf(address)": {
        "details": "See {IERC721-balanceOf}."
      },
      "getApproved(uint256)": {
        "details": "See {IERC721-getApproved}."
      },
      "isApprovedForAll(address,address)": {
        "details": "See {IERC721-isApprovedForAll}."
      },
      "name()": {
        "details": "See {IERC721Metadata-name}."
      },
      "owner()": {
        "details": "Returns the address of the current owner."
      },
      "ownerOf(uint256)": {
        "details": "See {IERC721-ownerOf}."
      },
      "renounceOwnership()": {
        "details": "Leaves the contract without owner. It will not be possible to call `onlyOwner` functions. Can only be called by the current owner. NOTE: Renouncing ownership will leave the contract without an owner, thereby disabling any functionality that is only available to the owner."
      },
      "safeTransferFrom(address,address,uint256)": {
        "details": "See {IERC721-safeTransferFrom}."
      },
      "safeTransferFrom(address,address,uint256,bytes)": {
        "details": "See {IERC721-safeTransferFrom}."
      },
      "setApprovalForAll(address,bool)": {
        "details": "See {IERC721-setApprovalForAll}."
      },
      "supportsInterface(bytes4)": {
        "details": "See {IERC165-supportsInterface}."
      },
      "symbol()": {
        "details": "See {IERC721Metadata-symbol}."
      },
      "tokenURI(uint256)": {
        "details": "See {IERC721Metadata-tokenURI}."
      },
      "transferFrom(address,address,uint256)": {
        "details": "See {IERC721-transferFrom}."
      },
      "transferOwnership(address)": {
        "details": "Transfers ownership of the contract to a new account (`newOwner`). Can only be called by the current owner."
      }
    },
    "version": 1
  },
  "userdoc": {
    "kind": "user",
    "methods": {},
    "version": 1
  }
}