{
  "contractName": "DigitalCopyright",
  "abi": [
    {
      "inputs": [],
      "stateMutability": "nonpayable",
      "type": "constructor"
    },
    {
      "inputs": [],
      "name": "CopyrightNotRegistered",
      "type": "error"
    },
    {
      "inputs": [],
      "name": "InvalidIPFSHash",
      "type": "error"
    },
    {
      "inputs": [],
      "name": "NotCopyrightOwner",
      "type": "error"
    },
    {
      "anonymous": false,
      "inputs": [
        {
          "indexed": true,
          "internalType": "uint256",
          "name": "copyrightId",
          "type": "uint256"
        },
        {
          "indexed": true,
          "internalType": "address",
          "name": "owner",
          "type": "address"
        },
        {
          "indexed": false,
          "internalType": "string",
          "name": "title",
          "type": "string"
        }
      ],
      "name": "CopyrightRegistered",
      "type": "event"
    },
    {
      "anonymous": false,
      "inputs": [
        {
          "indexed": true,
          "internalType": "uint256",
          "name": "copyrightId",
          "type": "uint256"
        },
        {
          "indexed": true,
          "internalType": "address",
          "name": "from",
          "type": "address"
        },
        {
          "indexed": true,
          "internalType": "address",
          "name": "to",
          "type": "address"
        }
      ],
      "name": "CopyrightTransferred",
      "type": "event"
    },
    {
      "inputs": [
        {
          "internalType": "uint256",
          "name": "",
          "type": "uint256"
        }
      ],
      "name": "copyrights",
      "outputs": [
        {
          "internalType": "address",
          "name": "owner",
          "type": "address"
        },
        {
          "internalType": "string",
          "name": "title",
          "type": "string"
        },
        {
          "internalType": "string",
          "name": "description",
          "type": "string"
        },
        {
          "internalType": "string",
          "name": "ipfsHash",
          "type": "string"
        },
        {
          "internalType": "uint256",
          "name": "registrationTime",
          "type": "uint256"
        },
        {
          "internalType": "bool",
          "name": "isRegistered",
          "type": "bool"
        }
      ],
      "stateMutability": "view",
      "type": "function"
    },
    {
      "inputs": [
        {
          "internalType": "string",
          "name": "title",
          "type": "string"
        },
        {
          "internalType": "string",
          "name": "description",
          "type": "string"
        },
        {
          "internalType": "string",
          "name": "ipfsHash",
          "type": "string"
        }
      ],
      "name": "registerCopyright",
      "outputs": [
        {
          "internalType": "uint256",
          "name": "",
          "type": "uint256"
        }
      ],
      "stateMutability": "nonpayable",
      "type": "function"
    },
    {
      "inputs": [
        {
          "internalType": "uint256",
          "name": "copyrightId",
          "type": "uint256"
        },
        {
          "internalType": "address",
          "name": "newOwner",
          "type": "address"
        }
      ],
      "name": "transferCopyright",
      "outputs": [],
      "stateMutability": "nonpayable",
      "type": "function"
    },
    {
      "inputs": [
        {
          "internalType": "uint256",
          "name": "copyrightId",
          "type": "uint256"
        }
      ],
      "name": "getCopyright",
      "outputs": [
        {
          "internalType": "address",
          "name": "owner",
          "type": "address"
        },
        {
          "internalType": "string",
          "name": "title",
          "type": "string"
        },
        {
          "internalType": "string",
          "name": "description",
          "type": "string"
        },
        {
          "internalType": "string",
          "name": "ipfsHash",
          "type": "string"
        },
        {
          "internalType": "uint256",
          "name": "registrationTime",
          "type": "uint256"
        },
        {
          "internalType": "bool",
          "name": "isRegistered",
          "type": "bool"
        }
      ],
      "stateMutability": "view",
      "type": "function"
    },
    {
      "inputs": [
        {
          "internalType": "uint256",
          "name": "copyrightId",
          "type": "uint256"
        },
        {
          "internalType": "address",
          "name": "owner",
          "type": "address"
        }
      ],
      "name": "verifyOwnership",
      "outputs": [
        {
          "internalType": "bool",
          "name": "",
          "type": "bool"
        }
      ],
      "stateMutability": "view",
      "type": "function"
    }
  ],
  "bytecode": "0x608060405234801561001057600080fd5b5060018081905550611184806100276000396000f3fe608060405234801561001057600080fd5b50600436106100575760003560e01c8063039addab1461005c57806309cc449d146100785780636f4eaff1146100a85780637ceffa58146100dd578063ead4c27914610112575b600080fd5b61007660048036038101906100719190610a19565b610142565b005b610092600480360381019061008d9190610a19565b6102f6565b60405161009f9190610a74565b60405180910390f35b6100c260048036038101906100bd9190610a8f565b61038f565b6040516100d496959493929190610b6a565b60405180910390f35b6100f760048036038101906100f29190610a8f565b6105b1565b60405161010996959493929190610b6a565b60405180910390f35b61012c60048036038101906101279190610d15565b6107b2565b6040516101399190610dbc565b60405180910390f35b600080600084815260200190815260200160002090508060050160009054906101000a900460ff166101a0576040517f234d185c00000000000000000000000000000000000000000000000000000000815260040160405180910390fd5b3373ffffffffffffffffffffffffffffffffffffffff168160000160009054906101000a900473ffffffffffffffffffffffffffffffffffffffff1673ffffffffffffffffffffffffffffffffffffffff1614610229576040517feb5c966500000000000000000000000000000000000000000000000000000000815260040160405180910390fd5b60008160000160009054906101000a900473ffffffffffffffffffffffffffffffffffffffff169050828260000160006101000a81548173ffffffffffffffffffffffffffffffffffffffff021916908373ffffffffffffffffffffffffffffffffffffffff1602179055508273ffffffffffffffffffffffffffffffffffffffff168173ffffffffffffffffffffffffffffffffffffffff16857fe3d50af3b33e319a9a55e1336da53b587d5381e58008882eee9c331b983081f260405160405180910390a450505050565b60008173ffffffffffffffffffffffffffffffffffffffff1660008085815260200190815260200160002060000160009054906101000a900473ffffffffffffffffffffffffffffffffffffffff1673ffffffffffffffffffffffffffffffffffffffff16148015610387575060008084815260200190815260200160002060050160009054906101000a900460ff165b905092915050565b60006060806060600080600080600089815260200190815260200160002090508060000160009054906101000a900473ffffffffffffffffffffffffffffffffffffffff1681600101826002018360030184600401548560050160009054906101000a900460ff1684805461040390610e06565b80601f016020809104026020016040519081016040528092919081815260200182805461042f90610e06565b801561047c5780601f106104515761010080835404028352916020019161047c565b820191906000526020600020905b81548152906001019060200180831161045f57829003601f168201915b5050505050945083805461048f90610e06565b80601f01602080910402602001604051908101604052809291908181526020018280546104bb90610e06565b80156105085780601f106104dd57610100808354040283529160200191610508565b820191906000526020600020905b8154815290600101906020018083116104eb57829003601f168201915b5050505050935082805461051b90610e06565b80601f016020809104026020016040519081016040528092919081815260200182805461054790610e06565b80156105945780601f1061056957610100808354040283529160200191610594565b820191906000526020600020905b81548152906001019060200180831161057757829003601f168201915b505050505092509650965096509650965096505091939550919395565b60006020528060005260406000206000915090508060000160009054906101000a900473ffffffffffffffffffffffffffffffffffffffff16908060010180546105fa90610e06565b80601f016020809104026020016040519081016040528092919081815260200182805461062690610e06565b80156106735780601f1061064857610100808354040283529160200191610673565b820191906000526020600020905b81548152906001019060200180831161065657829003601f168201915b50505050509080600201805461068890610e06565b80601f01602080910402602001604051908101604052809291908181526020018280546106b490610e06565b80156107015780601f106106d657610100808354040283529160200191610701565b820191906000526020600020905b8154815290600101906020018083116106e457829003601f168201915b50505050509080600301805461071690610e06565b80601f016020809104026020016040519081016040528092919081815260200182805461074290610e06565b801561078f5780601f106107645761010080835404028352916020019161078f565b820191906000526020600020905b81548152906001019060200180831161077257829003601f168201915b5050505050908060040154908060050160009054906101000a900460ff16905086565b6000808251036107ee576040517fdcdb6d0200000000000000000000000000000000000000000000000000000000815260040160405180910390fd5b60006001600081548092919061080390610e66565b9190505590506040518060c001604052803373ffffffffffffffffffffffffffffffffffffffff1681526020018681526020018581526020018481526020014281526020016001151581525060008083815260200190815260200160002060008201518160000160006101000a81548173ffffffffffffffffffffffffffffffffffffffff021916908373ffffffffffffffffffffffffffffffffffffffff16021790555060208201518160010190816108bd919061105a565b5060408201518160020190816108d3919061105a565b5060608201518160030190816108e9919061105a565b506080820151816004015560a08201518160050160006101000a81548160ff0219169083151502179055509050503373ffffffffffffffffffffffffffffffffffffffff16817f3b7ae5e8e3dbdb8282cbd9866cb93e4a1d7d207d9c6f01af0a27f79d4ce08ce48760405161095e919061112c565b60405180910390a3809150509392505050565b6000604051905090565b600080fd5b600080fd5b6000819050919050565b61099881610985565b81146109a357600080fd5b50565b6000813590506109b58161098f565b92915050565b600073ffffffffffffffffffffffffffffffffffffffff82169050919050565b60006109e6826109bb565b9050919050565b6109f6816109db565b8114610a0157600080fd5b50565b600081359050610a13816109ed565b92915050565b60008060408385031215610a3057610a2f61097b565b5b6000610a3e858286016109a6565b9250506020610a4f85828601610a04565b9150509250929050565b60008115159050919050565b610a6e81610a59565b82525050565b6000602082019050610a896000830184610a65565b92915050565b600060208284031215610aa557610aa461097b565b5b6000610ab3848285016109a6565b91505092915050565b610ac5816109db565b82525050565b600081519050919050565b600082825260208201905092915050565b60005b83811015610b05578082015181840152602081019050610aea565b60008484015250505050565b6000601f19601f8301169050919050565b6000610b2d82610acb565b610b378185610ad6565b9350610b47818560208601610ae7565b610b5081610b11565b840191505092915050565b610b6481610985565b82525050565b600060c082019050610b7f6000830189610abc565b8181036020830152610b918188610b22565b90508181036040830152610ba58187610b22565b90508181036060830152610bb98186610b22565b9050610bc86080830185610b5b565b610bd560a0830184610a65565b979650505050505050565b600080fd5b600080fd5b7f4e487b7100000000000000000000000000000000000000000000000000000000600052604160045260246000fd5b610c2282610b11565b810181811067ffffffffffffffff82111715610c4157610c40610bea565b5b80604052505050565b6000610c54610971565b9050610c608282610c19565b919050565b600067ffffffffffffffff821115610c8057610c7f610bea565b5b610c8982610b11565b9050602081019050919050565b82818337600083830152505050565b6000610cb8610cb384610c65565b610c4a565b905082815260208101848484011115610cd457610cd3610be5565b5b610cdf848285610c96565b509392505050565b600082601f830112610cfc57610cfb610be0565b5b8135610d0c848260208601610ca5565b91505092915050565b600080600060608486031215610d2e57610d2d61097b565b5b600084013567ffffffffffffffff811115610d4c57610d4b610980565b5b610d5886828701610ce7565b935050602084013567ffffffffffffffff811115610d7957610d78610980565b5b610d8586828701610ce7565b925050604084013567ffffffffffffffff811115610da657610da5610980565b5b610db286828701610ce7565b9150509250925092565b6000602082019050610dd16000830184610b5b565b92915050565b7f4e487b7100000000000000000000000000000000000000000000000000000000600052602260045260246000fd5b60006002820490506001821680610e1e57607f821691505b602082108103610e3157610e30610dd7565b5b50919050565b7f4e487b7100000000000000000000000000000000000000000000000000000000600052601160045260246000fd5b6000610e7182610985565b91507fffffffffffffffffffffffffffffffffffffffffffffffffffffffffffffffff8203610ea357610ea2610e37565b5b600182019050919050565b60008190508160005260206000209050919050565b60006020601f8301049050919050565b600082821b905092915050565b600060088302610f107fffffffffffffffffffffffffffffffffffffffffffffffffffffffffffffffff82610ed3565b610f1a8683610ed3565b95508019841693508086168417925050509392505050565b6000819050919050565b6000610f57610f52610f4d84610985565b610f32565b610985565b9050919050565b6000819050919050565b610f7183610f3c565b610f85610f7d82610f5e565b848454610ee0565b825550505050565b600090565b610f9a610f8d565b610fa5818484610f68565b505050565b5b81811015610fc957610fbe600082610f92565b600181019050610fab565b5050565b601f82111561100e57610fdf81610eae565b610fe884610ec3565b81016020851015610ff7578190505b61100b61100385610ec3565b830182610faa565b50505b505050565b600082821c905092915050565b600061103160001984600802611013565b1980831691505092915050565b600061104a8383611020565b9150826002028217905092915050565b61106382610acb565b67ffffffffffffffff81111561107c5761107b610bea565b5b6110868254610e06565b611091828285610fcd565b600060209050601f8311600181146110c457600084156110b2578287015190505b6110bc858261103e565b865550611124565b601f1984166110d286610eae565b60005b828110156110fa578489015182556001820191506020850194506020810190506110d5565b868310156111175784890151611113601f891682611020565b8355505b6001600288020188555050505b505050505050565b600060208201905081810360008301526111468184610b22565b90509291505056fea26469706673582212206a891151f6a7514cfd288d4e76188654989804afbced5e91252f4d25dedfd96a64736f6c63430008110033",
  "immutableReferences": {},
  "source": "// SPDX-License-Identifier: MIT\r\npragma solidity ^0.8.0;\r\n\r\ncontract DigitalCopyright {\r\n    struct Copyright {\r\n        address owner;\r\n        string title;\r\n        string description;\r\n        string ipfsHash;\r\n        uint256 registrationTime;\r\n        bool isRegistered;\r\n    }\r\n\r\n    // ID\r\n    mapping(uint256 => Copyright) public copyrights;\r\n    // ID\r\n    uint256 private nextCopyrightId;\r\n\r\n    // \r\n    event CopyrightRegistered(uint256 indexed copyrightId, address indexed owner, string title);\r\n    event CopyrightTransferred(uint256 indexed copyrightId, address indexed from, address indexed to);\r\n\r\n    // \r\n    error NotCopyrightOwner();\r\n    error CopyrightNotRegistered();\r\n    error InvalidIPFSHash();\r\n\r\n    constructor() {\r\n        nextCopyrightId = 1;\r\n    }\r\n\r\n    // \r\n    function registerCopyright(\r\n        string memory title,\r\n        string memory description,\r\n        string memory ipfsHash\r\n    ) external returns (uint256) {\r\n        if (bytes(ipfsHash).length == 0) {\r\n            revert InvalidIPFSHash();\r\n        }\r\n\r\n        uint256 copyrightId = nextCopyrightId++;\r\n        copyrights[copyrightId] = Copyright({\r\n            owner: msg.sender,\r\n            title: title,\r\n            description: description,\r\n            ipfsHash: ipfsHash,\r\n            registrationTime: block.timestamp,\r\n            isRegistered: true\r\n        });\r\n\r\n        emit CopyrightRegistered(copyrightId, msg.sender, title);\r\n        return copyrightId;\r\n    }\r\n\r\n    // \r\n    function transferCopyright(uint256 copyrightId, address newOwner) external {\r\n        Copyright storage copyright = copyrights[copyrightId];\r\n        if (!copyright.isRegistered) {\r\n            revert CopyrightNotRegistered();\r\n        }\r\n        if (copyright.owner != msg.sender) {\r\n            revert NotCopyrightOwner();\r\n        }\r\n\r\n        address oldOwner = copyright.owner;\r\n        copyright.owner = newOwner;\r\n\r\n        emit CopyrightTransferred(copyrightId, oldOwner, newOwner);\r\n    }\r\n\r\n    // \r\n    function getCopyright(uint256 copyrightId) external view returns (\r\n        address owner,\r\n        string memory title,\r\n        string memory description,\r\n        string memory ipfsHash,\r\n        uint256 registrationTime,\r\n        bool isRegistered\r\n    ) {\r\n        Copyright storage copyright = copyrights[copyrightId];\r\n        return (\r\n            copyright.owner,\r\n            copyright.title,\r\n            copyright.description,\r\n            copyright.ipfsHash,\r\n            copyright.registrationTime,\r\n            copyright.isRegistered\r\n        );\r\n    }\r\n\r\n    // \r\n    function verifyOwnership(uint256 copyrightId, address owner) external view returns (bool) {\r\n        return copyrights[copyrightId].owner == owner && copyrights[copyrightId].isRegistered;\r\n    }\r\n} ",
  "sourcePath": "E:\\newDevelop\\my\\vue-manager\\contracts\\DigitalCopyright.sol",
  "compiler": {
    "name": "solc",
    "version": "0.8.17+commit.8df45f5f.Emscripten.clang"
  },
  "schemaVersion": "3.4.14",
  "updatedAt": "2025-04-08T04:56:50.850Z",
  "devdoc": {
    "kind": "dev",
    "methods": {},
    "version": 1
  },
  "userdoc": {
    "kind": "user",
    "methods": {},
    "version": 1
  }
}