{
  "contractName": "DigitalWatermark",
  "abi": [
    {
      "inputs": [],
      "stateMutability": "nonpayable",
      "type": "constructor"
    },
    {
      "anonymous": false,
      "inputs": [
        {
          "indexed": true,
          "internalType": "bytes32",
          "name": "watermarkHash",
          "type": "bytes32"
        },
        {
          "indexed": false,
          "internalType": "string",
          "name": "contentId",
          "type": "string"
        }
      ],
      "name": "WatermarkRegistered",
      "type": "event"
    },
    {
      "anonymous": false,
      "inputs": [
        {
          "indexed": true,
          "internalType": "bytes32",
          "name": "watermarkHash",
          "type": "bytes32"
        },
        {
          "indexed": false,
          "internalType": "bool",
          "name": "verified",
          "type": "bool"
        }
      ],
      "name": "WatermarkVerified",
      "type": "event"
    },
    {
      "inputs": [
        {
          "internalType": "address",
          "name": "_copyrightContractAddress",
          "type": "address"
        }
      ],
      "name": "setCopyrightContractAddress",
      "outputs": [],
      "stateMutability": "nonpayable",
      "type": "function"
    },
    {
      "inputs": [
        {
          "internalType": "bytes32",
          "name": "watermarkHash",
          "type": "bytes32"
        },
        {
          "internalType": "string",
          "name": "contentId",
          "type": "string"
        }
      ],
      "name": "registerWatermark",
      "outputs": [],
      "stateMutability": "nonpayable",
      "type": "function"
    },
    {
      "inputs": [
        {
          "internalType": "bytes32",
          "name": "watermarkHash",
          "type": "bytes32"
        },
        {
          "internalType": "string",
          "name": "extractedWatermark",
          "type": "string"
        }
      ],
      "name": "verifyWatermark",
      "outputs": [
        {
          "internalType": "bool",
          "name": "",
          "type": "bool"
        }
      ],
      "stateMutability": "nonpayable",
      "type": "function"
    },
    {
      "inputs": [
        {
          "internalType": "string",
          "name": "contentHash",
          "type": "string"
        },
        {
          "internalType": "address",
          "name": "owner",
          "type": "address"
        },
        {
          "internalType": "uint256",
          "name": "timestamp",
          "type": "uint256"
        }
      ],
      "name": "generateWatermarkKey",
      "outputs": [
        {
          "internalType": "string",
          "name": "",
          "type": "string"
        }
      ],
      "stateMutability": "pure",
      "type": "function"
    },
    {
      "inputs": [
        {
          "internalType": "bytes32",
          "name": "watermarkHash",
          "type": "bytes32"
        }
      ],
      "name": "isWatermarkRegistered",
      "outputs": [
        {
          "internalType": "bool",
          "name": "",
          "type": "bool"
        }
      ],
      "stateMutability": "view",
      "type": "function"
    }
  ],
  "bytecode": "0x608060405234801561001057600080fd5b5033600160006101000a81548173ffffffffffffffffffffffffffffffffffffffff021916908373ffffffffffffffffffffffffffffffffffffffff160217905550610f9f806100616000396000f3fe608060405234801561001057600080fd5b50600436106100575760003560e01c806327b367d11461005c5780638f5652491461008c578063923b331e146100bc578063aef2a3f6146100d8578063fb3b409e14610108575b600080fd5b61007660048036038101906100719190610702565b610124565b604051610083919061074a565b60405180910390f35b6100a660048036038101906100a191906108ab565b61014e565b6040516100b3919061074a565b60405180910390f35b6100d660048036038101906100d19190610965565b6101ed565b005b6100f260048036038101906100ed91906109c8565b6102c0565b6040516100ff9190610ab6565b60405180910390f35b610122600480360381019061011d91906108ab565b610320565b005b60006002600083815260200190815260200160002060009054906101000a900460ff169050919050565b600080826040516020016101629190610b14565b604051602081830303815290604052805190602001209050600081851480156101a857506002600086815260200190815260200160002060009054906101000a900460ff165b9050847f5fbbcc97fa629747c24101b6ced6662dbdde86c1c13b78e71aac29e1ecb9756a826040516101da919061074a565b60405180910390a2809250505092915050565b600160009054906101000a900473ffffffffffffffffffffffffffffffffffffffff1673ffffffffffffffffffffffffffffffffffffffff163373ffffffffffffffffffffffffffffffffffffffff161461027d576040517f08c379a000000000000000000000000000000000000000000000000000000000815260040161027490610b9d565b60405180910390fd5b806000806101000a81548173ffffffffffffffffffffffffffffffffffffffff021916908373ffffffffffffffffffffffffffffffffffffffff16021790555050565b60606102f88484846040516020016102da93929190610c26565b6040516020818303038152906040528051906020012060001c610416565b6040516020016103089190610cab565b60405160208183030381529060405290509392505050565b60008054906101000a900473ffffffffffffffffffffffffffffffffffffffff1673ffffffffffffffffffffffffffffffffffffffff163373ffffffffffffffffffffffffffffffffffffffff16146103ae576040517f08c379a00000000000000000000000000000000000000000000000000000000081526004016103a590610d3f565b60405180910390fd5b60016002600084815260200190815260200160002060006101000a81548160ff021916908315150217905550817f26fd49d26bfac510b7153039c6e0dcde4ac585ab1911fcf29df5599c38a2796d8260405161040a9190610ab6565b60405180910390a25050565b60606000820361045d576040518060400160405280600181526020017f300000000000000000000000000000000000000000000000000000000000000081525090506106b3565b6000604067ffffffffffffffff81111561047a57610479610780565b5b6040519080825280601f01601f1916602001820160405280156104ac5781602001600182028036833780820191505090505b5090506000603f90505b60008411156105b35760006010856104ce9190610d8e565b9050600a8160ff16101561053f578060306104e99190610dfb565b60f81b8383806104f890610e30565b94508151811061050b5761050a610e59565b5b60200101907effffffffffffffffffffffffffffffffffffffffffffffffffffffffffffff1916908160001a90535061059e565b80605761054c9190610dfb565b60f81b83838061055b90610e30565b94508151811061056e5761056d610e59565b5b60200101907effffffffffffffffffffffffffffffffffffffffffffffffffffffffffffff1916908160001a9053505b6010856105ab9190610e88565b9450506104b6565b600081603f6105c29190610eb9565b905060008167ffffffffffffffff8111156105e0576105df610780565b5b6040519080825280601f01601f1916602001820160405280156106125781602001600182028036833780820191505090505b50905060005b828110156106aa57848160018661062f9190610eed565b6106399190610eed565b8151811061064a57610649610e59565b5b602001015160f81c60f81b82828151811061066857610667610e59565b5b60200101907effffffffffffffffffffffffffffffffffffffffffffffffffffffffffffff1916908160001a90535080806106a290610f21565b915050610618565b50809450505050505b919050565b6000604051905090565b600080fd5b600080fd5b6000819050919050565b6106df816106cc565b81146106ea57600080fd5b50565b6000813590506106fc816106d6565b92915050565b600060208284031215610718576107176106c2565b5b6000610726848285016106ed565b91505092915050565b60008115159050919050565b6107448161072f565b82525050565b600060208201905061075f600083018461073b565b92915050565b600080fd5b600080fd5b6000601f19601f8301169050919050565b7f4e487b7100000000000000000000000000000000000000000000000000000000600052604160045260246000fd5b6107b88261076f565b810181811067ffffffffffffffff821117156107d7576107d6610780565b5b80604052505050565b60006107ea6106b8565b90506107f682826107af565b919050565b600067ffffffffffffffff82111561081657610815610780565b5b61081f8261076f565b9050602081019050919050565b82818337600083830152505050565b600061084e610849846107fb565b6107e0565b90508281526020810184848401111561086a5761086961076a565b5b61087584828561082c565b509392505050565b600082601f83011261089257610891610765565b5b81356108a284826020860161083b565b91505092915050565b600080604083850312156108c2576108c16106c2565b5b60006108d0858286016106ed565b925050602083013567ffffffffffffffff8111156108f1576108f06106c7565b5b6108fd8582860161087d565b9150509250929050565b600073ffffffffffffffffffffffffffffffffffffffff82169050919050565b600061093282610907565b9050919050565b61094281610927565b811461094d57600080fd5b50565b60008135905061095f81610939565b92915050565b60006020828403121561097b5761097a6106c2565b5b600061098984828501610950565b91505092915050565b6000819050919050565b6109a581610992565b81146109b057600080fd5b50565b6000813590506109c28161099c565b92915050565b6000806000606084860312156109e1576109e06106c2565b5b600084013567ffffffffffffffff8111156109ff576109fe6106c7565b5b610a0b8682870161087d565b9350506020610a1c86828701610950565b9250506040610a2d868287016109b3565b9150509250925092565b600081519050919050565b600082825260208201905092915050565b60005b83811015610a71578082015181840152602081019050610a56565b60008484015250505050565b6000610a8882610a37565b610a928185610a42565b9350610aa2818560208601610a53565b610aab8161076f565b840191505092915050565b60006020820190508181036000830152610ad08184610a7d565b905092915050565b600081905092915050565b6000610aee82610a37565b610af88185610ad8565b9350610b08818560208601610a53565b80840191505092915050565b6000610b208284610ae3565b915081905092915050565b7f4f6e6c79206f776e65722063616e2063616c6c20746869732066756e6374696f60008201527f6e00000000000000000000000000000000000000000000000000000000000000602082015250565b6000610b87602183610a42565b9150610b9282610b2b565b604082019050919050565b60006020820190508181036000830152610bb681610b7a565b9050919050565b60008160601b9050919050565b6000610bd582610bbd565b9050919050565b6000610be782610bca565b9050919050565b610bff610bfa82610927565b610bdc565b82525050565b6000819050919050565b610c20610c1b82610992565b610c05565b82525050565b6000610c328286610ae3565b9150610c3e8285610bee565b601482019150610c4e8284610c0f565b602082019150819050949350505050565b7f574d2d0000000000000000000000000000000000000000000000000000000000600082015250565b6000610c95600383610ad8565b9150610ca082610c5f565b600382019050919050565b6000610cb682610c88565b9150610cc28284610ae3565b915081905092915050565b7f4f6e6c7920636f7079726967687420636f6e74726163742063616e2063616c6c60008201527f20746869732066756e6374696f6e000000000000000000000000000000000000602082015250565b6000610d29602e83610a42565b9150610d3482610ccd565b604082019050919050565b60006020820190508181036000830152610d5881610d1c565b9050919050565b7f4e487b7100000000000000000000000000000000000000000000000000000000600052601260045260246000fd5b6000610d9982610992565b9150610da483610992565b925082610db457610db3610d5f565b5b828206905092915050565b600060ff82169050919050565b7f4e487b7100000000000000000000000000000000000000000000000000000000600052601160045260246000fd5b6000610e0682610dbf565b9150610e1183610dbf565b9250828201905060ff811115610e2a57610e29610dcc565b5b92915050565b6000610e3b82610992565b915060008203610e4e57610e4d610dcc565b5b600182039050919050565b7f4e487b7100000000000000000000000000000000000000000000000000000000600052603260045260246000fd5b6000610e9382610992565b9150610e9e83610992565b925082610eae57610ead610d5f565b5b828204905092915050565b6000610ec482610992565b9150610ecf83610992565b9250828203905081811115610ee757610ee6610dcc565b5b92915050565b6000610ef882610992565b9150610f0383610992565b9250828201905080821115610f1b57610f1a610dcc565b5b92915050565b6000610f2c82610992565b91507fffffffffffffffffffffffffffffffffffffffffffffffffffffffffffffffff8203610f5e57610f5d610dcc565b5b60018201905091905056fea2646970667358221220e83c3a96ad9c52c8a088e9fb7299a6bcca60851ed843dc90cf75d350d3e5f22d64736f6c63430008110033",
  "immutableReferences": {},
  "source": "// SPDX-License-Identifier: MIT\r\npragma solidity ^0.8.0;\r\n\r\n/**\r\n * @title DigitalWatermark\r\n * @dev Contract for handling digital watermarking operations and verification\r\n */\r\ncontract DigitalWatermark {\r\n    // The main copyright contract address\r\n    address private copyrightContractAddress;\r\n    address private owner;\r\n    \r\n    // Mapping to store watermark verification status\r\n    mapping(bytes32 => bool) private verifiedWatermarks;\r\n    \r\n    // Events\r\n    event WatermarkVerified(bytes32 indexed watermarkHash, bool verified);\r\n    event WatermarkRegistered(bytes32 indexed watermarkHash, string contentId);\r\n    \r\n    // Modifiers\r\n    modifier onlyOwner() {\r\n        require(msg.sender == owner, \"Only owner can call this function\");\r\n        _;\r\n    }\r\n    \r\n    modifier onlyCopyrightContract() {\r\n        require(msg.sender == copyrightContractAddress, \"Only copyright contract can call this function\");\r\n        _;\r\n    }\r\n    \r\n    // Constructor\r\n    constructor() {\r\n        owner = msg.sender;\r\n    }\r\n    \r\n    /**\r\n     * @dev Set the copyright contract address\r\n     * @param _copyrightContractAddress Address of the copyright contract\r\n     */\r\n    function setCopyrightContractAddress(address _copyrightContractAddress) external onlyOwner {\r\n        copyrightContractAddress = _copyrightContractAddress;\r\n    }\r\n    \r\n    /**\r\n     * @dev Register a watermark hash\r\n     * @param watermarkHash Hash of the watermark\r\n     * @param contentId Identifier for the content (e.g., IPFS hash)\r\n     */\r\n    function registerWatermark(bytes32 watermarkHash, string memory contentId) external onlyCopyrightContract {\r\n        verifiedWatermarks[watermarkHash] = true;\r\n        emit WatermarkRegistered(watermarkHash, contentId);\r\n    }\r\n    \r\n    /**\r\n     * @dev Verify a watermark\r\n     * @param watermarkHash Hash of the watermark to verify\r\n     * @param extractedWatermark The extracted watermark from the content\r\n     * @return Whether the watermark is valid\r\n     */\r\n    function verifyWatermark(bytes32 watermarkHash, string memory extractedWatermark) external returns (bool) {\r\n        // In a real implementation, you would implement more sophisticated verification logic\r\n        // comparing the extracted watermark with on-chain data\r\n        bytes32 extractedHash = keccak256(abi.encodePacked(extractedWatermark));\r\n        bool isValid = (watermarkHash == extractedHash) && verifiedWatermarks[watermarkHash];\r\n        \r\n        emit WatermarkVerified(watermarkHash, isValid);\r\n        return isValid;\r\n    }\r\n    \r\n    /**\r\n     * @dev Generate a watermark key for a content\r\n     * @param contentHash Hash of the content\r\n     * @param owner Address of the content owner\r\n     * @param timestamp Timestamp of the registration\r\n     * @return The generated watermark key\r\n     */\r\n    function generateWatermarkKey(\r\n        string memory contentHash, \r\n        address owner,\r\n        uint256 timestamp\r\n    ) external pure returns (string memory) {\r\n        // In a real implementation, this would create a more sophisticated watermark\r\n        // For this example, we'll just combine the inputs and return a representation\r\n        return string(\r\n            abi.encodePacked(\r\n                \"WM-\",\r\n                toHexString(uint256(keccak256(abi.encodePacked(contentHash, owner, timestamp))))\r\n            )\r\n        );\r\n    }\r\n    \r\n    /**\r\n     * @dev Check if a watermark hash is registered\r\n     * @param watermarkHash Hash of the watermark\r\n     * @return Whether the watermark is registered\r\n     */\r\n    function isWatermarkRegistered(bytes32 watermarkHash) external view returns (bool) {\r\n        return verifiedWatermarks[watermarkHash];\r\n    }\r\n    \r\n    /**\r\n     * @dev Convert a uint256 to a hex string\r\n     * @param value The uint256 value\r\n     * @return The hex string representation\r\n     */\r\n    function toHexString(uint256 value) internal pure returns (string memory) {\r\n        if (value == 0) {\r\n            return \"0\";\r\n        }\r\n        \r\n        bytes memory buffer = new bytes(64);\r\n        uint256 i = 63;\r\n        \r\n        while (value > 0) {\r\n            uint8 remainder = uint8(value % 16);\r\n            if (remainder < 10) {\r\n                buffer[i--] = bytes1(uint8(48 + remainder));\r\n            } else {\r\n                buffer[i--] = bytes1(uint8(87 + remainder)); // 87 = 97 (a) - 10\r\n            }\r\n            value /= 16;\r\n        }\r\n        \r\n        uint256 length = 63 - i;\r\n        bytes memory result = new bytes(length);\r\n        \r\n        for (uint256 j = 0; j < length; j++) {\r\n            result[j] = buffer[i + 1 + j];\r\n        }\r\n        \r\n        return string(result);\r\n    }\r\n} ",
  "sourcePath": "E:\\newDevelop\\my\\vue-manager\\contracts\\DigitalWatermark.sol",
  "compiler": {
    "name": "solc",
    "version": "0.8.17+commit.8df45f5f.Emscripten.clang"
  },
  "schemaVersion": "3.4.14",
  "updatedAt": "2025-04-08T04:56:50.856Z",
  "devdoc": {
    "details": "Contract for handling digital watermarking operations and verification",
    "kind": "dev",
    "methods": {
      "generateWatermarkKey(string,address,uint256)": {
        "details": "Generate a watermark key for a content",
        "params": {
          "contentHash": "Hash of the content",
          "owner": "Address of the content owner",
          "timestamp": "Timestamp of the registration"
        },
        "returns": {
          "_0": "The generated watermark key"
        }
      },
      "isWatermarkRegistered(bytes32)": {
        "details": "Check if a watermark hash is registered",
        "params": {
          "watermarkHash": "Hash of the watermark"
        },
        "returns": {
          "_0": "Whether the watermark is registered"
        }
      },
      "registerWatermark(bytes32,string)": {
        "details": "Register a watermark hash",
        "params": {
          "contentId": "Identifier for the content (e.g., IPFS hash)",
          "watermarkHash": "Hash of the watermark"
        }
      },
      "setCopyrightContractAddress(address)": {
        "details": "Set the copyright contract address",
        "params": {
          "_copyrightContractAddress": "Address of the copyright contract"
        }
      },
      "verifyWatermark(bytes32,string)": {
        "details": "Verify a watermark",
        "params": {
          "extractedWatermark": "The extracted watermark from the content",
          "watermarkHash": "Hash of the watermark to verify"
        },
        "returns": {
          "_0": "Whether the watermark is valid"
        }
      }
    },
    "title": "DigitalWatermark",
    "version": 1
  },
  "userdoc": {
    "kind": "user",
    "methods": {},
    "version": 1
  }
}