{
  "contractName": "EcommerceStore",
  "abi": [
    {
      "inputs": [],
      "stateMutability": "nonpayable",
      "type": "constructor"
    },
    {
      "anonymous": false,
      "inputs": [
        {
          "indexed": false,
          "internalType": "uint256",
          "name": "_productId",
          "type": "uint256"
        },
        {
          "indexed": false,
          "internalType": "string",
          "name": "_name",
          "type": "string"
        },
        {
          "indexed": false,
          "internalType": "string",
          "name": "_category",
          "type": "string"
        },
        {
          "indexed": false,
          "internalType": "string",
          "name": "_imageLink",
          "type": "string"
        },
        {
          "indexed": false,
          "internalType": "string",
          "name": "_descLink",
          "type": "string"
        },
        {
          "indexed": false,
          "internalType": "uint256",
          "name": "_auctionStartTime",
          "type": "uint256"
        },
        {
          "indexed": false,
          "internalType": "uint256",
          "name": "_auctionEndTime",
          "type": "uint256"
        },
        {
          "indexed": false,
          "internalType": "uint256",
          "name": "_startPrice",
          "type": "uint256"
        },
        {
          "indexed": false,
          "internalType": "uint256",
          "name": "_productCondition",
          "type": "uint256"
        }
      ],
      "name": "NewProduct",
      "type": "event"
    },
    {
      "inputs": [],
      "name": "productIndex",
      "outputs": [
        {
          "internalType": "uint256",
          "name": "",
          "type": "uint256"
        }
      ],
      "stateMutability": "view",
      "type": "function",
      "constant": true
    },
    {
      "inputs": [
        {
          "internalType": "string",
          "name": "_name",
          "type": "string"
        },
        {
          "internalType": "string",
          "name": "_category",
          "type": "string"
        },
        {
          "internalType": "string",
          "name": "_imageLink",
          "type": "string"
        },
        {
          "internalType": "string",
          "name": "_descLink",
          "type": "string"
        },
        {
          "internalType": "uint256",
          "name": "_auctionStartTime",
          "type": "uint256"
        },
        {
          "internalType": "uint256",
          "name": "_auctionEndTime",
          "type": "uint256"
        },
        {
          "internalType": "string",
          "name": "_startPrice",
          "type": "string"
        },
        {
          "internalType": "uint256",
          "name": "_productCondition",
          "type": "uint256"
        }
      ],
      "name": "addProductToStore",
      "outputs": [],
      "stateMutability": "nonpayable",
      "type": "function"
    },
    {
      "inputs": [
        {
          "internalType": "uint256",
          "name": "_productId",
          "type": "uint256"
        }
      ],
      "name": "getProduct",
      "outputs": [
        {
          "internalType": "uint256",
          "name": "",
          "type": "uint256"
        },
        {
          "internalType": "string",
          "name": "",
          "type": "string"
        },
        {
          "internalType": "string",
          "name": "",
          "type": "string"
        },
        {
          "internalType": "string",
          "name": "",
          "type": "string"
        },
        {
          "internalType": "string",
          "name": "",
          "type": "string"
        },
        {
          "internalType": "uint256",
          "name": "",
          "type": "uint256"
        },
        {
          "internalType": "uint256",
          "name": "",
          "type": "uint256"
        },
        {
          "internalType": "uint256",
          "name": "",
          "type": "uint256"
        },
        {
          "internalType": "enum EcommerceStore.ProductStatus",
          "name": "",
          "type": "uint8"
        },
        {
          "internalType": "enum EcommerceStore.ProductCondition",
          "name": "",
          "type": "uint8"
        }
      ],
      "stateMutability": "view",
      "type": "function",
      "constant": true
    },
    {
      "inputs": [
        {
          "internalType": "uint256",
          "name": "_productId",
          "type": "uint256"
        },
        {
          "internalType": "bytes32",
          "name": "_bid",
          "type": "bytes32"
        }
      ],
      "name": "bid",
      "outputs": [
        {
          "internalType": "bool",
          "name": "",
          "type": "bool"
        }
      ],
      "stateMutability": "payable",
      "type": "function",
      "payable": true
    },
    {
      "inputs": [
        {
          "internalType": "uint256",
          "name": "_productId",
          "type": "uint256"
        },
        {
          "internalType": "string",
          "name": "_amount",
          "type": "string"
        },
        {
          "internalType": "string",
          "name": "_secret",
          "type": "string"
        }
      ],
      "name": "revealBid",
      "outputs": [],
      "stateMutability": "nonpayable",
      "type": "function"
    },
    {
      "inputs": [
        {
          "internalType": "uint256",
          "name": "_productId",
          "type": "uint256"
        }
      ],
      "name": "highestBidderInfo",
      "outputs": [
        {
          "internalType": "address",
          "name": "",
          "type": "address"
        },
        {
          "internalType": "uint256",
          "name": "",
          "type": "uint256"
        },
        {
          "internalType": "uint256",
          "name": "",
          "type": "uint256"
        }
      ],
      "stateMutability": "view",
      "type": "function",
      "constant": true
    },
    {
      "inputs": [
        {
          "internalType": "uint256",
          "name": "_productId",
          "type": "uint256"
        }
      ],
      "name": "totalBids",
      "outputs": [
        {
          "internalType": "uint256",
          "name": "",
          "type": "uint256"
        }
      ],
      "stateMutability": "view",
      "type": "function",
      "constant": true
    },
    {
      "inputs": [
        {
          "internalType": "uint256",
          "name": "_productId",
          "type": "uint256"
        }
      ],
      "name": "finalizeAuction",
      "outputs": [],
      "stateMutability": "nonpayable",
      "type": "function"
    },
    {
      "inputs": [
        {
          "internalType": "uint256",
          "name": "_productId",
          "type": "uint256"
        }
      ],
      "name": "escrowAddressForProduct",
      "outputs": [
        {
          "internalType": "address",
          "name": "",
          "type": "address"
        }
      ],
      "stateMutability": "view",
      "type": "function",
      "constant": true
    },
    {
      "inputs": [
        {
          "internalType": "uint256",
          "name": "_productId",
          "type": "uint256"
        }
      ],
      "name": "escrowInfo",
      "outputs": [
        {
          "internalType": "address",
          "name": "",
          "type": "address"
        },
        {
          "internalType": "address",
          "name": "",
          "type": "address"
        },
        {
          "internalType": "address",
          "name": "",
          "type": "address"
        },
        {
          "internalType": "bool",
          "name": "",
          "type": "bool"
        },
        {
          "internalType": "uint256",
          "name": "",
          "type": "uint256"
        },
        {
          "internalType": "uint256",
          "name": "",
          "type": "uint256"
        }
      ],
      "stateMutability": "view",
      "type": "function",
      "constant": true
    },
    {
      "inputs": [
        {
          "internalType": "uint256",
          "name": "_productId",
          "type": "uint256"
        }
      ],
      "name": "releaseAmountToSeller",
      "outputs": [],
      "stateMutability": "nonpayable",
      "type": "function"
    },
    {
      "inputs": [
        {
          "internalType": "uint256",
          "name": "_productId",
          "type": "uint256"
        }
      ],
      "name": "refundAmountToBuyer",
      "outputs": [],
      "stateMutability": "nonpayable",
      "type": "function"
    },
    {
      "inputs": [
        {
          "internalType": "string",
          "name": "_amount",
          "type": "string"
        },
        {
          "internalType": "string",
          "name": "_secret",
          "type": "string"
        }
      ],
      "name": "keccak",
      "outputs": [
        {
          "internalType": "bytes32",
          "name": "",
          "type": "bytes32"
        }
      ],
      "stateMutability": "pure",
      "type": "function",
      "constant": true
    }
  ],
  "bytecode": "0x608060405234801561001057600080fd5b5060008081905550613c01806100276000396000f3fe608060405260043610620000d45760003560e01c8063c897d5a6116200008b578063e80838631162000061578063e808386314620002f7578063ea1591bb1462000325578063f0d10d01146200035b578063f85f196e146200039f57620000d4565b8063c897d5a61462000253578063cc352db71462000283578063ce818ea914620002b157620000d4565b80630e1c88d414620000d957806328e3d19014620001075780634389754a146200014b57806383560525146200018f5780639a3a7c6914620001d8578063b9db15b41462000206575b600080fd5b348015620000e657600080fd5b50620001056004803603810190620000ff919062001c0e565b620003cd565b005b3480156200011457600080fd5b506200013360048036038101906200012d919062001d72565b620005f1565b60405162000142919062001db5565b60405180910390f35b3480156200015857600080fd5b5062000177600480360381019062000171919062001d72565b62000686565b60405162000186919062001e17565b60405180910390f35b3480156200019c57600080fd5b50620001bb6004803603810190620001b5919062001d72565b620006c3565b604051620001cf9695949392919062001e51565b60405180910390f35b348015620001e557600080fd5b50620002046004803603810190620001fe919062001d72565b62000786565b005b3480156200021357600080fd5b506200023260048036038101906200022c919062001d72565b6200082b565b6040516200024a9a9998979695949392919062002018565b60405180910390f35b3480156200026057600080fd5b506200026b62000b7b565b6040516200027a919062001db5565b60405180910390f35b3480156200029057600080fd5b50620002af6004803603810190620002a9919062001d72565b62000b81565b005b348015620002be57600080fd5b50620002dd6004803603810190620002d7919062001d72565b62000c26565b604051620002ee93929190620020e4565b60405180910390f35b3480156200030457600080fd5b506200032360048036038101906200031d919062001d72565b62000cee565b005b6200034360048036038101906200033d91906200215c565b620010d6565b604051620003529190620021a3565b60405180910390f35b3480156200036857600080fd5b50620003876004803603810190620003819190620021c0565b62001456565b60405162000396919062002256565b60405180910390f35b348015620003ac57600080fd5b50620003cb6004803603810190620003c5919062002273565b62001490565b005b828410620003da57600080fd5b6001600080828254620003ee91906200233c565b925050819055506000600160003373ffffffffffffffffffffffffffffffffffffffff1673ffffffffffffffffffffffffffffffffffffffff1681526020019081526020016000206000805481526020019081526020016000209050600054816000018190555088816001019081620004689190620025ad565b50878160020190816200047c9190620025ad565b5086816003019081620004909190620025ad565b5085816004019081620004a49190620025ad565b50848160050181905550838160060181905550620004c28362001962565b8160070181905550600081600c0160006101000a81548160ff02191690836002811115620004f557620004f462001f47565b5b021790555081600181111562000510576200050f62001f47565b5b81600c0160016101000a81548160ff0219169083600181111562000539576200053862001f47565b5b021790555033600260008054815260200190815260200160002060006101000a81548173ffffffffffffffffffffffffffffffffffffffff021916908373ffffffffffffffffffffffffffffffffffffffff1602179055507f7246fb63256d85d227c3255d8d4f49ff574a42ec76096803c81c0d6b58ac5a716000548a8a8a8a8a8a620005c68b62001962565b8a604051620005de9998979695949392919062002694565b60405180910390a1505050505050505050565b600080600160006002600086815260200190815260200160002060009054906101000a900473ffffffffffffffffffffffffffffffffffffffff1673ffffffffffffffffffffffffffffffffffffffff1673ffffffffffffffffffffffffffffffffffffffff1681526020019081526020016000206000848152602001908152602001600020905080600b0154915050919050565b60006003600083815260200190815260200160002060009054906101000a900473ffffffffffffffffffffffffffffffffffffffff169050919050565b6000806000806000806003600088815260200190815260200160002060009054906101000a900473ffffffffffffffffffffffffffffffffffffffff1673ffffffffffffffffffffffffffffffffffffffff1663f3d259046040518163ffffffff1660e01b815260040160c060405180830381865afa1580156200074b573d6000803e3d6000fd5b505050506040513d601f19601f82011682018060405250810190620007719190620027c8565b95509550955095509550955091939550919395565b6003600082815260200190815260200160002060009054906101000a900473ffffffffffffffffffffffffffffffffffffffff1673ffffffffffffffffffffffffffffffffffffffff166358aad10b336040518263ffffffff1660e01b8152600401620007f4919062001e17565b600060405180830381600087803b1580156200080f57600080fd5b505af115801562000824573d6000803e3d6000fd5b5050505050565b600060608060608060008060008060008060016000600260008f815260200190815260200160002060009054906101000a900473ffffffffffffffffffffffffffffffffffffffff1673ffffffffffffffffffffffffffffffffffffffff1673ffffffffffffffffffffffffffffffffffffffff16815260200190815260200160002060008d8152602001908152602001600020905080600001548160010182600201836003018460040185600501548660060154876007015488600c0160009054906101000a900460ff1689600c0160019054906101000a900460ff168880546200091790620023a6565b80601f01602080910402602001604051908101604052809291908181526020018280546200094590620023a6565b8015620009965780601f106200096a5761010080835404028352916020019162000996565b820191906000526020600020905b8154815290600101906020018083116200097857829003601f168201915b50505050509850878054620009ab90620023a6565b80601f0160208091040260200160405190810160405280929190818152602001828054620009d990620023a6565b801562000a2a5780601f10620009fe5761010080835404028352916020019162000a2a565b820191906000526020600020905b81548152906001019060200180831162000a0c57829003601f168201915b5050505050975086805462000a3f90620023a6565b80601f016020809104026020016040519081016040528092919081815260200182805462000a6d90620023a6565b801562000abe5780601f1062000a925761010080835404028352916020019162000abe565b820191906000526020600020905b81548152906001019060200180831162000aa057829003601f168201915b5050505050965085805462000ad390620023a6565b80601f016020809104026020016040519081016040528092919081815260200182805462000b0190620023a6565b801562000b525780601f1062000b265761010080835404028352916020019162000b52565b820191906000526020600020905b81548152906001019060200180831162000b3457829003601f168201915b505050505095509a509a509a509a509a509a509a509a509a509a50509193959799509193959799565b60005481565b6003600082815260200190815260200160002060009054906101000a900473ffffffffffffffffffffffffffffffffffffffff1673ffffffffffffffffffffffffffffffffffffffff1663a97d1b10336040518263ffffffff1660e01b815260040162000bef919062001e17565b600060405180830381600087803b15801562000c0a57600080fd5b505af115801562000c1f573d6000803e3d6000fd5b5050505050565b600080600080600160006002600088815260200190815260200160002060009054906101000a900473ffffffffffffffffffffffffffffffffffffffff1673ffffffffffffffffffffffffffffffffffffffff1673ffffffffffffffffffffffffffffffffffffffff168152602001908152602001600020600086815260200190815260200160002090508060080160009054906101000a900473ffffffffffffffffffffffffffffffffffffffff16816009015482600a0154935093509350509193909250565b6000600160006002600085815260200190815260200160002060009054906101000a900473ffffffffffffffffffffffffffffffffffffffff1673ffffffffffffffffffffffffffffffffffffffff1673ffffffffffffffffffffffffffffffffffffffff168152602001908152602001600020600083815260200190815260200160002090508060060154421162000d8657600080fd5b6000600281111562000d9d5762000d9c62001f47565b5b81600c0160009054906101000a900460ff16600281111562000dc45762000dc362001f47565b5b1462000dcf57600080fd5b3373ffffffffffffffffffffffffffffffffffffffff168160080160009054906101000a900473ffffffffffffffffffffffffffffffffffffffff1673ffffffffffffffffffffffffffffffffffffffff160362000e2c57600080fd5b3373ffffffffffffffffffffffffffffffffffffffff166002600084815260200190815260200160002060009054906101000a900473ffffffffffffffffffffffffffffffffffffffff1673ffffffffffffffffffffffffffffffffffffffff160362000e9857600080fd5b600073ffffffffffffffffffffffffffffffffffffffff168160080160009054906101000a900473ffffffffffffffffffffffffffffffffffffffff1673ffffffffffffffffffffffffffffffffffffffff160362000f2757600281600c0160006101000a81548160ff0219169083600281111562000f1c5762000f1b62001f47565b5b0217905550620010d2565b600081600a0154838360080160009054906101000a900473ffffffffffffffffffffffffffffffffffffffff166002600087815260200190815260200160002060009054906101000a900473ffffffffffffffffffffffffffffffffffffffff163360405162000f979062001a4f565b62000fa6949392919062002864565b6040518091039082f090508015801562000fc4573d6000803e3d6000fd5b509050806003600085815260200190815260200160002060006101000a81548173ffffffffffffffffffffffffffffffffffffffff021916908373ffffffffffffffffffffffffffffffffffffffff160217905550600182600c0160006101000a81548160ff0219169083600281111562001044576200104362001f47565b5b0217905550600082600a01548360090154620010619190620028b1565b90508260080160009054906101000a900473ffffffffffffffffffffffffffffffffffffffff1673ffffffffffffffffffffffffffffffffffffffff166108fc829081150290604051600060405180830381858888f19350505050158015620010ce573d6000803e3d6000fd5b5050505b5050565b600080600160006002600087815260200190815260200160002060009054906101000a900473ffffffffffffffffffffffffffffffffffffffff1673ffffffffffffffffffffffffffffffffffffffff1673ffffffffffffffffffffffffffffffffffffffff168152602001908152602001600020600085815260200190815260200160002090508060050154421015620011a8576040517f08c379a00000000000000000000000000000000000000000000000000000000081526004016200119f906200293c565b60405180910390fd5b8060060154421115620011f2576040517f08c379a0000000000000000000000000000000000000000000000000000000008152600401620011e990620029ae565b60405180910390fd5b80600701543410156200123c576040517f08c379a0000000000000000000000000000000000000000000000000000000008152600401620012339062002a20565b60405180910390fd5b600073ffffffffffffffffffffffffffffffffffffffff1681600d0160003373ffffffffffffffffffffffffffffffffffffffff1673ffffffffffffffffffffffffffffffffffffffff168152602001908152602001600020600085815260200190815260200160002060000160009054906101000a900473ffffffffffffffffffffffffffffffffffffffff1673ffffffffffffffffffffffffffffffffffffffff161462001323576040517f08c379a00000000000000000000000000000000000000000000000000000000081526004016200131a9062002a92565b60405180910390fd5b60405180608001604052803373ffffffffffffffffffffffffffffffffffffffff1681526020018581526020013481526020016000151581525081600d0160003373ffffffffffffffffffffffffffffffffffffffff1673ffffffffffffffffffffffffffffffffffffffff168152602001908152602001600020600085815260200190815260200160002060008201518160000160006101000a81548173ffffffffffffffffffffffffffffffffffffffff021916908373ffffffffffffffffffffffffffffffffffffffff160217905550602082015181600101556040820151816002015560608201518160030160006101000a81548160ff021916908315150217905550905050600181600b0160008282546200144491906200233c565b92505081905550600191505092915050565b60008083836040516020016200146e92919062002ab4565b6040516020818303038152906040528051906020012090508091505092915050565b6000600160006002600087815260200190815260200160002060009054906101000a900473ffffffffffffffffffffffffffffffffffffffff1673ffffffffffffffffffffffffffffffffffffffff1673ffffffffffffffffffffffffffffffffffffffff16815260200190815260200160002060008581526020019081526020016000209050806005015442116200152857600080fd5b600083836040516020016200153f92919062002ab4565b604051602081830303815290604052805190602001209050600082600d0160003373ffffffffffffffffffffffffffffffffffffffff1673ffffffffffffffffffffffffffffffffffffffff16815260200190815260200160002060008381526020019081526020016000206040518060800160405290816000820160009054906101000a900473ffffffffffffffffffffffffffffffffffffffff1673ffffffffffffffffffffffffffffffffffffffff1673ffffffffffffffffffffffffffffffffffffffff16815260200160018201548152602001600282015481526020016003820160009054906101000a900460ff1615151515815250509050600073ffffffffffffffffffffffffffffffffffffffff16816000015173ffffffffffffffffffffffffffffffffffffffff16116200167b57600080fd5b6000151581606001511515146200169157600080fd5b6000806200169f8762001962565b905060008360400151905081811015620016bc5780925062001896565b600073ffffffffffffffffffffffffffffffffffffffff168660080160009054906101000a900473ffffffffffffffffffffffffffffffffffffffff1673ffffffffffffffffffffffffffffffffffffffff16036200178457338660080160006101000a81548173ffffffffffffffffffffffffffffffffffffffff021916908373ffffffffffffffffffffffffffffffffffffffff160217905550818660090181905550856007015486600a018190555081816200177c9190620028b1565b925062001895565b85600901548211156200187057856009015486600a01819055508560080160009054906101000a900473ffffffffffffffffffffffffffffffffffffffff1673ffffffffffffffffffffffffffffffffffffffff166108fc87600901549081150290604051600060405180830381858888f193505050501580156200180d573d6000803e3d6000fd5b50338660080160006101000a81548173ffffffffffffffffffffffffffffffffffffffff021916908373ffffffffffffffffffffffffffffffffffffffff1602179055508186600901819055508181620018689190620028b1565b925062001894565b85600a01548211156200188f578186600a018190555081925062001893565b8192505b5b5b5b600186600d0160003373ffffffffffffffffffffffffffffffffffffffff1673ffffffffffffffffffffffffffffffffffffffff168152602001908152602001600020600087815260200190815260200160002060030160006101000a81548160ff021916908315150217905550600083111562001957573373ffffffffffffffffffffffffffffffffffffffff166108fc849081150290604051600060405180830381858888f1935050505015801562001955573d6000803e3d6000fd5b505b505050505050505050565b6000808290506000805b825181101562001a445760308382815181106200198e576200198d62002aef565b5b602001015160f81c60f81b60f81c60ff1610158015620019d557506039838281518110620019c157620019c062002aef565b5b602001015160f81c60f81b60f81c60ff1611155b1562001a2e576030838281518110620019f357620019f262002aef565b5b602001015160f81c60f81b60f81c62001a0d919062002b2b565b60ff16600a8362001a1f919062002b67565b62001a2b91906200233c565b91505b808062001a3b9062002bb2565b9150506200196c565b508092505050919050565b610fcc8062002c0083390190565b6000604051905090565b600080fd5b600080fd5b600080fd5b600080fd5b6000601f19601f8301169050919050565b7f4e487b7100000000000000000000000000000000000000000000000000000000600052604160045260246000fd5b62001ac68262001a7b565b810181811067ffffffffffffffff8211171562001ae85762001ae762001a8c565b5b80604052505050565b600062001afd62001a5d565b905062001b0b828262001abb565b919050565b600067ffffffffffffffff82111562001b2e5762001b2d62001a8c565b5b62001b398262001a7b565b9050602081019050919050565b82818337600083830152505050565b600062001b6c62001b668462001b10565b62001af1565b90508281526020810184848401111562001b8b5762001b8a62001a76565b5b62001b9884828562001b46565b509392505050565b600082601f83011262001bb85762001bb762001a71565b5b813562001bca84826020860162001b55565b91505092915050565b6000819050919050565b62001be88162001bd3565b811462001bf457600080fd5b50565b60008135905062001c088162001bdd565b92915050565b600080600080600080600080610100898b03121562001c325762001c3162001a67565b5b600089013567ffffffffffffffff81111562001c535762001c5262001a6c565b5b62001c618b828c0162001ba0565b985050602089013567ffffffffffffffff81111562001c855762001c8462001a6c565b5b62001c938b828c0162001ba0565b975050604089013567ffffffffffffffff81111562001cb75762001cb662001a6c565b5b62001cc58b828c0162001ba0565b965050606089013567ffffffffffffffff81111562001ce95762001ce862001a6c565b5b62001cf78b828c0162001ba0565b955050608062001d0a8b828c0162001bf7565b94505060a062001d1d8b828c0162001bf7565b93505060c089013567ffffffffffffffff81111562001d415762001d4062001a6c565b5b62001d4f8b828c0162001ba0565b92505060e062001d628b828c0162001bf7565b9150509295985092959890939650565b60006020828403121562001d8b5762001d8a62001a67565b5b600062001d9b8482850162001bf7565b91505092915050565b62001daf8162001bd3565b82525050565b600060208201905062001dcc600083018462001da4565b92915050565b600073ffffffffffffffffffffffffffffffffffffffff82169050919050565b600062001dff8262001dd2565b9050919050565b62001e118162001df2565b82525050565b600060208201905062001e2e600083018462001e06565b92915050565b60008115159050919050565b62001e4b8162001e34565b82525050565b600060c08201905062001e68600083018962001e06565b62001e77602083018862001e06565b62001e86604083018762001e06565b62001e95606083018662001e40565b62001ea4608083018562001da4565b62001eb360a083018462001da4565b979650505050505050565b600081519050919050565b600082825260208201905092915050565b60005b8381101562001efa57808201518184015260208101905062001edd565b60008484015250505050565b600062001f138262001ebe565b62001f1f818562001ec9565b935062001f3181856020860162001eda565b62001f3c8162001a7b565b840191505092915050565b7f4e487b7100000000000000000000000000000000000000000000000000000000600052602160045260246000fd5b6003811062001f8a5762001f8962001f47565b5b50565b600081905062001f9d8262001f76565b919050565b600062001faf8262001f8d565b9050919050565b62001fc18162001fa2565b82525050565b6002811062001fdb5762001fda62001f47565b5b50565b600081905062001fee8262001fc7565b919050565b6000620020008262001fde565b9050919050565b620020128162001ff3565b82525050565b60006101408201905062002030600083018d62001da4565b818103602083015262002044818c62001f06565b905081810360408301526200205a818b62001f06565b9050818103606083015262002070818a62001f06565b9050818103608083015262002086818962001f06565b90506200209760a083018862001da4565b620020a660c083018762001da4565b620020b560e083018662001da4565b620020c561010083018562001fb6565b620020d561012083018462002007565b9b9a5050505050505050505050565b6000606082019050620020fb600083018662001e06565b6200210a602083018562001da4565b62002119604083018462001da4565b949350505050565b6000819050919050565b620021368162002121565b81146200214257600080fd5b50565b60008135905062002156816200212b565b92915050565b6000806040838503121562002176576200217562001a67565b5b6000620021868582860162001bf7565b9250506020620021998582860162002145565b9150509250929050565b6000602082019050620021ba600083018462001e40565b92915050565b60008060408385031215620021da57620021d962001a67565b5b600083013567ffffffffffffffff811115620021fb57620021fa62001a6c565b5b620022098582860162001ba0565b925050602083013567ffffffffffffffff8111156200222d576200222c62001a6c565b5b6200223b8582860162001ba0565b9150509250929050565b620022508162002121565b82525050565b60006020820190506200226d600083018462002245565b92915050565b6000806000606084860312156200228f576200228e62001a67565b5b60006200229f8682870162001bf7565b935050602084013567ffffffffffffffff811115620022c357620022c262001a6c565b5b620022d18682870162001ba0565b925050604084013567ffffffffffffffff811115620022f557620022f462001a6c565b5b620023038682870162001ba0565b9150509250925092565b7f4e487b7100000000000000000000000000000000000000000000000000000000600052601160045260246000fd5b6000620023498262001bd3565b9150620023568362001bd3565b92508282019050808211156200237157620023706200230d565b5b92915050565b7f4e487b7100000000000000000000000000000000000000000000000000000000600052602260045260246000fd5b60006002820490506001821680620023bf57607f821691505b602082108103620023d557620023d462002377565b5b50919050565b60008190508160005260206000209050919050565b60006020601f8301049050919050565b600082821b905092915050565b6000600883026200243f7fffffffffffffffffffffffffffffffffffffffffffffffffffffffffffffffff8262002400565b6200244b868362002400565b95508019841693508086168417925050509392505050565b6000819050919050565b60006200248e62002488620024828462001bd3565b62002463565b62001bd3565b9050919050565b6000819050919050565b620024aa836200246d565b620024c2620024b98262002495565b8484546200240d565b825550505050565b600090565b620024d9620024ca565b620024e68184846200249f565b505050565b5b818110156200250e5762002502600082620024cf565b600181019050620024ec565b5050565b601f8211156200255d576200252781620023db565b6200253284620023f0565b8101602085101562002542578190505b6200255a6200255185620023f0565b830182620024eb565b50505b505050565b600082821c905092915050565b6000620025826000198460080262002562565b1980831691505092915050565b60006200259d83836200256f565b9150826002028217905092915050565b620025b88262001ebe565b67ffffffffffffffff811115620025d457620025d362001a8c565b5b620025e08254620023a6565b620025ed82828562002512565b600060209050601f83116001811462002625576000841562002610578287015190505b6200261c85826200258f565b8655506200268c565b601f1984166200263586620023db565b60005b828110156200265f5784890151825560018201915060208501945060208101905062002638565b868310156200267f57848901516200267b601f8916826200256f565b8355505b6001600288020188555050505b505050505050565b600061012082019050620026ac600083018c62001da4565b8181036020830152620026c0818b62001f06565b90508181036040830152620026d6818a62001f06565b90508181036060830152620026ec818962001f06565b9050818103608083015262002702818862001f06565b90506200271360a083018762001da4565b6200272260c083018662001da4565b6200273160e083018562001da4565b6200274161010083018462001da4565b9a9950505050505050505050565b6200275a8162001df2565b81146200276657600080fd5b50565b6000815190506200277a816200274f565b92915050565b6200278b8162001e34565b81146200279757600080fd5b50565b600081519050620027ab8162002780565b92915050565b600081519050620027c28162001bdd565b92915050565b60008060008060008060c08789031215620027e857620027e762001a67565b5b6000620027f889828a0162002769565b96505060206200280b89828a0162002769565b95505060406200281e89828a0162002769565b94505060606200283189828a016200279a565b93505060806200284489828a01620027b1565b92505060a06200285789828a01620027b1565b9150509295509295509295565b60006080820190506200287b600083018762001da4565b6200288a602083018662001e06565b62002899604083018562001e06565b620028a8606083018462001e06565b95945050505050565b6000620028be8262001bd3565b9150620028cb8362001bd3565b9250828203905081811115620028e657620028e56200230d565b5b92915050565b7f3e00000000000000000000000000000000000000000000000000000000000000600082015250565b60006200292460018362001ec9565b91506200293182620028ec565b602082019050919050565b60006020820190508181036000830152620029578162002915565b9050919050565b7f3c00000000000000000000000000000000000000000000000000000000000000600082015250565b60006200299660018362001ec9565b9150620029a3826200295e565b602082019050919050565b60006020820190508181036000830152620029c98162002987565b9050919050565b7f3d00000000000000000000000000000000000000000000000000000000000000600082015250565b600062002a0860018362001ec9565b915062002a1582620029d0565b602082019050919050565b6000602082019050818103600083015262002a3b81620029f9565b9050919050565b7f3d3d000000000000000000000000000000000000000000000000000000000000600082015250565b600062002a7a60028362001ec9565b915062002a878262002a42565b602082019050919050565b6000602082019050818103600083015262002aad8162002a6b565b9050919050565b6000604082019050818103600083015262002ad0818562001f06565b9050818103602083015262002ae6818462001f06565b90509392505050565b7f4e487b7100000000000000000000000000000000000000000000000000000000600052603260045260246000fd5b600060ff82169050919050565b600062002b388262002b1e565b915062002b458362002b1e565b9250828203905060ff81111562002b615762002b606200230d565b5b92915050565b600062002b748262001bd3565b915062002b818362001bd3565b925082820262002b918162001bd3565b9150828204841483151762002bab5762002baa6200230d565b5b5092915050565b600062002bbf8262001bd3565b91507fffffffffffffffffffffffffffffffffffffffffffffffffffffffffffffffff820362002bf45762002bf36200230d565b5b60018201905091905056fe608060405260405162000fcc38038062000fcc833981810160405281019062000029919062000203565b8360008190555082600160006101000a81548173ffffffffffffffffffffffffffffffffffffffff021916908373ffffffffffffffffffffffffffffffffffffffff16021790555081600260006101000a81548173ffffffffffffffffffffffffffffffffffffffff021916908373ffffffffffffffffffffffffffffffffffffffff16021790555080600360006101000a81548173ffffffffffffffffffffffffffffffffffffffff021916908373ffffffffffffffffffffffffffffffffffffffff160217905550346004819055506000600560006101000a81548160ff0219169083151502179055507f7527d0b8d16913563c5afb8fa2dc5b6257355ff7dfbefbdcfc1cf812a0f97c5e848484846040516200014c949392919062000297565b60405180910390a150505050620002e4565b600080fd5b6000819050919050565b620001788162000163565b81146200018457600080fd5b50565b60008151905062000198816200016d565b92915050565b600073ffffffffffffffffffffffffffffffffffffffff82169050919050565b6000620001cb826200019e565b9050919050565b620001dd81620001be565b8114620001e957600080fd5b50565b600081519050620001fd81620001d2565b92915050565b6000806000806080858703121562000220576200021f6200015e565b5b6000620002308782880162000187565b94505060206200024387828801620001ec565b93505060406200025687828801620001ec565b92505060606200026987828801620001ec565b91505092959194509250565b620002808162000163565b82525050565b6200029181620001be565b82525050565b6000608082019050620002ae600083018762000275565b620002bd602083018662000286565b620002cc604083018562000286565b620002db606083018462000286565b95945050505050565b610cd880620002f46000396000f3fe608060405234801561001057600080fd5b50600436106100a95760003560e01c8063aa8c217c11610071578063aa8c217c14610140578063b8d08db21461015e578063c5ce39111461017c578063d1a52e301461019a578063f3d25904146101b8578063fe25e00a146101db576100a9565b806308551a53146100ae5780630bda4dbf146100cc57806358aad10b146100ea5780637150d8ae14610106578063a97d1b1014610124575b600080fd5b6100b66101f9565b6040516100c391906109a3565b60405180910390f35b6100d461021f565b6040516100e191906109d7565b60405180910390f35b61010460048036038101906100ff9190610a23565b610225565b005b61010e61053d565b60405161011b91906109a3565b60405180910390f35b61013e60048036038101906101399190610a23565b610563565b005b61014861087b565b60405161015591906109d7565b60405180910390f35b610166610881565b60405161017391906109d7565b60405180910390f35b610184610887565b60405161019191906109d7565b60405180910390f35b6101a261088d565b6040516101af9190610a6b565b60405180910390f35b6101c06108a0565b6040516101d296959493929190610a86565b60405180910390f35b6101e361093c565b6040516101f091906109a3565b60405180910390f35b600260009054906101000a900473ffffffffffffffffffffffffffffffffffffffff1681565b60095481565b600560009054906101000a900460ff161561023f57600080fd5b600160009054906101000a900473ffffffffffffffffffffffffffffffffffffffff1673ffffffffffffffffffffffffffffffffffffffff168173ffffffffffffffffffffffffffffffffffffffff1614806102e85750600260009054906101000a900473ffffffffffffffffffffffffffffffffffffffff1673ffffffffffffffffffffffffffffffffffffffff168173ffffffffffffffffffffffffffffffffffffffff16145b806103405750600360009054906101000a900473ffffffffffffffffffffffffffffffffffffffff1673ffffffffffffffffffffffffffffffffffffffff168173ffffffffffffffffffffffffffffffffffffffff16145b61034957600080fd5b600660008273ffffffffffffffffffffffffffffffffffffffff1673ffffffffffffffffffffffffffffffffffffffff16815260200190815260200160002060009054906101000a900460ff16610448576001600660008373ffffffffffffffffffffffffffffffffffffffff1673ffffffffffffffffffffffffffffffffffffffff16815260200190815260200160002060006101000a81548160ff0219169083151502179055506001600760008282546104059190610b16565b925050819055507fe31e37941fee7dca6bb1597da71841499d8cd0dfc5553e0889f6d1ca6038ce966000548260405161043f929190610ba7565b60405180910390a15b60026007540361053a57600260009054906101000a900473ffffffffffffffffffffffffffffffffffffffff1673ffffffffffffffffffffffffffffffffffffffff166108fc6004549081150290604051600060405180830381858888f193505050501580156104bc573d6000803e3d6000fd5b506001600560006101000a81548160ff0219169083151502179055507fdde1058856b8611b1f49ef2ebaef10c0441e48e8a6cbbec1ebdcbfb1862b57b4600054600454600260009054906101000a900473ffffffffffffffffffffffffffffffffffffffff1660405161053193929190610be3565b60405180910390a15b50565b600160009054906101000a900473ffffffffffffffffffffffffffffffffffffffff1681565b600560009054906101000a900460ff161561057d57600080fd5b600160009054906101000a900473ffffffffffffffffffffffffffffffffffffffff1673ffffffffffffffffffffffffffffffffffffffff168173ffffffffffffffffffffffffffffffffffffffff1614806106265750600260009054906101000a900473ffffffffffffffffffffffffffffffffffffffff1673ffffffffffffffffffffffffffffffffffffffff168173ffffffffffffffffffffffffffffffffffffffff16145b8061067e5750600360009054906101000a900473ffffffffffffffffffffffffffffffffffffffff1673ffffffffffffffffffffffffffffffffffffffff168173ffffffffffffffffffffffffffffffffffffffff16145b61068757600080fd5b600860008273ffffffffffffffffffffffffffffffffffffffff1673ffffffffffffffffffffffffffffffffffffffff16815260200190815260200160002060009054906101000a900460ff16610786576001600860008373ffffffffffffffffffffffffffffffffffffffff1673ffffffffffffffffffffffffffffffffffffffff16815260200190815260200160002060006101000a81548160ff0219169083151502179055506001600960008282546107439190610b16565b925050819055507fe31e37941fee7dca6bb1597da71841499d8cd0dfc5553e0889f6d1ca6038ce966000548260405161077d929190610c66565b60405180910390a15b60026009540361087857600160009054906101000a900473ffffffffffffffffffffffffffffffffffffffff1673ffffffffffffffffffffffffffffffffffffffff166108fc6004549081150290604051600060405180830381858888f193505050501580156107fa573d6000803e3d6000fd5b506001600560006101000a81548160ff0219169083151502179055507fdde1058856b8611b1f49ef2ebaef10c0441e48e8a6cbbec1ebdcbfb1862b57b4600054600454600160009054906101000a900473ffffffffffffffffffffffffffffffffffffffff1660405161086f93929190610be3565b60405180910390a15b50565b60045481565b60075481565b60005481565b600560009054906101000a900460ff1681565b600080600080600080600160009054906101000a900473ffffffffffffffffffffffffffffffffffffffff16600260009054906101000a900473ffffffffffffffffffffffffffffffffffffffff16600360009054906101000a900473ffffffffffffffffffffffffffffffffffffffff16600560009054906101000a900460ff16600754600954955095509550955095509550909192939495565b600360009054906101000a900473ffffffffffffffffffffffffffffffffffffffff1681565b600073ffffffffffffffffffffffffffffffffffffffff82169050919050565b600061098d82610962565b9050919050565b61099d81610982565b82525050565b60006020820190506109b86000830184610994565b92915050565b6000819050919050565b6109d1816109be565b82525050565b60006020820190506109ec60008301846109c8565b92915050565b600080fd5b610a0081610982565b8114610a0b57600080fd5b50565b600081359050610a1d816109f7565b92915050565b600060208284031215610a3957610a386109f2565b5b6000610a4784828501610a0e565b91505092915050565b60008115159050919050565b610a6581610a50565b82525050565b6000602082019050610a806000830184610a5c565b92915050565b600060c082019050610a9b6000830189610994565b610aa86020830188610994565b610ab56040830187610994565b610ac26060830186610a5c565b610acf60808301856109c8565b610adc60a08301846109c8565b979650505050505050565b7f4e487b7100000000000000000000000000000000000000000000000000000000600052601160045260246000fd5b6000610b21826109be565b9150610b2c836109be565b9250828201905080821115610b4457610b43610ae7565b5b92915050565b600082825260208201905092915050565b7f72656c6561736500000000000000000000000000000000000000000000000000600082015250565b6000610b91600783610b4a565b9150610b9c82610b5b565b602082019050919050565b6000606082019050610bbc60008301856109c8565b8181036020830152610bcd81610b84565b9050610bdc6040830184610994565b9392505050565b6000606082019050610bf860008301866109c8565b610c0560208301856109c8565b610c126040830184610994565b949350505050565b7f726566756e640000000000000000000000000000000000000000000000000000600082015250565b6000610c50600683610b4a565b9150610c5b82610c1a565b602082019050919050565b6000606082019050610c7b60008301856109c8565b8181036020830152610c8c81610c43565b9050610c9b6040830184610994565b939250505056fea2646970667358221220414ad0c76d2e8b033deab48f940b512ccc3ec580d19f5e8f930d68516c63009464736f6c63430008110033a264697066735822122054215a61aed31205776518f9083e42c5338a8e59105d5c5b4b4fd6c847ea6e8e64736f6c63430008110033",
  "immutableReferences": {},
  "source": "// SPDX-License-Identifier: MIT\npragma solidity ^0.8.17;\n\nimport \"../contracts/Escrow.sol\";\n\ncontract EcommerceStore {\n    // \n    enum ProductStatus {\n        Open,\n        Sold,\n        Unsold\n    }\n\t\n    enum ProductCondition {\n        New,\n        Used\n    }\n\n    // \n    uint256 public productIndex;\n    // \n    mapping(address => mapping(uint256 => Product)) stores;\n    // ID\n    mapping(uint256 => address) productIdInStore;\n\n    mapping(uint256 => address) productEscrow;\n\n    // \n    struct Product {\n        // ID\n        uint256 id;\n        // \n        string name;\n        // \n        string category;\n        // \n        string imageLink;\n        // \n        string descLink;\n        // \n        uint256 auctionStartTime;\n        // \n        uint256 auctionEndTime;\n        // \n        uint256 startPrice;\n        // \n        address highestBidder;\n        // \n        uint256 highestBid;\n        // \n        uint256 secondHighestBid;\n        // \n        uint256 totalBids;\n        // \n        ProductStatus status;\n        ProductCondition condition;\n        // \n        mapping(address => mapping(bytes32 => Bid)) bids;\n    }\n\n    // \n    struct Bid {\n        address bidder;\n        uint256 productId;\n        uint256 value;\n        bool revealed;\n    }\n\n\t// \n    event NewProduct(\n        uint256 _productId,\n        string _name,\n        string _category,\n        string _imageLink,\n        string _descLink,\n        uint256 _auctionStartTime,\n        uint256 _auctionEndTime,\n        uint256 _startPrice,\n        uint256 _productCondition\n    );\n\n    constructor() {\n        productIndex = 0;\n    }\n\n    //\n    function addProductToStore(\n        string memory _name,\n        string memory _category,\n        string memory _imageLink,\n        string memory _descLink,\n        uint256 _auctionStartTime,\n        uint256 _auctionEndTime,\n        string memory _startPrice,\n        uint256 _productCondition\n    ) public {\n        require(_auctionStartTime < _auctionEndTime);\n        productIndex += 1;\n        // msg.sender\n        Product storage product = stores[msg.sender][productIndex];\n        product.id = productIndex;\n        product.name = _name;\n        product.category = _category;\n        product.imageLink = _imageLink;\n        product.descLink = _descLink;\n        product.auctionStartTime = _auctionStartTime;\n        product.auctionEndTime = _auctionEndTime;\n        product.startPrice = stringToUint(_startPrice);\n        product.status = ProductStatus.Open;\n        product.condition = ProductCondition(_productCondition);\n        // ID\n        productIdInStore[productIndex] = msg.sender;\n\t\temit NewProduct(productIndex, _name, _category, _imageLink, _descLink, _auctionStartTime, _auctionEndTime, stringToUint(_startPrice), _productCondition);\n    }\n\n    // \n    function getProduct(uint256 _productId)\n        public\n        view\n        returns (\n            uint256,\n            string memory,\n            string memory,\n            string memory,\n            string memory,\n            uint256,\n            uint256,\n            uint256,\n            ProductStatus,\n            ProductCondition\n        )\n    {\n        Product storage product = stores[productIdInStore[_productId]][\n            _productId\n        ];\n        return (\n            product.id,\n            product.name,\n            product.category,\n            product.imageLink,\n            product.descLink,\n            product.auctionStartTime,\n            product.auctionEndTime,\n            product.startPrice,\n            product.status,\n            product.condition\n        );\n    }\n\n    // \n    function bid(uint256 _productId, bytes32 _bid)\n        public\n        payable\n        returns (bool)\n    {\n        Product storage product = stores[productIdInStore[_productId]][\n            _productId\n        ];\n        require(block.timestamp >= product.auctionStartTime, \">\");\n        require(block.timestamp <= product.auctionEndTime, \"<\");\n        require(msg.value >= product.startPrice, \"=\");\n        require(\n            product.bids[msg.sender][_bid].bidder ==\n                0x0000000000000000000000000000000000000000,\n            \"==\"\n        );\n        product.bids[msg.sender][_bid] = Bid(\n            msg.sender,\n            _productId,\n            msg.value,\n            false\n        );\n        product.totalBids += 1;\n        return true;\n    }\n\n    // \n    function revealBid(\n        uint256 _productId,\n        string memory _amount,\n        string memory _secret\n    ) public {\n        Product storage product = stores[productIdInStore[_productId]][\n            _productId\n        ];\n        require(block.timestamp > product.auctionStartTime);\n        // keccak256\n        bytes32 sealedBid = keccak256(abi.encode(_amount, _secret));\n        Bid memory bidInfo = product.bids[msg.sender][sealedBid];\n        require(bidInfo.bidder > 0x0000000000000000000000000000000000000000);\n        require(bidInfo.revealed == false);\n        // \n        uint256 refund;\n        // \n        uint256 amount = stringToUint(_amount);\n\n        uint256 bidInfov = bidInfo.value;\n        // \n        if (bidInfov < amount) {\n            refund = bidInfov;\n        } else {\n            // \n            if (\n                address(product.highestBidder) ==\n                0x0000000000000000000000000000000000000000\n            ) {\n                product.highestBidder = msg.sender;\n                product.highestBid = amount;\n                product.secondHighestBid = product.startPrice;\n                refund = bidInfov - amount;\n            } else {\n                // \n                if (amount > product.highestBid) {\n                    product.secondHighestBid = product.highestBid;\n                    payable(product.highestBidder).transfer(product.highestBid);\n                    product.highestBidder = msg.sender;\n                    product.highestBid = amount;\n                    refund = bidInfov - amount;\n                } else if (amount > product.secondHighestBid) {\n                    // \n                    product.secondHighestBid = amount;\n                    refund = amount;\n                } else {\n                    // \n                    refund = amount;\n                }\n            }\n        }\n        // \n        product.bids[msg.sender][sealedBid].revealed = true;\n\n        if (refund > 0) {\n            payable(msg.sender).transfer(refund);\n        }\n    }\n\n    // \n    function highestBidderInfo(uint256 _productId)\n        public\n        view\n        returns (\n            address,\n            uint256,\n            uint256\n        )\n    {\n        Product storage product = stores[productIdInStore[_productId]][\n            _productId\n        ];\n        return (\n            product.highestBidder,\n            product.highestBid,\n            product.secondHighestBid\n        );\n    }\n\n    // \n    function totalBids(uint256 _productId) public view returns (uint256) {\n        Product storage product = stores[productIdInStore[_productId]][\n            _productId\n        ];\n        return product.totalBids;\n    }\n\n    // \n    function stringToUint(string memory s) private pure returns (uint256) {\n        bytes memory b = bytes(s);\n        uint256 result = 0;\n        for (uint256 i = 0; i < b.length; i++) {\n            if (uint8(b[i]) >= 48 && uint8(b[i]) <= 57) {\n                result = result * 10 + (uint8(b[i]) - 48);\n            }\n        }\n        return result;\n    }\n\n    function finalizeAuction(uint256 _productId) public {\n        Product storage product = stores[productIdInStore[_productId]][\n            _productId\n        ];\n        // 48 hours to reveal the bid\n        require(block.timestamp > product.auctionEndTime);\n        require(product.status == ProductStatus.Open);\n        require(product.highestBidder != msg.sender);\n        require(productIdInStore[_productId] != msg.sender);\n\n        if (\n            product.highestBidder == 0x0000000000000000000000000000000000000000\n        ) {\n            product.status = ProductStatus.Unsold;\n        } else {\n            // Whoever finalizes the auction is the arbiter\n            Escrow escrow = (new Escrow){value: product.secondHighestBid}(\n                _productId,\n                product.highestBidder,\n                productIdInStore[_productId],\n                msg.sender\n            );\n            productEscrow[_productId] = address(escrow);\n            product.status = ProductStatus.Sold;\n            // The bidder only pays the amount equivalent to second highest bidder\n            // Refund the difference\n            uint256 refund = product.highestBid - product.secondHighestBid;\n            payable(product.highestBidder).transfer(refund);\n        }\n    }\n\n    function escrowAddressForProduct(uint256 _productId)\n        public\n        view\n        returns (address)\n    {\n        return productEscrow[_productId];\n    }\n\n    function escrowInfo(uint256 _productId)\n        public\n        view\n        returns (\n            address,\n            address,\n            address,\n            bool,\n            uint256,\n            uint256\n        )\n    {\n        return Escrow(productEscrow[_productId]).escrowInfo();\n    }\n\n    function releaseAmountToSeller(uint256 _productId) public {\n        Escrow(productEscrow[_productId]).releaseAmountToSeller(msg.sender);\n    }\n\n    function refundAmountToBuyer(uint256 _productId) public {\n        Escrow(productEscrow[_productId]).refundAmountToBuyer(msg.sender);\n    }\n\n    // \n    function keccak(string memory _amount, string memory _secret)\n        public\n        pure\n        returns (bytes32)\n    {\n        bytes32 _bid = keccak256(abi.encode(_amount, _secret));\n        return _bid;\n    }\n}\n",
  "sourcePath": "E:\\newDevelop\\vue-manager\\contracts\\EcommerceStore.sol",
  "compiler": {
    "name": "solc",
    "version": "0.8.17+commit.8df45f5f.Emscripten.clang"
  },
  "schemaVersion": "3.4.14",
  "updatedAt": "2025-04-07T04:14:01.668Z",
  "networkType": "ethereum",
  "devdoc": {
    "kind": "dev",
    "methods": {},
    "version": 1
  },
  "userdoc": {
    "kind": "user",
    "methods": {},
    "version": 1
  }
}