{
  "contractName": "EcommerceStoreV2",
  "abi": [
    {
      "anonymous": false,
      "inputs": [
        {
          "indexed": false,
          "internalType": "uint256",
          "name": "_productId",
          "type": "uint256"
        },
        {
          "indexed": false,
          "internalType": "string",
          "name": "_name",
          "type": "string"
        },
        {
          "indexed": false,
          "internalType": "string",
          "name": "_category",
          "type": "string"
        },
        {
          "indexed": false,
          "internalType": "string",
          "name": "_imageLink",
          "type": "string"
        },
        {
          "indexed": false,
          "internalType": "string",
          "name": "_descLink",
          "type": "string"
        },
        {
          "indexed": false,
          "internalType": "uint256",
          "name": "_auctionStartTime",
          "type": "uint256"
        },
        {
          "indexed": false,
          "internalType": "uint256",
          "name": "_auctionEndTime",
          "type": "uint256"
        },
        {
          "indexed": false,
          "internalType": "uint256",
          "name": "_startPrice",
          "type": "uint256"
        },
        {
          "indexed": false,
          "internalType": "uint256",
          "name": "_productCondition",
          "type": "uint256"
        }
      ],
      "name": "NewProduct",
      "type": "event"
    },
    {
      "inputs": [],
      "name": "productIndex",
      "outputs": [
        {
          "internalType": "uint256",
          "name": "",
          "type": "uint256"
        }
      ],
      "stateMutability": "view",
      "type": "function"
    },
    {
      "inputs": [
        {
          "internalType": "uint256",
          "name": "index_",
          "type": "uint256"
        }
      ],
      "name": "store",
      "outputs": [],
      "stateMutability": "nonpayable",
      "type": "function"
    },
    {
      "inputs": [
        {
          "internalType": "string",
          "name": "_name",
          "type": "string"
        },
        {
          "internalType": "string",
          "name": "_category",
          "type": "string"
        },
        {
          "internalType": "string",
          "name": "_imageLink",
          "type": "string"
        },
        {
          "internalType": "string",
          "name": "_descLink",
          "type": "string"
        },
        {
          "internalType": "uint256",
          "name": "_auctionStartTime",
          "type": "uint256"
        },
        {
          "internalType": "uint256",
          "name": "_auctionEndTime",
          "type": "uint256"
        },
        {
          "internalType": "string",
          "name": "_startPrice",
          "type": "string"
        },
        {
          "internalType": "uint256",
          "name": "_productCondition",
          "type": "uint256"
        }
      ],
      "name": "addProductToStore",
      "outputs": [],
      "stateMutability": "nonpayable",
      "type": "function"
    },
    {
      "inputs": [
        {
          "internalType": "uint256",
          "name": "_productId",
          "type": "uint256"
        }
      ],
      "name": "getProduct",
      "outputs": [
        {
          "internalType": "uint256",
          "name": "",
          "type": "uint256"
        },
        {
          "internalType": "string",
          "name": "",
          "type": "string"
        },
        {
          "internalType": "string",
          "name": "",
          "type": "string"
        },
        {
          "internalType": "string",
          "name": "",
          "type": "string"
        },
        {
          "internalType": "string",
          "name": "",
          "type": "string"
        },
        {
          "internalType": "uint256",
          "name": "",
          "type": "uint256"
        },
        {
          "internalType": "uint256",
          "name": "",
          "type": "uint256"
        },
        {
          "internalType": "uint256",
          "name": "",
          "type": "uint256"
        },
        {
          "internalType": "enum EcommerceStoreV2.ProductStatus",
          "name": "",
          "type": "uint8"
        },
        {
          "internalType": "enum EcommerceStoreV2.ProductCondition",
          "name": "",
          "type": "uint8"
        }
      ],
      "stateMutability": "view",
      "type": "function"
    },
    {
      "inputs": [
        {
          "internalType": "uint256",
          "name": "_productId",
          "type": "uint256"
        },
        {
          "internalType": "bytes32",
          "name": "_bid",
          "type": "bytes32"
        }
      ],
      "name": "bid",
      "outputs": [
        {
          "internalType": "bool",
          "name": "",
          "type": "bool"
        }
      ],
      "stateMutability": "payable",
      "type": "function"
    },
    {
      "inputs": [
        {
          "internalType": "uint256",
          "name": "_productId",
          "type": "uint256"
        },
        {
          "internalType": "string",
          "name": "_amount",
          "type": "string"
        },
        {
          "internalType": "string",
          "name": "_secret",
          "type": "string"
        }
      ],
      "name": "revealBid",
      "outputs": [],
      "stateMutability": "nonpayable",
      "type": "function"
    },
    {
      "inputs": [
        {
          "internalType": "uint256",
          "name": "_productId",
          "type": "uint256"
        }
      ],
      "name": "highestBidderInfo",
      "outputs": [
        {
          "internalType": "address",
          "name": "",
          "type": "address"
        },
        {
          "internalType": "uint256",
          "name": "",
          "type": "uint256"
        },
        {
          "internalType": "uint256",
          "name": "",
          "type": "uint256"
        }
      ],
      "stateMutability": "view",
      "type": "function"
    },
    {
      "inputs": [
        {
          "internalType": "uint256",
          "name": "_productId",
          "type": "uint256"
        }
      ],
      "name": "totalBids",
      "outputs": [
        {
          "internalType": "uint256",
          "name": "",
          "type": "uint256"
        }
      ],
      "stateMutability": "view",
      "type": "function"
    },
    {
      "inputs": [
        {
          "internalType": "uint256",
          "name": "_productId",
          "type": "uint256"
        }
      ],
      "name": "finalizeAuction",
      "outputs": [],
      "stateMutability": "nonpayable",
      "type": "function"
    },
    {
      "inputs": [
        {
          "internalType": "uint256",
          "name": "_productId",
          "type": "uint256"
        }
      ],
      "name": "escrowAddressForProduct",
      "outputs": [
        {
          "internalType": "address",
          "name": "",
          "type": "address"
        }
      ],
      "stateMutability": "view",
      "type": "function"
    },
    {
      "inputs": [
        {
          "internalType": "uint256",
          "name": "_productId",
          "type": "uint256"
        }
      ],
      "name": "escrowInfo",
      "outputs": [
        {
          "internalType": "address",
          "name": "",
          "type": "address"
        },
        {
          "internalType": "address",
          "name": "",
          "type": "address"
        },
        {
          "internalType": "address",
          "name": "",
          "type": "address"
        },
        {
          "internalType": "bool",
          "name": "",
          "type": "bool"
        },
        {
          "internalType": "uint256",
          "name": "",
          "type": "uint256"
        },
        {
          "internalType": "uint256",
          "name": "",
          "type": "uint256"
        }
      ],
      "stateMutability": "view",
      "type": "function"
    },
    {
      "inputs": [
        {
          "internalType": "uint256",
          "name": "_productId",
          "type": "uint256"
        }
      ],
      "name": "releaseAmountToSeller",
      "outputs": [],
      "stateMutability": "nonpayable",
      "type": "function"
    },
    {
      "inputs": [
        {
          "internalType": "uint256",
          "name": "_productId",
          "type": "uint256"
        }
      ],
      "name": "refundAmountToBuyer",
      "outputs": [],
      "stateMutability": "nonpayable",
      "type": "function"
    },
    {
      "inputs": [
        {
          "internalType": "string",
          "name": "_amount",
          "type": "string"
        },
        {
          "internalType": "string",
          "name": "_secret",
          "type": "string"
        }
      ],
      "name": "keccak",
      "outputs": [
        {
          "internalType": "bytes32",
          "name": "",
          "type": "bytes32"
        }
      ],
      "stateMutability": "pure",
      "type": "function"
    },
    {
      "inputs": [],
      "name": "increment",
      "outputs": [],
      "stateMutability": "nonpayable",
      "type": "function"
    }
  ],
  "bytecode": "0x608060405234801561001057600080fd5b50613c96806100206000396000f3fe608060405260043610620000fe5760003560e01c8063c897d5a61162000097578063e80838631162000061578063e80838631462000369578063ea1591bb1462000397578063f0d10d0114620003cd578063f85f196e146200041157620000fe565b8063c897d5a614620002ab578063cc352db714620002db578063ce818ea91462000309578063d09de08a146200034f57620000fe565b80636057361d11620000d95780636057361d14620001b95780638356052514620001e75780639a3a7c691462000230578063b9db15b4146200025e57620000fe565b80630e1c88d4146200010357806328e3d19014620001315780634389754a1462000175575b600080fd5b3480156200011057600080fd5b506200012f600480360381019062000129919062001ca3565b6200043f565b005b3480156200013e57600080fd5b506200015d600480360381019062000157919062001e07565b62000663565b6040516200016c919062001e4a565b60405180910390f35b3480156200018257600080fd5b50620001a160048036038101906200019b919062001e07565b620006f8565b604051620001b0919062001eac565b60405180910390f35b348015620001c657600080fd5b50620001e56004803603810190620001df919062001e07565b62000735565b005b348015620001f457600080fd5b506200021360048036038101906200020d919062001e07565b6200073f565b604051620002279695949392919062001ee6565b60405180910390f35b3480156200023d57600080fd5b506200025c600480360381019062000256919062001e07565b62000802565b005b3480156200026b57600080fd5b506200028a600480360381019062000284919062001e07565b620008a7565b604051620002a29a99989796959493929190620020ad565b60405180910390f35b348015620002b857600080fd5b50620002c362000bf7565b604051620002d2919062001e4a565b60405180910390f35b348015620002e857600080fd5b5062000307600480360381019062000301919062001e07565b62000bfd565b005b3480156200031657600080fd5b506200033560048036038101906200032f919062001e07565b62000ca2565b604051620003469392919062002179565b60405180910390f35b3480156200035c57600080fd5b506200036762000d6a565b005b3480156200037657600080fd5b506200039560048036038101906200038f919062001e07565b62000d83565b005b620003b56004803603810190620003af9190620021f1565b6200116b565b604051620003c4919062002238565b60405180910390f35b348015620003da57600080fd5b50620003f96004803603810190620003f3919062002255565b620014eb565b604051620004089190620022eb565b60405180910390f35b3480156200041e57600080fd5b506200043d600480360381019062000437919062002308565b62001525565b005b8284106200044c57600080fd5b6001600080828254620004609190620023d1565b925050819055506000600160003373ffffffffffffffffffffffffffffffffffffffff1673ffffffffffffffffffffffffffffffffffffffff1681526020019081526020016000206000805481526020019081526020016000209050600054816000018190555088816001019081620004da919062002642565b5087816002019081620004ee919062002642565b508681600301908162000502919062002642565b508581600401908162000516919062002642565b508481600501819055508381600601819055506200053483620019f7565b8160070181905550600081600c0160006101000a81548160ff0219169083600281111562000567576200056662001fdc565b5b021790555081600181111562000582576200058162001fdc565b5b81600c0160016101000a81548160ff02191690836001811115620005ab57620005aa62001fdc565b5b021790555033600260008054815260200190815260200160002060006101000a81548173ffffffffffffffffffffffffffffffffffffffff021916908373ffffffffffffffffffffffffffffffffffffffff1602179055507f7246fb63256d85d227c3255d8d4f49ff574a42ec76096803c81c0d6b58ac5a716000548a8a8a8a8a8a620006388b620019f7565b8a604051620006509998979695949392919062002729565b60405180910390a1505050505050505050565b600080600160006002600086815260200190815260200160002060009054906101000a900473ffffffffffffffffffffffffffffffffffffffff1673ffffffffffffffffffffffffffffffffffffffff1673ffffffffffffffffffffffffffffffffffffffff1681526020019081526020016000206000848152602001908152602001600020905080600b0154915050919050565b60006003600083815260200190815260200160002060009054906101000a900473ffffffffffffffffffffffffffffffffffffffff169050919050565b8060008190555050565b6000806000806000806003600088815260200190815260200160002060009054906101000a900473ffffffffffffffffffffffffffffffffffffffff1673ffffffffffffffffffffffffffffffffffffffff1663f3d259046040518163ffffffff1660e01b815260040160c060405180830381865afa158015620007c7573d6000803e3d6000fd5b505050506040513d601f19601f82011682018060405250810190620007ed91906200285d565b95509550955095509550955091939550919395565b6003600082815260200190815260200160002060009054906101000a900473ffffffffffffffffffffffffffffffffffffffff1673ffffffffffffffffffffffffffffffffffffffff166358aad10b336040518263ffffffff1660e01b815260040162000870919062001eac565b600060405180830381600087803b1580156200088b57600080fd5b505af1158015620008a0573d6000803e3d6000fd5b5050505050565b600060608060608060008060008060008060016000600260008f815260200190815260200160002060009054906101000a900473ffffffffffffffffffffffffffffffffffffffff1673ffffffffffffffffffffffffffffffffffffffff1673ffffffffffffffffffffffffffffffffffffffff16815260200190815260200160002060008d8152602001908152602001600020905080600001548160010182600201836003018460040185600501548660060154876007015488600c0160009054906101000a900460ff1689600c0160019054906101000a900460ff1688805462000993906200243b565b80601f0160208091040260200160405190810160405280929190818152602001828054620009c1906200243b565b801562000a125780601f10620009e65761010080835404028352916020019162000a12565b820191906000526020600020905b815481529060010190602001808311620009f457829003601f168201915b5050505050985087805462000a27906200243b565b80601f016020809104026020016040519081016040528092919081815260200182805462000a55906200243b565b801562000aa65780601f1062000a7a5761010080835404028352916020019162000aa6565b820191906000526020600020905b81548152906001019060200180831162000a8857829003601f168201915b5050505050975086805462000abb906200243b565b80601f016020809104026020016040519081016040528092919081815260200182805462000ae9906200243b565b801562000b3a5780601f1062000b0e5761010080835404028352916020019162000b3a565b820191906000526020600020905b81548152906001019060200180831162000b1c57829003601f168201915b5050505050965085805462000b4f906200243b565b80601f016020809104026020016040519081016040528092919081815260200182805462000b7d906200243b565b801562000bce5780601f1062000ba25761010080835404028352916020019162000bce565b820191906000526020600020905b81548152906001019060200180831162000bb057829003601f168201915b505050505095509a509a509a509a509a509a509a509a509a509a50509193959799509193959799565b60005481565b6003600082815260200190815260200160002060009054906101000a900473ffffffffffffffffffffffffffffffffffffffff1673ffffffffffffffffffffffffffffffffffffffff1663a97d1b10336040518263ffffffff1660e01b815260040162000c6b919062001eac565b600060405180830381600087803b15801562000c8657600080fd5b505af115801562000c9b573d6000803e3d6000fd5b5050505050565b600080600080600160006002600088815260200190815260200160002060009054906101000a900473ffffffffffffffffffffffffffffffffffffffff1673ffffffffffffffffffffffffffffffffffffffff1673ffffffffffffffffffffffffffffffffffffffff168152602001908152602001600020600086815260200190815260200160002090508060080160009054906101000a900473ffffffffffffffffffffffffffffffffffffffff16816009015482600a0154935093509350509193909250565b600160005462000d7b9190620023d1565b600081905550565b6000600160006002600085815260200190815260200160002060009054906101000a900473ffffffffffffffffffffffffffffffffffffffff1673ffffffffffffffffffffffffffffffffffffffff1673ffffffffffffffffffffffffffffffffffffffff168152602001908152602001600020600083815260200190815260200160002090508060060154421162000e1b57600080fd5b6000600281111562000e325762000e3162001fdc565b5b81600c0160009054906101000a900460ff16600281111562000e595762000e5862001fdc565b5b1462000e6457600080fd5b3373ffffffffffffffffffffffffffffffffffffffff168160080160009054906101000a900473ffffffffffffffffffffffffffffffffffffffff1673ffffffffffffffffffffffffffffffffffffffff160362000ec157600080fd5b3373ffffffffffffffffffffffffffffffffffffffff166002600084815260200190815260200160002060009054906101000a900473ffffffffffffffffffffffffffffffffffffffff1673ffffffffffffffffffffffffffffffffffffffff160362000f2d57600080fd5b600073ffffffffffffffffffffffffffffffffffffffff168160080160009054906101000a900473ffffffffffffffffffffffffffffffffffffffff1673ffffffffffffffffffffffffffffffffffffffff160362000fbc57600281600c0160006101000a81548160ff0219169083600281111562000fb15762000fb062001fdc565b5b021790555062001167565b600081600a0154838360080160009054906101000a900473ffffffffffffffffffffffffffffffffffffffff166002600087815260200190815260200160002060009054906101000a900473ffffffffffffffffffffffffffffffffffffffff16336040516200102c9062001ae4565b6200103b9493929190620028f9565b6040518091039082f090508015801562001059573d6000803e3d6000fd5b509050806003600085815260200190815260200160002060006101000a81548173ffffffffffffffffffffffffffffffffffffffff021916908373ffffffffffffffffffffffffffffffffffffffff160217905550600182600c0160006101000a81548160ff02191690836002811115620010d957620010d862001fdc565b5b0217905550600082600a01548360090154620010f6919062002946565b90508260080160009054906101000a900473ffffffffffffffffffffffffffffffffffffffff1673ffffffffffffffffffffffffffffffffffffffff166108fc829081150290604051600060405180830381858888f1935050505015801562001163573d6000803e3d6000fd5b5050505b5050565b600080600160006002600087815260200190815260200160002060009054906101000a900473ffffffffffffffffffffffffffffffffffffffff1673ffffffffffffffffffffffffffffffffffffffff1673ffffffffffffffffffffffffffffffffffffffff1681526020019081526020016000206000858152602001908152602001600020905080600501544210156200123d576040517f08c379a00000000000000000000000000000000000000000000000000000000081526004016200123490620029d1565b60405180910390fd5b806006015442111562001287576040517f08c379a00000000000000000000000000000000000000000000000000000000081526004016200127e9062002a43565b60405180910390fd5b8060070154341015620012d1576040517f08c379a0000000000000000000000000000000000000000000000000000000008152600401620012c89062002ab5565b60405180910390fd5b600073ffffffffffffffffffffffffffffffffffffffff1681600d0160003373ffffffffffffffffffffffffffffffffffffffff1673ffffffffffffffffffffffffffffffffffffffff168152602001908152602001600020600085815260200190815260200160002060000160009054906101000a900473ffffffffffffffffffffffffffffffffffffffff1673ffffffffffffffffffffffffffffffffffffffff1614620013b8576040517f08c379a0000000000000000000000000000000000000000000000000000000008152600401620013af9062002b27565b60405180910390fd5b60405180608001604052803373ffffffffffffffffffffffffffffffffffffffff1681526020018581526020013481526020016000151581525081600d0160003373ffffffffffffffffffffffffffffffffffffffff1673ffffffffffffffffffffffffffffffffffffffff168152602001908152602001600020600085815260200190815260200160002060008201518160000160006101000a81548173ffffffffffffffffffffffffffffffffffffffff021916908373ffffffffffffffffffffffffffffffffffffffff160217905550602082015181600101556040820151816002015560608201518160030160006101000a81548160ff021916908315150217905550905050600181600b016000828254620014d99190620023d1565b92505081905550600191505092915050565b60008083836040516020016200150392919062002b49565b6040516020818303038152906040528051906020012090508091505092915050565b6000600160006002600087815260200190815260200160002060009054906101000a900473ffffffffffffffffffffffffffffffffffffffff1673ffffffffffffffffffffffffffffffffffffffff1673ffffffffffffffffffffffffffffffffffffffff1681526020019081526020016000206000858152602001908152602001600020905080600501544211620015bd57600080fd5b60008383604051602001620015d492919062002b49565b604051602081830303815290604052805190602001209050600082600d0160003373ffffffffffffffffffffffffffffffffffffffff1673ffffffffffffffffffffffffffffffffffffffff16815260200190815260200160002060008381526020019081526020016000206040518060800160405290816000820160009054906101000a900473ffffffffffffffffffffffffffffffffffffffff1673ffffffffffffffffffffffffffffffffffffffff1673ffffffffffffffffffffffffffffffffffffffff16815260200160018201548152602001600282015481526020016003820160009054906101000a900460ff1615151515815250509050600073ffffffffffffffffffffffffffffffffffffffff16816000015173ffffffffffffffffffffffffffffffffffffffff16116200171057600080fd5b6000151581606001511515146200172657600080fd5b6000806200173487620019f7565b90506000836040015190508181101562001751578092506200192b565b600073ffffffffffffffffffffffffffffffffffffffff168660080160009054906101000a900473ffffffffffffffffffffffffffffffffffffffff1673ffffffffffffffffffffffffffffffffffffffff16036200181957338660080160006101000a81548173ffffffffffffffffffffffffffffffffffffffff021916908373ffffffffffffffffffffffffffffffffffffffff160217905550818660090181905550856007015486600a0181905550818162001811919062002946565b92506200192a565b85600901548211156200190557856009015486600a01819055508560080160009054906101000a900473ffffffffffffffffffffffffffffffffffffffff1673ffffffffffffffffffffffffffffffffffffffff166108fc87600901549081150290604051600060405180830381858888f19350505050158015620018a2573d6000803e3d6000fd5b50338660080160006101000a81548173ffffffffffffffffffffffffffffffffffffffff021916908373ffffffffffffffffffffffffffffffffffffffff1602179055508186600901819055508181620018fd919062002946565b925062001929565b85600a015482111562001924578186600a018190555081925062001928565b8192505b5b5b5b600186600d0160003373ffffffffffffffffffffffffffffffffffffffff1673ffffffffffffffffffffffffffffffffffffffff168152602001908152602001600020600087815260200190815260200160002060030160006101000a81548160ff0219169083151502179055506000831115620019ec573373ffffffffffffffffffffffffffffffffffffffff166108fc849081150290604051600060405180830381858888f19350505050158015620019ea573d6000803e3d6000fd5b505b505050505050505050565b6000808290506000805b825181101562001ad957603083828151811062001a235762001a2262002b84565b5b602001015160f81c60f81b60f81c60ff161015801562001a6a5750603983828151811062001a565762001a5562002b84565b5b602001015160f81c60f81b60f81c60ff1611155b1562001ac357603083828151811062001a885762001a8762002b84565b5b602001015160f81c60f81b60f81c62001aa2919062002bc0565b60ff16600a8362001ab4919062002bfc565b62001ac09190620023d1565b91505b808062001ad09062002c47565b91505062001a01565b508092505050919050565b610fcc8062002c9583390190565b6000604051905090565b600080fd5b600080fd5b600080fd5b600080fd5b6000601f19601f8301169050919050565b7f4e487b7100000000000000000000000000000000000000000000000000000000600052604160045260246000fd5b62001b5b8262001b10565b810181811067ffffffffffffffff8211171562001b7d5762001b7c62001b21565b5b80604052505050565b600062001b9262001af2565b905062001ba0828262001b50565b919050565b600067ffffffffffffffff82111562001bc35762001bc262001b21565b5b62001bce8262001b10565b9050602081019050919050565b82818337600083830152505050565b600062001c0162001bfb8462001ba5565b62001b86565b90508281526020810184848401111562001c205762001c1f62001b0b565b5b62001c2d84828562001bdb565b509392505050565b600082601f83011262001c4d5762001c4c62001b06565b5b813562001c5f84826020860162001bea565b91505092915050565b6000819050919050565b62001c7d8162001c68565b811462001c8957600080fd5b50565b60008135905062001c9d8162001c72565b92915050565b600080600080600080600080610100898b03121562001cc75762001cc662001afc565b5b600089013567ffffffffffffffff81111562001ce85762001ce762001b01565b5b62001cf68b828c0162001c35565b985050602089013567ffffffffffffffff81111562001d1a5762001d1962001b01565b5b62001d288b828c0162001c35565b975050604089013567ffffffffffffffff81111562001d4c5762001d4b62001b01565b5b62001d5a8b828c0162001c35565b965050606089013567ffffffffffffffff81111562001d7e5762001d7d62001b01565b5b62001d8c8b828c0162001c35565b955050608062001d9f8b828c0162001c8c565b94505060a062001db28b828c0162001c8c565b93505060c089013567ffffffffffffffff81111562001dd65762001dd562001b01565b5b62001de48b828c0162001c35565b92505060e062001df78b828c0162001c8c565b9150509295985092959890939650565b60006020828403121562001e205762001e1f62001afc565b5b600062001e308482850162001c8c565b91505092915050565b62001e448162001c68565b82525050565b600060208201905062001e61600083018462001e39565b92915050565b600073ffffffffffffffffffffffffffffffffffffffff82169050919050565b600062001e948262001e67565b9050919050565b62001ea68162001e87565b82525050565b600060208201905062001ec3600083018462001e9b565b92915050565b60008115159050919050565b62001ee08162001ec9565b82525050565b600060c08201905062001efd600083018962001e9b565b62001f0c602083018862001e9b565b62001f1b604083018762001e9b565b62001f2a606083018662001ed5565b62001f39608083018562001e39565b62001f4860a083018462001e39565b979650505050505050565b600081519050919050565b600082825260208201905092915050565b60005b8381101562001f8f57808201518184015260208101905062001f72565b60008484015250505050565b600062001fa88262001f53565b62001fb4818562001f5e565b935062001fc681856020860162001f6f565b62001fd18162001b10565b840191505092915050565b7f4e487b7100000000000000000000000000000000000000000000000000000000600052602160045260246000fd5b600381106200201f576200201e62001fdc565b5b50565b600081905062002032826200200b565b919050565b6000620020448262002022565b9050919050565b620020568162002037565b82525050565b6002811062002070576200206f62001fdc565b5b50565b600081905062002083826200205c565b919050565b6000620020958262002073565b9050919050565b620020a78162002088565b82525050565b600061014082019050620020c5600083018d62001e39565b8181036020830152620020d9818c62001f9b565b90508181036040830152620020ef818b62001f9b565b9050818103606083015262002105818a62001f9b565b905081810360808301526200211b818962001f9b565b90506200212c60a083018862001e39565b6200213b60c083018762001e39565b6200214a60e083018662001e39565b6200215a6101008301856200204b565b6200216a6101208301846200209c565b9b9a5050505050505050505050565b600060608201905062002190600083018662001e9b565b6200219f602083018562001e39565b620021ae604083018462001e39565b949350505050565b6000819050919050565b620021cb81620021b6565b8114620021d757600080fd5b50565b600081359050620021eb81620021c0565b92915050565b600080604083850312156200220b576200220a62001afc565b5b60006200221b8582860162001c8c565b92505060206200222e85828601620021da565b9150509250929050565b60006020820190506200224f600083018462001ed5565b92915050565b600080604083850312156200226f576200226e62001afc565b5b600083013567ffffffffffffffff81111562002290576200228f62001b01565b5b6200229e8582860162001c35565b925050602083013567ffffffffffffffff811115620022c257620022c162001b01565b5b620022d08582860162001c35565b9150509250929050565b620022e581620021b6565b82525050565b6000602082019050620023026000830184620022da565b92915050565b60008060006060848603121562002324576200232362001afc565b5b6000620023348682870162001c8c565b935050602084013567ffffffffffffffff81111562002358576200235762001b01565b5b620023668682870162001c35565b925050604084013567ffffffffffffffff8111156200238a576200238962001b01565b5b620023988682870162001c35565b9150509250925092565b7f4e487b7100000000000000000000000000000000000000000000000000000000600052601160045260246000fd5b6000620023de8262001c68565b9150620023eb8362001c68565b9250828201905080821115620024065762002405620023a2565b5b92915050565b7f4e487b7100000000000000000000000000000000000000000000000000000000600052602260045260246000fd5b600060028204905060018216806200245457607f821691505b6020821081036200246a57620024696200240c565b5b50919050565b60008190508160005260206000209050919050565b60006020601f8301049050919050565b600082821b905092915050565b600060088302620024d47fffffffffffffffffffffffffffffffffffffffffffffffffffffffffffffffff8262002495565b620024e0868362002495565b95508019841693508086168417925050509392505050565b6000819050919050565b6000620025236200251d620025178462001c68565b620024f8565b62001c68565b9050919050565b6000819050919050565b6200253f8362002502565b620025576200254e826200252a565b848454620024a2565b825550505050565b600090565b6200256e6200255f565b6200257b81848462002534565b505050565b5b81811015620025a3576200259760008262002564565b60018101905062002581565b5050565b601f821115620025f257620025bc8162002470565b620025c78462002485565b81016020851015620025d7578190505b620025ef620025e68562002485565b83018262002580565b50505b505050565b600082821c905092915050565b60006200261760001984600802620025f7565b1980831691505092915050565b600062002632838362002604565b9150826002028217905092915050565b6200264d8262001f53565b67ffffffffffffffff81111562002669576200266862001b21565b5b6200267582546200243b565b62002682828285620025a7565b600060209050601f831160018114620026ba5760008415620026a5578287015190505b620026b1858262002624565b86555062002721565b601f198416620026ca8662002470565b60005b82811015620026f457848901518255600182019150602085019450602081019050620026cd565b8683101562002714578489015162002710601f89168262002604565b8355505b6001600288020188555050505b505050505050565b60006101208201905062002741600083018c62001e39565b818103602083015262002755818b62001f9b565b905081810360408301526200276b818a62001f9b565b9050818103606083015262002781818962001f9b565b9050818103608083015262002797818862001f9b565b9050620027a860a083018762001e39565b620027b760c083018662001e39565b620027c660e083018562001e39565b620027d661010083018462001e39565b9a9950505050505050505050565b620027ef8162001e87565b8114620027fb57600080fd5b50565b6000815190506200280f81620027e4565b92915050565b620028208162001ec9565b81146200282c57600080fd5b50565b600081519050620028408162002815565b92915050565b600081519050620028578162001c72565b92915050565b60008060008060008060c087890312156200287d576200287c62001afc565b5b60006200288d89828a01620027fe565b9650506020620028a089828a01620027fe565b9550506040620028b389828a01620027fe565b9450506060620028c689828a016200282f565b9350506080620028d989828a0162002846565b92505060a0620028ec89828a0162002846565b9150509295509295509295565b600060808201905062002910600083018762001e39565b6200291f602083018662001e9b565b6200292e604083018562001e9b565b6200293d606083018462001e9b565b95945050505050565b6000620029538262001c68565b9150620029608362001c68565b92508282039050818111156200297b576200297a620023a2565b5b92915050565b7f3e00000000000000000000000000000000000000000000000000000000000000600082015250565b6000620029b960018362001f5e565b9150620029c68262002981565b602082019050919050565b60006020820190508181036000830152620029ec81620029aa565b9050919050565b7f3c00000000000000000000000000000000000000000000000000000000000000600082015250565b600062002a2b60018362001f5e565b915062002a3882620029f3565b602082019050919050565b6000602082019050818103600083015262002a5e8162002a1c565b9050919050565b7f3d00000000000000000000000000000000000000000000000000000000000000600082015250565b600062002a9d60018362001f5e565b915062002aaa8262002a65565b602082019050919050565b6000602082019050818103600083015262002ad08162002a8e565b9050919050565b7f3d3d000000000000000000000000000000000000000000000000000000000000600082015250565b600062002b0f60028362001f5e565b915062002b1c8262002ad7565b602082019050919050565b6000602082019050818103600083015262002b428162002b00565b9050919050565b6000604082019050818103600083015262002b65818562001f9b565b9050818103602083015262002b7b818462001f9b565b90509392505050565b7f4e487b7100000000000000000000000000000000000000000000000000000000600052603260045260246000fd5b600060ff82169050919050565b600062002bcd8262002bb3565b915062002bda8362002bb3565b9250828203905060ff81111562002bf65762002bf5620023a2565b5b92915050565b600062002c098262001c68565b915062002c168362001c68565b925082820262002c268162001c68565b9150828204841483151762002c405762002c3f620023a2565b5b5092915050565b600062002c548262001c68565b91507fffffffffffffffffffffffffffffffffffffffffffffffffffffffffffffffff820362002c895762002c88620023a2565b5b60018201905091905056fe608060405260405162000fcc38038062000fcc833981810160405281019062000029919062000203565b8360008190555082600160006101000a81548173ffffffffffffffffffffffffffffffffffffffff021916908373ffffffffffffffffffffffffffffffffffffffff16021790555081600260006101000a81548173ffffffffffffffffffffffffffffffffffffffff021916908373ffffffffffffffffffffffffffffffffffffffff16021790555080600360006101000a81548173ffffffffffffffffffffffffffffffffffffffff021916908373ffffffffffffffffffffffffffffffffffffffff160217905550346004819055506000600560006101000a81548160ff0219169083151502179055507f7527d0b8d16913563c5afb8fa2dc5b6257355ff7dfbefbdcfc1cf812a0f97c5e848484846040516200014c949392919062000297565b60405180910390a150505050620002e4565b600080fd5b6000819050919050565b620001788162000163565b81146200018457600080fd5b50565b60008151905062000198816200016d565b92915050565b600073ffffffffffffffffffffffffffffffffffffffff82169050919050565b6000620001cb826200019e565b9050919050565b620001dd81620001be565b8114620001e957600080fd5b50565b600081519050620001fd81620001d2565b92915050565b6000806000806080858703121562000220576200021f6200015e565b5b6000620002308782880162000187565b94505060206200024387828801620001ec565b93505060406200025687828801620001ec565b92505060606200026987828801620001ec565b91505092959194509250565b620002808162000163565b82525050565b6200029181620001be565b82525050565b6000608082019050620002ae600083018762000275565b620002bd602083018662000286565b620002cc604083018562000286565b620002db606083018462000286565b95945050505050565b610cd880620002f46000396000f3fe608060405234801561001057600080fd5b50600436106100a95760003560e01c8063aa8c217c11610071578063aa8c217c14610140578063b8d08db21461015e578063c5ce39111461017c578063d1a52e301461019a578063f3d25904146101b8578063fe25e00a146101db576100a9565b806308551a53146100ae5780630bda4dbf146100cc57806358aad10b146100ea5780637150d8ae14610106578063a97d1b1014610124575b600080fd5b6100b66101f9565b6040516100c391906109a3565b60405180910390f35b6100d461021f565b6040516100e191906109d7565b60405180910390f35b61010460048036038101906100ff9190610a23565b610225565b005b61010e61053d565b60405161011b91906109a3565b60405180910390f35b61013e60048036038101906101399190610a23565b610563565b005b61014861087b565b60405161015591906109d7565b60405180910390f35b610166610881565b60405161017391906109d7565b60405180910390f35b610184610887565b60405161019191906109d7565b60405180910390f35b6101a261088d565b6040516101af9190610a6b565b60405180910390f35b6101c06108a0565b6040516101d296959493929190610a86565b60405180910390f35b6101e361093c565b6040516101f091906109a3565b60405180910390f35b600260009054906101000a900473ffffffffffffffffffffffffffffffffffffffff1681565b60095481565b600560009054906101000a900460ff161561023f57600080fd5b600160009054906101000a900473ffffffffffffffffffffffffffffffffffffffff1673ffffffffffffffffffffffffffffffffffffffff168173ffffffffffffffffffffffffffffffffffffffff1614806102e85750600260009054906101000a900473ffffffffffffffffffffffffffffffffffffffff1673ffffffffffffffffffffffffffffffffffffffff168173ffffffffffffffffffffffffffffffffffffffff16145b806103405750600360009054906101000a900473ffffffffffffffffffffffffffffffffffffffff1673ffffffffffffffffffffffffffffffffffffffff168173ffffffffffffffffffffffffffffffffffffffff16145b61034957600080fd5b600660008273ffffffffffffffffffffffffffffffffffffffff1673ffffffffffffffffffffffffffffffffffffffff16815260200190815260200160002060009054906101000a900460ff16610448576001600660008373ffffffffffffffffffffffffffffffffffffffff1673ffffffffffffffffffffffffffffffffffffffff16815260200190815260200160002060006101000a81548160ff0219169083151502179055506001600760008282546104059190610b16565b925050819055507fe31e37941fee7dca6bb1597da71841499d8cd0dfc5553e0889f6d1ca6038ce966000548260405161043f929190610ba7565b60405180910390a15b60026007540361053a57600260009054906101000a900473ffffffffffffffffffffffffffffffffffffffff1673ffffffffffffffffffffffffffffffffffffffff166108fc6004549081150290604051600060405180830381858888f193505050501580156104bc573d6000803e3d6000fd5b506001600560006101000a81548160ff0219169083151502179055507fdde1058856b8611b1f49ef2ebaef10c0441e48e8a6cbbec1ebdcbfb1862b57b4600054600454600260009054906101000a900473ffffffffffffffffffffffffffffffffffffffff1660405161053193929190610be3565b60405180910390a15b50565b600160009054906101000a900473ffffffffffffffffffffffffffffffffffffffff1681565b600560009054906101000a900460ff161561057d57600080fd5b600160009054906101000a900473ffffffffffffffffffffffffffffffffffffffff1673ffffffffffffffffffffffffffffffffffffffff168173ffffffffffffffffffffffffffffffffffffffff1614806106265750600260009054906101000a900473ffffffffffffffffffffffffffffffffffffffff1673ffffffffffffffffffffffffffffffffffffffff168173ffffffffffffffffffffffffffffffffffffffff16145b8061067e5750600360009054906101000a900473ffffffffffffffffffffffffffffffffffffffff1673ffffffffffffffffffffffffffffffffffffffff168173ffffffffffffffffffffffffffffffffffffffff16145b61068757600080fd5b600860008273ffffffffffffffffffffffffffffffffffffffff1673ffffffffffffffffffffffffffffffffffffffff16815260200190815260200160002060009054906101000a900460ff16610786576001600860008373ffffffffffffffffffffffffffffffffffffffff1673ffffffffffffffffffffffffffffffffffffffff16815260200190815260200160002060006101000a81548160ff0219169083151502179055506001600960008282546107439190610b16565b925050819055507fe31e37941fee7dca6bb1597da71841499d8cd0dfc5553e0889f6d1ca6038ce966000548260405161077d929190610c66565b60405180910390a15b60026009540361087857600160009054906101000a900473ffffffffffffffffffffffffffffffffffffffff1673ffffffffffffffffffffffffffffffffffffffff166108fc6004549081150290604051600060405180830381858888f193505050501580156107fa573d6000803e3d6000fd5b506001600560006101000a81548160ff0219169083151502179055507fdde1058856b8611b1f49ef2ebaef10c0441e48e8a6cbbec1ebdcbfb1862b57b4600054600454600160009054906101000a900473ffffffffffffffffffffffffffffffffffffffff1660405161086f93929190610be3565b60405180910390a15b50565b60045481565b60075481565b60005481565b600560009054906101000a900460ff1681565b600080600080600080600160009054906101000a900473ffffffffffffffffffffffffffffffffffffffff16600260009054906101000a900473ffffffffffffffffffffffffffffffffffffffff16600360009054906101000a900473ffffffffffffffffffffffffffffffffffffffff16600560009054906101000a900460ff16600754600954955095509550955095509550909192939495565b600360009054906101000a900473ffffffffffffffffffffffffffffffffffffffff1681565b600073ffffffffffffffffffffffffffffffffffffffff82169050919050565b600061098d82610962565b9050919050565b61099d81610982565b82525050565b60006020820190506109b86000830184610994565b92915050565b6000819050919050565b6109d1816109be565b82525050565b60006020820190506109ec60008301846109c8565b92915050565b600080fd5b610a0081610982565b8114610a0b57600080fd5b50565b600081359050610a1d816109f7565b92915050565b600060208284031215610a3957610a386109f2565b5b6000610a4784828501610a0e565b91505092915050565b60008115159050919050565b610a6581610a50565b82525050565b6000602082019050610a806000830184610a5c565b92915050565b600060c082019050610a9b6000830189610994565b610aa86020830188610994565b610ab56040830187610994565b610ac26060830186610a5c565b610acf60808301856109c8565b610adc60a08301846109c8565b979650505050505050565b7f4e487b7100000000000000000000000000000000000000000000000000000000600052601160045260246000fd5b6000610b21826109be565b9150610b2c836109be565b9250828201905080821115610b4457610b43610ae7565b5b92915050565b600082825260208201905092915050565b7f72656c6561736500000000000000000000000000000000000000000000000000600082015250565b6000610b91600783610b4a565b9150610b9c82610b5b565b602082019050919050565b6000606082019050610bbc60008301856109c8565b8181036020830152610bcd81610b84565b9050610bdc6040830184610994565b9392505050565b6000606082019050610bf860008301866109c8565b610c0560208301856109c8565b610c126040830184610994565b949350505050565b7f726566756e640000000000000000000000000000000000000000000000000000600082015250565b6000610c50600683610b4a565b9150610c5b82610c1a565b602082019050919050565b6000606082019050610c7b60008301856109c8565b8181036020830152610c8c81610c43565b9050610c9b6040830184610994565b939250505056fea2646970667358221220414ad0c76d2e8b033deab48f940b512ccc3ec580d19f5e8f930d68516c63009464736f6c63430008110033a2646970667358221220fb1239ea0029ed1d92f4c1f80401aae12a7d4fca6cd29f091c54e7e7335ecd8364736f6c63430008110033",
  "immutableReferences": {},
  "source": "// SPDX-License-Identifier: MIT\npragma solidity ^0.8.17;\n\nimport \"../contracts/Escrow.sol\";\n\ncontract EcommerceStoreV2 {\n    // \n    enum ProductStatus {\n        Open,\n        Sold,\n        Unsold\n    }\n\n    enum ProductCondition {\n        New,\n        Used\n    }\n\n    // \n    uint256 public productIndex;\n    // \n    mapping(address => mapping(uint256 => Product)) stores;\n    // ID\n    mapping(uint256 => address) productIdInStore;\n\n    mapping(uint256 => address) productEscrow;\n\n    // \n    struct Product {\n        // ID\n        uint256 id;\n        // \n        string name;\n        // \n        string category;\n        // \n        string imageLink;\n        // \n        string descLink;\n        // \n        uint256 auctionStartTime;\n        // \n        uint256 auctionEndTime;\n        // \n        uint256 startPrice;\n        // \n        address highestBidder;\n        // \n        uint256 highestBid;\n        // \n        uint256 secondHighestBid;\n        // \n        uint256 totalBids;\n        // \n        ProductStatus status;\n        ProductCondition condition;\n        // \n        mapping(address => mapping(bytes32 => Bid)) bids;\n    }\n\n    // \n    struct Bid {\n        address bidder;\n        uint256 productId;\n        uint256 value;\n        bool revealed;\n    }\n\n    // \n    event NewProduct(\n        uint256 _productId,\n        string _name,\n        string _category,\n        string _imageLink,\n        string _descLink,\n        uint256 _auctionStartTime,\n        uint256 _auctionEndTime,\n        uint256 _startPrice,\n        uint256 _productCondition\n    );\n\n    // constructor() {\n    //     productIndex = 0;\n    // }\n\n    // \n    function store(uint256 index_) public {\n        productIndex = index_;\n    }\n\n    //\n    function addProductToStore(\n        string memory _name,\n        string memory _category,\n        string memory _imageLink,\n        string memory _descLink,\n        uint256 _auctionStartTime,\n        uint256 _auctionEndTime,\n        string memory _startPrice,\n        uint256 _productCondition\n    ) public {\n        require(_auctionStartTime < _auctionEndTime);\n        productIndex += 1;\n        // msg.sender\n        Product storage product = stores[msg.sender][productIndex];\n        product.id = productIndex;\n        product.name = _name;\n        product.category = _category;\n        product.imageLink = _imageLink;\n        product.descLink = _descLink;\n        product.auctionStartTime = _auctionStartTime;\n        product.auctionEndTime = _auctionEndTime;\n        product.startPrice = stringToUint(_startPrice);\n        product.status = ProductStatus.Open;\n        product.condition = ProductCondition(_productCondition);\n        // ID\n        productIdInStore[productIndex] = msg.sender;\n        emit NewProduct(\n            productIndex,\n            _name,\n            _category,\n            _imageLink,\n            _descLink,\n            _auctionStartTime,\n            _auctionEndTime,\n            stringToUint(_startPrice),\n            _productCondition\n        );\n    }\n\n    // \n    function getProduct(\n        uint256 _productId\n    )\n        public\n        view\n        returns (\n            uint256,\n            string memory,\n            string memory,\n            string memory,\n            string memory,\n            uint256,\n            uint256,\n            uint256,\n            ProductStatus,\n            ProductCondition\n        )\n    {\n        Product storage product = stores[productIdInStore[_productId]][\n            _productId\n        ];\n        return (\n            product.id,\n            product.name,\n            product.category,\n            product.imageLink,\n            product.descLink,\n            product.auctionStartTime,\n            product.auctionEndTime,\n            product.startPrice,\n            product.status,\n            product.condition\n        );\n    }\n\n    // \n    function bid(\n        uint256 _productId,\n        bytes32 _bid\n    ) public payable returns (bool) {\n        Product storage product = stores[productIdInStore[_productId]][\n            _productId\n        ];\n        require(block.timestamp >= product.auctionStartTime, \">\");\n        require(block.timestamp <= product.auctionEndTime, \"<\");\n        require(msg.value >= product.startPrice, \"=\");\n        require(\n            product.bids[msg.sender][_bid].bidder ==\n                0x0000000000000000000000000000000000000000,\n            \"==\"\n        );\n        product.bids[msg.sender][_bid] = Bid(\n            msg.sender,\n            _productId,\n            msg.value,\n            false\n        );\n        product.totalBids += 1;\n        return true;\n    }\n\n    // \n    function revealBid(\n        uint256 _productId,\n        string memory _amount,\n        string memory _secret\n    ) public {\n        Product storage product = stores[productIdInStore[_productId]][\n            _productId\n        ];\n        require(block.timestamp > product.auctionStartTime);\n        // keccak256\n        bytes32 sealedBid = keccak256(abi.encode(_amount, _secret));\n        Bid memory bidInfo = product.bids[msg.sender][sealedBid];\n        require(bidInfo.bidder > 0x0000000000000000000000000000000000000000);\n        require(bidInfo.revealed == false);\n        // \n        uint256 refund;\n        // \n        uint256 amount = stringToUint(_amount);\n\n        uint256 bidInfov = bidInfo.value;\n        // \n        if (bidInfov < amount) {\n            refund = bidInfov;\n        } else {\n            // \n            if (\n                address(product.highestBidder) ==\n                0x0000000000000000000000000000000000000000\n            ) {\n                product.highestBidder = msg.sender;\n                product.highestBid = amount;\n                product.secondHighestBid = product.startPrice;\n                refund = bidInfov - amount;\n            } else {\n                // \n                if (amount > product.highestBid) {\n                    product.secondHighestBid = product.highestBid;\n                    payable(product.highestBidder).transfer(product.highestBid);\n                    product.highestBidder = msg.sender;\n                    product.highestBid = amount;\n                    refund = bidInfov - amount;\n                } else if (amount > product.secondHighestBid) {\n                    // \n                    product.secondHighestBid = amount;\n                    refund = amount;\n                } else {\n                    // \n                    refund = amount;\n                }\n            }\n        }\n        // \n        product.bids[msg.sender][sealedBid].revealed = true;\n\n        if (refund > 0) {\n            payable(msg.sender).transfer(refund);\n        }\n    }\n\n    // \n    function highestBidderInfo(\n        uint256 _productId\n    ) public view returns (address, uint256, uint256) {\n        Product storage product = stores[productIdInStore[_productId]][\n            _productId\n        ];\n        return (\n            product.highestBidder,\n            product.highestBid,\n            product.secondHighestBid\n        );\n    }\n\n    // \n    function totalBids(uint256 _productId) public view returns (uint256) {\n        Product storage product = stores[productIdInStore[_productId]][\n            _productId\n        ];\n        return product.totalBids;\n    }\n\n    // \n    function stringToUint(string memory s) private pure returns (uint256) {\n        bytes memory b = bytes(s);\n        uint256 result = 0;\n        for (uint256 i = 0; i < b.length; i++) {\n            if (uint8(b[i]) >= 48 && uint8(b[i]) <= 57) {\n                result = result * 10 + (uint8(b[i]) - 48);\n            }\n        }\n        return result;\n    }\n\n    function finalizeAuction(uint256 _productId) public {\n        Product storage product = stores[productIdInStore[_productId]][\n            _productId\n        ];\n        // 48 hours to reveal the bid\n        require(block.timestamp > product.auctionEndTime);\n        require(product.status == ProductStatus.Open);\n        require(product.highestBidder != msg.sender);\n        require(productIdInStore[_productId] != msg.sender);\n\n        if (\n            product.highestBidder == 0x0000000000000000000000000000000000000000\n        ) {\n            product.status = ProductStatus.Unsold;\n        } else {\n            // Whoever finalizes the auction is the arbiter\n            Escrow escrow = (new Escrow){value: product.secondHighestBid}(\n                _productId,\n                product.highestBidder,\n                productIdInStore[_productId],\n                msg.sender\n            );\n            productEscrow[_productId] = address(escrow);\n            product.status = ProductStatus.Sold;\n            // The bidder only pays the amount equivalent to second highest bidder\n            // Refund the difference\n            uint256 refund = product.highestBid - product.secondHighestBid;\n            payable(product.highestBidder).transfer(refund);\n        }\n    }\n\n    function escrowAddressForProduct(\n        uint256 _productId\n    ) public view returns (address) {\n        return productEscrow[_productId];\n    }\n\n    function escrowInfo(\n        uint256 _productId\n    ) public view returns (address, address, address, bool, uint256, uint256) {\n        return Escrow(productEscrow[_productId]).escrowInfo();\n    }\n\n    function releaseAmountToSeller(uint256 _productId) public {\n        Escrow(productEscrow[_productId]).releaseAmountToSeller(msg.sender);\n    }\n\n    function refundAmountToBuyer(uint256 _productId) public {\n        Escrow(productEscrow[_productId]).refundAmountToBuyer(msg.sender);\n    }\n\n    // \n    function keccak(\n        string memory _amount,\n        string memory _secret\n    ) public pure returns (bytes32) {\n        bytes32 _bid = keccak256(abi.encode(_amount, _secret));\n        return _bid;\n    }\n\n    // \n    function increment() public {\n        productIndex = productIndex + 1;\n    }\n}\n",
  "sourcePath": "E:\\newDevelop\\ebay-truffle-auction\\contracts\\EcommerceStoreV2.sol",
  "compiler": {
    "name": "solc",
    "version": "0.8.17+commit.8df45f5f.Emscripten.clang"
  },
  "schemaVersion": "3.4.14",
  "updatedAt": "2025-02-25T09:26:13.241Z",
  "devdoc": {
    "kind": "dev",
    "methods": {},
    "version": 1
  },
  "userdoc": {
    "kind": "user",
    "methods": {},
    "version": 1
  }
}