{
  "contractName": "Test",
  "abi": [
    {
      "inputs": [],
      "stateMutability": "nonpayable",
      "type": "constructor"
    },
    {
      "inputs": [],
      "name": "getValue",
      "outputs": [
        {
          "internalType": "uint256",
          "name": "",
          "type": "uint256"
        }
      ],
      "stateMutability": "view",
      "type": "function"
    },
    {
      "inputs": [
        {
          "internalType": "uint256",
          "name": "newValue",
          "type": "uint256"
        }
      ],
      "name": "setValue",
      "outputs": [],
      "stateMutability": "nonpayable",
      "type": "function"
    }
  ],
  "bytecode": "0x6080604052348015600e575f80fd5b50602a5f5560a58061001f5f395ff3fe6080604052348015600e575f80fd5b50600436106030575f3560e01c80632096525514603457806355241077146048575b5f80fd5b5f5460405190815260200160405180910390f35b605760533660046059565b5f55565b005b5f602082840312156068575f80fd5b503591905056fea2646970667358221220482196b12c4a5f888ae2f638d18e35217afd77ae6f84291582f9949908f3855464736f6c63430008140033",
  "immutableReferences": {},
  "source": "// SPDX-License-Identifier: MIT\r\npragma solidity ^0.8.13;\r\n\r\ncontract Test {\r\n    uint256 private value;\r\n    \r\n    constructor() {\r\n        value = 42;\r\n    }\r\n    \r\n    function getValue() public view returns (uint256) {\r\n        return value;\r\n    }\r\n    \r\n    function setValue(uint256 newValue) public {\r\n        value = newValue;\r\n    }\r\n} ",
  "sourcePath": "E:\\newDevelop\\my\\vue-manager\\contracts\\Test.sol",
  "compiler": {
    "name": "solc",
    "version": "0.8.20+commit.a1b79de6.Emscripten.clang"
  },
  "schemaVersion": "3.4.14",
  "updatedAt": "2025-04-17T08:44:05.925Z",
  "devdoc": {
    "kind": "dev",
    "methods": {},
    "version": 1
  },
  "userdoc": {
    "kind": "user",
    "methods": {},
    "version": 1
  }
}